:020000040800F2
:10000000F064012049030008A5400008273D0008CE
:10001000AD3F0008A51600082552000800000000AA
:10002000000000000000000000000000890200083D
:10003000C916000800000000E5020008614700083A
:1000400063030008630300086303000863030008F8
:1000500063030008630300086303000863030008E8
:1000600063030008630300086303000863030008D8
:1000700063030008630300086303000863030008C8
:1000800063030008630300086303000863030008B8
:1000900063030008630300086303000863030008A8
:1000A0006303000863030008630300086303000898
:1000B0006303000863030008630300086303000888
:1000C0006303000863030008630300086303000878
:1000D0006303000819520008630300086303000863
:1000E0006303000863030008630300086303000858
:1000F0006303000863030008630300086303000848
:100100006303000863030008630300086303000837
:10011000630300086303000829480008630300081C
:100120006303000863030008630300086303000817
:100130006303000863030008630300086303000807
:1001400063030008630300086303000863030008F7
:1001500063030008630300086303000863030008E7
:1001600063030008630300086303000863030008D7
:100170006303000863030008630300080000000035
:10018000630300086303000800F002F800F06DF854
:100190000AA090E8000C82448344AAF10107DA45E2
:1001A00001D100F062F8AFF2090EBAE80F0013F0C7
:1001B000010F18BFFB1A43F001031847B87F000076
:1001C000D87F00000A444FF0000C10F8013B13F0F8
:1001D000070408BF10F8014B1D1108BF10F8015BA0
:1001E000641E05D010F8016B641E01F8016BF9D193
:1001F00013F0080F1EBF10F8014BAD1C0C1B09D1EA
:100200006D1E58BF01F801CBFAD505E014F8016B5B
:1002100001F8016B6D1EF9D59142D6D370470000ED
:100220000023002400250026103A28BF78C1FBD8FF
:10023000520728BF30C148BF0B607047642900F0E7
:100240008581732900F0A385002070471FB507F052
:10025000B1FB01F061F804000020002107F094FBDD
:10026000401C60601FBD10B510BD01F030F8114694
:10027000FFF7ECFF05F033FC01F052F803B4FFF791
:10028000F2FF03BC01F056F82C4B19680868B0E87F
:10029000F04F80F30988BFF36F8F4FF0000080F3B9
:1002A000118870470000000008480068006880F36B
:1002B00008884FF0000080F3148862B661B6BFF37F
:1002C0004F8FBFF36F8F00DF00BF00BF08ED00E06E
:1002D000DFF80C00016841F470010160704700BF55
:1002E00088ED00E0EFF30980BFF36F8F134B1A68BE
:1002F0001EF0100F08BF20ED108A20E9F04F1060AB
:1003000009B44FF0500080F31188BFF34F8FBFF353
:100310006F8F06F035FC4FF0000080F3118809BCA8
:1003200019680868B0E8F04F1EF0100F08BFB0EC75
:10033000108A80F30988BFF36F8F70479402002002
:10034000EFF30580704700000948804709480047DF
:10035000FEE7FEE7FEE7FEE7FEE7FEE7FEE7FEE775
:10036000FEE7FEE704480549054A064B70470000D2
:100370001948000889010008F0440120F0640120B8
:10038000F0540120F054012053EA020C00F069807F
:100390002DE9F04B4FF00006002B1FBFB3FA83F599
:1003A00003FA05F424FA05F65E4012BF1643B2FACA
:1003B00082F502FA05F4C5F120051EBF22FA05FCFC
:1003C00044EA0C04203556EA044C4FEA144418BFA2
:1003D000641C4FF000084FF00009904271EB030CD1
:1003E00039D3002919BFB1FA81F701FA07F6B0FA3B
:1003F00080F700FA07F6C7F120071EBF20FA07FCB6
:1004000046EA0C062037B6FBF4FCA7EB0507103FC5
:1004100007F01F0BCBF120060CFA0BFB2CFA06F6AB
:1004200044BFB3460026202FA4BF5E464FF0000B0A
:100430005BEA060C08BF4FF0010B19EB0B09ABFB95
:10044000027C48EB0608C01B06FB02CC0BFB03CC6E
:1004500071EB0C01C1E70B46024641464846BDE838
:10046000F08B13B54FF000004FF00001AFF30080A8
:10047000BDE81C40704700000FB41CB50C0007AA73
:10048000009001D02044401E074B7B4469460190F8
:10049000069800F04AFC002C03D06946002000F0CA
:1004A00057FC1CBC5DF814FBCD08000070B5044679
:1004B00085690068C10601D5302600E02026C00706
:1004C00007D070BDD4E9012130469047206A401C16
:1004D00020626D1EF6D570BD70B504468569007842
:1004E000C00707D170BDD4E9012120209047206AC0
:1004F000401C20626D1EF6D570BD70B50C460546D9
:10050000012A05D02878800600D5EA69002302E098
:10051000012305E05B1C934202D2E05C0028F9D184
:10052000A869E618C01AA861286A184428622846F3
:10053000FFF7BCFF04E0D5E9012114F8010B904757
:10054000B442F8D32846FFF7C7FF70BD2DE9F0414C
:100550000646002410687529314616A510D0AFF361
:100560000080002802DA404213A507E031688A07BC
:1005700001D512A502E0490704D511A5012401E027
:10058000AFF3008000210A2206F1240709E0B0FB46
:10059000F2FCB0FBF2F302FB1C003030785418463A
:1005A000491C0028F3D123462A463046BDE8F041D5
:1005B00000F05CBB000000002D0000002B000000DC
:1005C000200000002DE9F05F894604464FF0000A44
:1005D000DFF824B1FB44C0F820A02046E16888473A
:1005E00000287DD0252806D0D4E901219047206A33
:1005F000401C2062F1E700255F462046E1688847FD
:100600002028064607DB312E05D2B81910F8200C39
:1006100008B10543F1E7A80701D525F00405C4F8A2
:100620001CA00027C4F818A02A2E09D0304605F0D7
:100630004FFA38B304EB8708303EC8F8186019E069
:1006400059F8041B204604EB87029161E168884752
:10065000012F064618D1E069002820DA25F0200590
:100660001DE0D8F8180000EB800006EB40003038A1
:10067000C8F818002046E1688847064605F028FAC1
:100680000028EED1012F0AD02E2E08D12046E16895
:1006900088477F1C0646022F45F02005C4DBA06971
:1006A000002803DA404245F00105A061E80701D0C7
:1006B00025F01005A6B1A6F14100192802D8203670
:1006C00045F400654A463146204625604D46FFF711
:1006D000B5FD60B1012807D0ED1D25F0070000E051
:1006E00007E000F1080978E705F1040975E73046ED
:1006F0007AE7206ABDE8F09F747900000FB400B576
:100700008DB010A9099000910B904FF0FF300A9026
:1007100000200C90064878440690064878446A46C3
:1007200007900F9909A800F04BFB0DB05DF814FB82
:10073000C7060000DF0600002DE9FF5F1D464FF0F1
:10074000FF3B91464FF000085F46D5E90146A96995
:1007500001987F1C8847296A824688470028F6D17D
:10076000BAF1FF3F0CD0002E24F4C06419DD6006FE
:1007700014D5BAF12B0F09D0BAF12D0F0ED103E029
:10078000584604B0BDE8F09F44F48064A96901981C
:100790007F1C8847761E8246002E02DDBAF1300F9C
:1007A00003D0B9F1000F26D032E0A969761E019876
:1007B0007F1C44F400748847002E824605DDBAF1A0
:1007C000780F06D0BAF1580F03D0B9F1000F10D04E
:1007D0001EE0B9F1000F02D0B9F1100F18D1A969CC
:1007E000761E01987F1C24F40074884782461020EE
:1007F00002E0082000E00A20814609E0A96908FB20
:100800000908761E01987F1C44F4007488478246CC
:10081000002E05DD4946504600F0BDFA0028EDDA0D
:10082000E96901988847A00502D46FF00100A8E7A4
:10083000E00725D1600613D5600502D5C8F1000098
:1008400000E0404629680A1D2A600968220501D592
:10085000087015E0220701D5088011E008600FE05C
:100860002868011D29600068210502D580F80080F4
:1008700006E0210702D5A0F8008001E0C0F8008062
:1008800038467EE72DE9FF5F4FF000089946144691
:1008900046469169D2E901A7DDF838B0019888474A
:1008A000054659EA0B0005D009E0A1690198761CBC
:1008B00088470546216A284688470028F5D1681CE4
:1008C00003D05FEACA7005D015E04FF0FF3004B0E6
:1008D000BDE8F09F2068011D2160D0F800800AE08B
:1008E0005FEACA7001D108F8015BA169761C019822
:1008F0007F1E88470546002F1ADD681C18D0B9F105
:10090000000F0DD0E81705EBD060421120F01F005A
:1009100059F822102A1A012090400142E0D107E044
:10092000BBF1000FDCD12846216A88470028D7D0C8
:10093000E16901988847BBF1000F07D1002E05DD62
:100940005FEACA7002D1002188F80010A068B8429E
:1009500003DDBBF1000F03D017B16FF00100B6E764
:100960003046B4E770B5064600F07CF904680546E9
:1009700030460A22002100F053FA2C6070BD401E60
:10098000CAB210F8011F8A4202D00029F9D1002012
:10099000704730B505460B462A4613F8014B12F84E
:1009A000010B08B1A042F8D01CB1002802D06D1C88
:1009B000F1E7284630BD40EA010310B59B070FD18F
:1009C000042A0DD310C808C9121F9C42F8D020BABF
:1009D00019BA884201D9012010BD4FF0FF3010BD77
:1009E0001AB1D30703D0521C07E0002010BD10F845
:1009F000013B11F8014B1B1B07D110F8013B11F80B
:100A0000014B1B1B01D1921EF1D1184610BD10B530
:100A1000431C02E010F8011B71B18107FAD14FF0BD
:100A2000013202C88C1A8C4314EAC211F9D0C01AE0
:100A30000A0603D0C01E10BDC01A10BD0A0401D0A2
:100A4000801E10BD0902FCD0401E10BD032A40F2DA
:100A5000308010F0030C00F0158011F8013BBCF160
:100A6000020F624498BF11F801CB00F8013B38BF78
:100A700011F8013BA2F1040298BF00F801CB38BF86
:100A800000F8013B11F0030300F02580083AC0F0A4
:100A9000088051F8043B083A51F804CBA0E808104C
:100AA000F5E7121D5CBF51F8043B40F8043BAFF37F
:100AB0000080D20724BF11F8013B11F801CB48BFD9
:100AC00011F8012B24BF00F8013B00F801CB48BF0F
:100AD00000F8012B704710B5203AC0F00B80B1E848
:100AE0001850203AA0E81850B1E81850A0E8185063
:100AF000BFF4F5AF5FEA027C24BFB1E81850A0E86C
:100B0000185044BF18C918C0BDE810405FEA827C85
:100B100024BF51F8043B40F8043B08BF7047D2079C
:100B200028BF31F8023B48BF11F8012B28BF20F83D
:100B3000023B48BF00F8012B704702F0FF0343EA75
:100B4000032242EA024200F002B84FF000020429F8
:100B5000C0F0128010F0030C00F01B80CCF1040CEC
:100B6000BCF1020F18BF00F8012BA8BF20F8022B20
:100B7000A1EB0C0100F00DB85FEAC17C24BF00F8C6
:100B8000012B00F8012B48BF00F8012B70474FF0F4
:100B9000000200B5134694469646203922BFA0E8CD
:100BA0000C50A0E80C50B1F12001BFF4F7AF0907D9
:100BB00028BFA0E80C5048BF0CC05DF804EB8900CA
:100BC00028BF40F8042B08BF704748BF20F8022B0D
:100BD00011F0804F18BF00F8012B70474FF0013C17
:100BE00050F8042B51F8043B9A4221D1A2EB0C039C
:100BF000934313EACC1317D150F8042B51F8043B5C
:100C00009A4215D1A2EB0C03934313EACC130BD1F8
:100C100050F8042B51F8043B9A4209D1A2EB0C0383
:100C2000934313EACC13DBD04FF00000704700BFB2
:100C3000D01A01BAB1FA81F101F0180122FA01F0DB
:100C4000CB40C1F12001DBB2C0B2C01A2CFA01F3D3
:100C5000D11A914311EAC311E6D17047704770472A
:100C60007047000000487047904401202DE9F0478C
:100C70000D4699469246044600F12408016888060C
:100C800004D5E06921F01001216000E00120A842B4
:100C900001DD471B00E00027A1697A1902EB09007A
:100CA000081AA0612078C00602D42046FFF7FEFB98
:100CB000002608E0D4E901211AF806009047206ACE
:100CC000401C761C20624E45F4DB2078C0060AD515
:100CD0002046FFF7EBFB06E0D4E9012130209047E6
:100CE000206A401C2062381EA7F10107F4DC07E0EF
:100CF000D4E9012118F805009047206A401C2062C1
:100D0000281EA5F10105F3DC2046FFF7E5FB20785E
:100D1000000602D50220BDE8F0870120FBE70000B5
:100D200001694A1C02610878704700B58FB0CDE9AF
:100D300001310021059105497944CDE9031011469F
:100D40006846FFF73FFC0FB000BD0000E5FFFFFF66
:100D50000A6802F8010B0A607047D1E900239A4241
:100D600002D2531C0B601070704710B5436913B169
:100D7000AFF3008001E0FFF7C0FB012010BD127847
:100D800000F124010A7000224A700122EDE7116887
:100D90004FF0FF32E9E73A2800D2303820F0200245
:100DA000412A01D3A2F13700884201D34FF0FF302E
:100DB00070470000026811441378016018467047BC
:100DC000D160054979445161044979441162002197
:100DD0001161114600F072B8EDFFFFFFDB0000006B
:100DE000426842B1016811F8013B23B1521EC0E9CB
:100DF0000012184670470121C160881E7047426882
:100E00005AB1C368016843B983688B4205D0491E53
:100E1000521CC0E90012002070474FF0FF307047AD
:100E20002DE9F04791460F4680460446002614F807
:100E3000015B2DB100F030F80068405DC007F6D1CD
:100E40002B2D02D02D2D18D0641E4A46394620463F
:100E500000F0EEF927B13968A14201D1C7F800804E
:100E60004FF0020471050BD54042002803DDFFF767
:100E7000F9FE0460A007BDE8F08746F48066E4E769
:100E80000028F8DAFFF7EEFE04606FF00040F2E7AA
:100E9000004870479044012010B500F03DFA001D55
:100EA00010BD00BFE56A000010B50446FFF7F4FF6F
:100EB0000068005D00F0010010BD00002DE9F34F57
:100EC0004FF0000A0C4656468DB001200C9001F1FF
:100ED0000C000B9062690B9801219047051E2DD0E4
:100EE000252D2CD0216A8847C0B162690B98012159
:100EF0009047216A88470028F7D16269411E0B9804
:100F0000904700E0761CA1690D988847216A8847C0
:100F10000028F7D1E1690D988847DBE7A1690D98B2
:100F20008847A842074601D1761CD3E7E1690D98AE
:100F300088477F1C02D1BAF1000F6FD06BE1626964
:100F40000B9800273D46394690472A2804D162690C
:100F50000B98012190470125DFF8D08262690B9838
:100F600001219047A0F130010A290AD24745E5DC6A
:100F700007EB870100EB4107303FDFD445F0100558
:100F8000ECE7E90601D46FF000476C280AD04C2842
:100F900014D0682815D06A280DD074281CD07A285F
:100FA0001AD01DE062690B98012190476C2802D08D
:100FB00045F0040514E045F002050DE045F020057C
:100FC0000AE062690B9801219047682802D045F039
:100FD000080505E045F4006562690B98012190471A
:100FE000C4E9015765283DD019DC58287AD00CDCBB
:100FF000452837D004DC252826D041289ED131E071
:1010000046282FD0472899D12CE05B2877D061283B
:1010100028D063287CD0642823D15AE0F6E06F28DA
:1010200048D008DC66281DD067281BD0692821D04D
:101030006E2816D127E0702845D0732868D075280F
:1010400047D078280DD14DE0A1690D988847252813
:1010500005463FF469AFE1690D9888476D1C3FF480
:101060006AAFD8E00D9923466A466FF00100AFF3EE
:101070000080C5E045F0400023464FF0000260606C
:10108000A80736D43EE0E8077FF447AF2068011D8B
:1010900021600068290501D506701BE7290701D5E5
:1010A000068017E7A90703D5F117C0E9006111E72A
:1010B00006600FE745F0400023464FF008026060ED
:1010C000A80716D41EE040F60E0125EA0100606074
:1010D00016E045F0400023464FF00A026060A80782
:1010E00007D40FE045F040006060A80708D523460C
:1010F00010220D996FF00100AFF3008080E007E04F
:10110000102223460D996FF00100FFF715FB77E0E1
:101110004FF0000963284F46C8464B46CB4602D0E5
:101120005B2806D038E0E80601D40120A060012742
:1011300032E06269D4F80CB00B98012190475E2828
:1011400007D14FF0010949466269D4F80CB00B98F9
:101150009047216939B900210A4603AB43F82120A1
:10116000491C0829FADBD8B3216949B308F1010801
:1011700062690B98012190475D28F4D1B9F1000F05
:1011800009D0002003A951F82020D24341F82020A3
:10119000401C0828F7DB03AB2069002820794FEAC0
:1011A00040701ED05B462246CDF80080CDE9019705
:1011B0000D9900286FF0010020DAAFF300801FE0E6
:1011C000C11703AA00EBD1614B1121F01F0102EB03
:1011D0008302411A13680120884003431360C7E764
:1011E00019E00D99224600286FF00100009702DAFD
:1011F000AFF3008004E0FFF745FB01E0AFF30080B0
:1012000000280ADA401C06D10C9820B14FF0FF30BC
:101210000FB0BDE8F08F5046FAE7E90701D10AF1B7
:10122000010A064400200C9054E60000CCCCCC0C03
:101230002DE9F05F824615468B4600270AF101042E
:10124000B9460078302801D09DB113E014F8010BA5
:101250000127782803D0582801D045B10AE00DB104
:10126000102D07D1002714F8010B102502E00825E6
:1012700000E00A250026B0460EE005FB080005FB4D
:1012800006F101271FFA80F801EB1046B6F5803F02
:1012900000D3B94614F8010B2946FFF77CFD00285E
:1012A000EBDABBF1000F05D00FB1641E00E054462D
:1012B000CBF80040B9F1000F06D0FFF7D3FC0221B4
:1012C0000160C81EBDE8F09F48EA0640FAE775468F
:1012D000FFF7DEFDAE4605006946534620F00700E5
:1012E000854618B020B5FFF73DF8BDE820404FF027
:1012F00000064FF000074FF000084FF0000B21F000
:101300000701AC46ACE8C009ACE8C009ACE8C009CC
:10131000ACE8C0098D46704700487047B0440120D2
:1013200010B50446AFF300802046BDE81040FEF73C
:10133000A5BF000001491820ABBEFEE72600020051
:1013400070470000014900204870704700000020ED
:1013500010B504F09DF9034900200870BDE8104065
:1013600003F04ABC00000020154A082811781FD25B
:10137000DFE800F01E0804110F1B1F1B491C01F0C1
:10138000030004E011B1491E117017E00320107032
:1013900014E00020FBE719B1012901D002290DD189
:1013A00001205070062000F069B939B1032905D039
:1013B000704719B1012901D00229F7D103F01CBCF3
:1013C0000000002010B5044804F093FC03490028F5
:1013D000886000D0012010BDF07D000800000020D2
:1013E00001484078704700000000002010B5044616
:1013F0004FF0FF3003F082FE00280AD00CB101202C
:1014000000E00020034981F80702BDE8104003F026
:10141000F9BE10BD0C00002010B504464FF0FF309F
:1014200003F06CFE00280AD00CB1012000E000207F
:10143000034981F80602BDE8104003F0E3BE10BD89
:101440000C00002010B504464FF0FF3003F056FEAC
:1014500000280AD00CB1012000E00020034981F8E7
:101460000C02BDE8104003F0CDBE10BD0C00002002
:1014700010B504464FF0FF3003F040FE002816D0B0
:101480000B491CB1012081F805020CE0002081F815
:10149000050281F8060281F8070281F8080281F846
:1014A000090281F80C02BDE8104003F0ABBE10BD8C
:1014B0000C00002010B504464FF0FF3003F01EFE74
:1014C00000280AD00CB1012000E00020034981F877
:1014D0000B02BDE8104003F095BE10BD0C000020CB
:1014E00010B504464FF0FF3003F008FE00280AD084
:1014F0000CB1012000E00020034981F80902BDE899
:10150000104003F07FBE10BD0C00002010B5044653
:101510004FF0FF3003F0F2FD00280AD00CB101209B
:1015200000E00020034981F80802BDE8104003F004
:1015300069BE10BD0C00002010B504464FF0FF300E
:1015400003F0DCFD00280AD00CB1012000E00020EF
:10155000034981F80A02BDE8104003F053BE10BDF4
:101560000C00002070B505460C464FF0FF3003F02C
:10157000C5FD00280ED02A461021074803F02CFB99
:10158000054822461421103003F026FBBDE87040C8
:1015900003F038BE70BD00000C00002010B5040040
:1015A00016D04FF0FF3003F0A9FD60B14FF4AE72DA
:1015B00021460848FFF74AFA06490120A93981F86F
:1015C000090203F01FFEBDE81040062000F056B8E7
:1015D00010BD0000B500002010B504004BD04FF046
:1015E000FF3003F08BFD98B322461821224803F008
:1015F000F3FA214804F118021821183003F0ECFA2C
:101600001D4804F130020C21303003F0E5FA1A488D
:1016100004F13C020C213C3003F0DEFA164804F1E0
:1016200048021821483003F0D7FA134804F1600249
:101630000C21603003F0D0FA0F4804F16C0218213D
:101640006C3003F0C9FA94F8840010B1012101E074
:101650000CE000210848243880F8A81094F8841081
:1016600001B1012180F8081203F0CCFDBDE8104063
:10167000062000F003B810BD3000002001B5054879
:101680004068002804D000231A46694604F0D4FAC2
:1016900008BD0000000000200149486070470000BC
:1016A00000000020FEE70000002807D0002905D038
:1016B00002B903A2134603A2FEF7DEBE7047000084
:1016C00000000000257300007047000010B54FF4C3
:1016D0007A6000F01DFE002811D040F6B83208A153
:1016E00008A000F09DFE30B109A10B48FFF751F9A9
:1016F00008B1012400E0002400F0BCFE204610BD2B
:101700004F4B000041542B43574A41503F0D0A00B4
:101710002B43574A41503A001403002010B50648A5
:1017200004F0E7FA0549086020B100F005FB08B1B4
:10173000012010BD002010BD007E00081C0200200A
:1017400030B5A9B0002446F2A81000F0E1FD002851
:1017500051D04FF47A752A4628A129A000F060FEE6
:10176000002845D02A4625A127A000F059FE2A4688
:1017700022A127A000F054FE002839D02A461FA13C
:1017800027A000F04DFE40F6B8352A461BA128A040
:1017900000F046FE78B129A12A48FFF7FAF850B1C7
:1017A0002A4616A128A000F03BFE20B129A1254819
:1017B000FFF7EFF8C8B929A000902BA32CA2A02115
:1017C00001A8FEF759FE44F620620CA101A800F022
:1017D00027FE68B12A4609A11BA000F021FE30B106
:1017E0001CA11848FFF7D5F808B1012400E0002437
:1017F00000F040FE204629B030BD00004F4B0000F5
:1018000041540D0A00000000415445300D0A00000B
:1018100041542B43574D4F44453D310D0A000000C4
:1018200041542B4349504D55583D300D0A0000009E
:1018300041542B43574A41503F0D0A002B43574A0E
:1018400041503A001403002041542B43494653525F
:101850000D0A000053544149500000003835323918
:1018600031313533000000006B65656C6564000044
:1018700041542B43574A41503D222573222C2225A7
:1018800073220D0A0000000030B5A7B0054698226B
:1018900015496846FFF71FF90024EDB14FF4FA40EF
:1018A00000F036FD002818D047F230520FA16846EC
:1018B00000F0B6FDA0B10FA11148FFF76AF878B1AA
:1018C00010A10F48FFF765F850B129460C4803F006
:1018D000ABFC20B1012403E0002027B030BD02247E
:1018E00000F0C8FD2046F8E7B87F00080D0A4F4B0E
:1018F0000D0A000022726573756C7473220000007B
:1019000014030020226461696C79220030B5A3B011
:101910000546882214496846FFF7DDF8002405B320
:101920004FF4FA4000F0F4FC002818D047F230528F
:101930000EA1684600F074FD70B10EA11048FFF7CB
:1019400028F848B10FA10E48FFF723F820B1294627
:101950000B4803F085FD044600F08CFD204623B0C3
:1019600030BD0020FBE70000508000080D0A4F4BFF
:101970000D0A000022726573756C747322000000FA
:1019800014030020226E6F772200000030B5C3B030
:10199000002442F2107000F0BBFC002832D04FF45B
:1019A0007A752A4618A119A000F03AFD2A4616A118
:1019B0001BA000F035FD1EA11DA0CDE900014FF4D4
:1019C00080751CA321A2294602A8FEF755FD40F60A
:1019D000B8320DA102A800F023FD80B140F25B7087
:1019E000009025A328A2294602A8FEF745FD4FF442
:1019F000FA5205A102A800F013FD00B1012400F085
:101A000039FD204643B030BD4F4B000041542B4DB3
:101A1000515454444953434F4E4E3D300D0A00003B
:101A200041542B4D515454434C45414E3D300D0AC9
:101A3000000000007A6774365F77656174686572CC
:101A40005F636C6F636B5F303031000041542B4D2E
:101A5000515454555345524346473D302C312C2266
:101A60002573222C222573222C222573222C302C24
:101A7000302C22220D0A000031302E35392E313221
:101A8000352E32343800000041542B4D515454430C
:101A90004F4E4E3D302C222573222C25642C310DC7
:101AA0000A0000002DE9F041E2B0884668991E4620
:101AB000144605004FF0FF3716D0B8F1000F13D0D1
:101AC00094B18EB1002028702070684600F022F991
:101AD000002806D09DF80000022805D0012805D076
:101AE000002062B0BDE8F0813846FAE707A241461F
:101AF00028460DF10103FEF7BFFC04A23146204643
:101B00000DF18103FEF7B8FC0120EAE72573000020
:101B100030B5E1B00C4605001AD0CCB141F28830A6
:101B200000F0F6FB002811D02B460AA24FF4C0713A
:101B300001A80094FEF7A0FC40F6B8320DA101A860
:101B400000F06EFC044600F095FC204661B030BD0C
:101B50000020FBE741542B4D5154545055423D3029
:101B60002C222573222C222573222C312C300D0A95
:101B7000000000004F4B000010B5B0B041F28830BB
:101B800000F0C6FB00280FD008A30AA2C0216846B7
:101B9000FEF772FC40F6B8320CA1684600F040FC3B
:101BA000044600F067FC204630B010BD746F7069C9
:101BB0006331000041542B4D5154545355423D3034
:101BC0002C222573222C310D0A0000004F4B0000FF
:101BD0002DE9F0410D46060028D0002D26D0144CEA
:101BE0006069002822D04FF0FF3104F059F8002836
:101BF0001CD16078A8B1A08841F6FF71884210D24C
:101C0000091A8AB2AA4200D28DB20A4F2A46384433
:101C10003146FEF71BFFA0880021284480B2A08037
:101C200039546069BDE8F04104F097B8BDE8F0812F
:101C300050020020B456002010B501220B490C4878
:101C400002F010F880B1022804D1094890F842004F
:101C5000222809D000F0ECF901220449044802F0DE
:101C600001F808B1002010BD012010BD5002002075
:101C70002C77002038B50F4CE06838B100231A46A5
:101C80006946E06803F07AFF0028F7D06069002811
:101C90000FD04FF0FF3104F003F8002809D10649B6
:101CA000A0800870012060706069BDE8384004F0D1
:101CB00054B838BD50020020B456002070B50D460F
:101CC000060014460DD064B11046FEF7A0FE0200D7
:101CD00007D0954205D37019801A2146FEF76BFE96
:101CE00008B1002070BD012070BD000010B5084C87
:101CF000606900280BD04FF0FF3103F0D1FF0028BE
:101D000005D160706069BDE8104004F026B810BDD0
:101D10005002002010B548B1064A146934B10B4690
:101D200001460022204603F029FF08B1002010BD23
:101D3000012010BD5002002010B51D4CA06828B92C
:101D400001211C4A880203F04BFFA060E06830B913
:101D5000184A01211832042003F042FFE060206994
:101D600038B9144A40F281113032042003F038FFB0
:101D70002061606920B90F48483003F0BAFF606104
:101D8000A06930B90B4A002158320B4804F006F81C
:101D9000A061A06848B1E06838B1206928B16069E5
:101DA00018B1A06908B1012010BD002010BD0000CD
:101DB00050020020107E0008DD2000082DE9F041CF
:101DC0001746060024D01FB300250C4601E06D1C09
:101DD000ADB2A54207D2705D0D28F8D00A28F6D022
:101DE00001E0641EA4B2AC4206D9301910F8010C0F
:101DF0000D28F6D00A28F4D01046FEF708FE024659
:101E0000601B904204D170193946FEF7D4FD10B121
:101E10000020BDE8F0810120FBE700002DE9F04142
:101E20000C4690B38CB32EA1FEF7B3FD00282DD045
:101E30002221FEF7A4FD071E28D02221781CFEF7E0
:101E40009EFD061E22D02C21701CFEF798FD050079
:101E50001BD0681CFEF786FD80462C21681CFEF70F
:101E60008EFD90B1B8F1000F0FDB401C0546FEF768
:101E7000CEFD00E0401E30B1291811F8011C0D29DB
:101E8000F8D00A29F6D0404502D20020BDE8F08102
:101E900040F281112046FEF758FE0120F61B761E07
:101EA0002070802E00D37F263246791C601CFEF7FE
:101EB000CDFDA019002747704646B8F1FF0F01DDA0
:101EC000FF2601E0002E05DD3246294604F181009F
:101ED000FEF7BCFDA01980F881700120D6E7000054
:101EE0002B4D515454535542524543563A0000002D
:101EF0002DE9F0410E4C054641F6FF706188002740
:101F00000C4E814203D27554491C618005E009489A
:101F1000FFF75EFE3570012060800A2D05D16188D3
:101F20000448775400F008F86780BDE8F0810000AD
:101F300050020020B43600202DE9F041E2B00C46FA
:101F4000050055D0002C53D04FF4C2716846FEF7FF
:101F50001EFE69462846FFF761FF274E20B1002389
:101F60001A466946306941E024A12846FEF711FD72
:101F700018B102208DF80000F1E721462846FFF74E
:101F800027FE23A221462846FFF718FF012738BB6A
:101F900020A221462846FFF711FF08BB1FA22146B9
:101FA0002846FFF70BFFD8B90FF2780803E0641E4C
:101FB0002404240C06D0281910F8010C0D28F6D0A2
:101FC0000A28F4D04046FEF722FD020010D09442C9
:101FD0000ED32819801A4146FEF7EDFC002807D1E0
:101FE0008DF8847100231A4661A9F06803F024FE7D
:101FF00062B0BDE8F0810000500200202B4D51542A
:1020000054444953434F4E4E454354454400000009
:102010004F4B00004552524F520000004641494C80
:10202000000000006275737920702E2E2E000000D3
:1020300038B5114C2068C16821F02001C1602068CA
:10204000C16821F48071C1602068416921F00101FB
:10205000416120680025016841680091016841687C
:102060000091016841680091016840680090204635
:1020700001F0FCFB656438BD2C77002070B5164676
:102080000C46050025D026B3FFF718FE18BB0D211E
:102090003046FEF774FCE0B90A213046FEF76FFCCB
:1020A000B8B901E0641EA4B234B1281910F8010CCB
:1020B0000D28F7D00A28F5D03046FEF7A8FC02001C
:1020C00007D0944205D32819801A3146FEF773FCD5
:1020D00008B1002070BD012070BD000008B502E00D
:1020E000642003F00FFD00220521252000F03CFCB8
:1020F000252000F02BFCFFF79FFD0028F0D0084DB5
:102100004FF0FF34234600226946A86803F036FDED
:102110000028F7D19DF80000FFF7EAFEF2E7000083
:102120005002002010B5002809D0006804498842F8
:1021300005D1FFF77DFFBDE81040FFF77DBD10BD65
:102140000010014010B500280FD0006807498842F0
:102150000BD10748806820B100231A46044903F0D8
:102160006BFDBDE81040FFF767BD10BD00100140DA
:10217000500200202DE9FF4F81B01F46924689464C
:1021800000F054FB00250646AB46314C00F04EFBF8
:10219000801BB84234D23B1A00226946E06803F043
:1021A000EDFC30BB60690028F0D04FF0FF3103F048
:1021B00077FD0028EAD1A1882648019AFFF75EFF43
:1021C00008B1012512E024A2A1882248FFF776FD7C
:1021D00058B923A2A1881F48FFF770FD28B922A291
:1021E000A1881C48FFF76AFD20B10025606903F053
:1021F000B4FD05E0606903F0B0FDBBF1000FC5D090
:102200005FEA090756461CD0DEB16069C8B14FF0DD
:10221000000987F800904FF0FF3103F041FD80B9CD
:10222000A046A488B44201D3761EB4B2224609491E
:102230003846FEF70BFC07F80490D8F8140003F0BA
:102240008CFDFFF753FD05B02846BDE8F08F000078
:1022500050020020B45600204552524F520D0A0041
:102260004641494C0D0A00006275737920702E2E8C
:102270002E0D0A002DE9F04387B00F4606004FF0FF
:1022800000052AD04FB344F6206000F041F8002842
:1022900024D040F6B83216A1164800F0C1F818B3A1
:1022A00000244FF4FA6841F28839404603F02AFCD2
:1022B0004A460FA110A000F0B3F890B16A4605A9F4
:1022C000124800F035F860B1059830601422694674
:1022D0003846FEF700FC012506E0002007B0BDE807
:1022E000F083641C052CE0DB00F0C4F82846F5E719
:1022F0004F4B0000707F000841542B434950534E10
:10230000545054494D453F0D0A000000140300206D
:102310000146064810B50068002803D003F0C0FC51
:1023200008B1002010BD012010BD00001C020020DB
:102330002DE9F0418AB015460E4648B346B33DB389
:102340003A21FEF71CFB002841D000BF10F8011F06
:102350002029FBD009AC08AB07AA06A98DE81E000E
:1023600005AB04AA27A1FEF7C9F906282ED100273C
:10237000DFF8A8808DF813703C4600BF58F8241091
:1023800004A8FEF72BFC04F1010410B10C2CF5DBC2
:102390001CE0DCB10998B0F5FA6F17DB40F63301A9
:1023A000884213DC0598012810DB1F280EDC0698F4
:1023B00000280BDB172809DC0798002806DB3B28E0
:1023C00004DC0898002801DB3B2803DD00200AB06C
:1023D000BDE8F081376014212846FEF7D8FB099844
:1023E000A0F5FA60F07074700598B070012030703C
:1023F00006982870079868700898A870EF60012008
:102400002F61E4E7252A33732025337320256420C8
:1024100025643A25643A25642025640020020020C2
:102420002DE9F0410D4607464FF40056144631465B
:102430000E48FEF78AFBFFF71DFC3846FEF7E7FA69
:1024400082B24FF47A733946094801F01BFC20B17F
:10245000FFF74CFC0020BDE8F081284623463246B9
:10246000BDE8F0410149FFF785BE000014030020DC
:102470002C77002003480068002801D003F06DBCD1
:10248000704700001C02002072B6FEE72DE9F04103
:102490001E46069D90460F4610B30FB3B8F1000FCD
:1024A0001ED0EEB1E5B13946FEF773FA040017D03D
:1024B0003846FEF7ACFA071941463846FEF769FA86
:1024C00000280BD0C41BAC4200D36C1E22463946F8
:1024D0003046FEF7BBFA002030550120BDE8F08100
:1024E0000020FBE72DE9F0479946DDE908759046A5
:1024F0000C46D0B1CCB1B8F1000F16D0B9F1000F35
:1025000013D097B18DB14146FEF743FA06000CD0C7
:10251000A6420AD24046FEF77AFA064449463046B9
:10252000FEF737FA08B1A04202D90020BDE8F087D3
:10253000841BAC4200D36C1E224631463846FEF75F
:1025400085FA002038550120F0E72DE9F0410446D6
:10255000876D00F06BF9064694F8350000250228D7
:1025600006D08020606584F834500120BDE8F081F9
:102570002068016821F0160101602068416921F09E
:1025800080014161206C08B9A06C20B1206801680D
:1025900021F0080101602068016821F0010101605B
:1025A0000CE000F043F9801B052807D92020606566
:1025B000032084F8350084F83450D7E72068006899
:1025C000C007EED194F85C103F208840B86001202D
:1025D00084F8350084F834500020C7E790F83510AF
:1025E000022903D08021416501207047052180F830
:1025F00035100068016821F001010160002070477A
:10260000406D704770B5044600F010F90546601C37
:1026100002D004480078044400F008F9401BA042AE
:10262000FAD370BD840200202DE9F84FDFF8BCA179
:102630000022012503264FF00F090AF1040BAAF12D
:10264000040E00BF0B6805FA02F42340A34270D1C8
:102650000F7907F00307012F01D0022F16D18768E9
:102660004FEA420806FA08FC27EA0C07D1F80CC02A
:102670000CFA08FC4CEA070CC0F808C04768A743EE
:102680000C79C4F3001494403C4344600C79E44357
:10269000A4070AD0C4684FEA420C06FA0CF7BC4300
:1026A0008F6807FA0CF72743C7600C7904F003041E
:1026B000022C12D1D40800EB840CDCF82040570720
:1026C000FF0E09FA07F824EA0804D1F8108008FA86
:1026D00007F848EA0408CCF8208004684FEA420C66
:1026E00006FA0CF7BC430F7907F0030707FA0CF75B
:1026F000274307604C6814F4403F70D03C4C276877
:1027000047F480472760246822F0030704F48044DC
:102710000094384C07EB040CDCF8084897074FEAA4
:10272000177809FA08F7BC43334FB84202D10027A3
:1027300024E054E0314FB84201D101271EE0304F70
:10274000B84201D1022719E02E4FB84201D1032728
:1027500014E02D4FB84201D104270FE02B4FB842AF
:1027600001D105270AE02A4FB84201D1062705E02A
:10277000284FB84201D1072700E0082707FA08F7D9
:102780002743CCF80878DAF800405746D1F804C05F
:102790009C435FEACC2C00D51C433C60DBF8004036
:1027A0005F46D1F804C09C435FEA8C2C00D51C43E3
:1027B0003C60DEF800407746D1F804C09C435FEAF5
:1027C0008C3C00D51C433C60084F083F3C68D1F866
:1027D00004C09C435FEACC3C00D51C433C60521CC7
:1027E000102AFFF42FAFBDE8F88F0000083C01402D
:1027F0004438024000300140000002400004024022
:1028000000080240000C0240001002400014024088
:1028100000180240001C02400069084000D001205E
:1028200070470AB1816170470904FBE7014880687D
:102830007047000084020020024881680278114439
:1028400081607047840200200B4810B5016841F494
:1028500000710160016841F480610160016841F428
:1028600080710160032000F09FF80F2000F006F84F
:1028700000F050F8002010BD003C024030B5054685
:102880001F4887B00024016841F010010160006812
:1028900006A900F01000009001A800F0DBF90498F0
:1028A000A8B100F0F7F940001649174AB0FBF1F162
:1028B0001648491E026040F2E732C0E90324C0E92D
:1028C0000114846100F0BBFE040003D015E000F0A9
:1028D000E1F9E9E70D4800F0E1FE04000DD13620F2
:1028E00000F034F8102D07D200222946362000F0DF
:1028F0003BF80748056000E0012407B0204630BDE2
:102900004038024040420F00001000407477002021
:10291000880200200C4882B0016841F480410160C7
:10292000006800F4804000900748001F016841F0F3
:10293000805101600068002200F0805000900F215B
:10294000901E02B000F010B844380240002809DBA5
:1029500000F01F02012191404009800000F1E020B9
:10296000C0F8001170470000F0B40E4B1B680C4615
:10297000C3F30223C3F10705042D00D90425191D53
:10298000072901D2002300E0DB1E012606FA05F12B
:10299000491E214099409E40761E16403143F0BCAE
:1029A00003F086B80CED00E0064900F00702086865
:1029B0004FF6FF03184040EA0220034A1043086024
:1029C000704700000CED00E00000FA05034908B56F
:1029D0000120086202480068009008BD00000E4215
:1029E000007000402DE9F843054600684FF00109EA
:1029F000C1074FF0000601D1400727D5DFF80C8151
:102A0000C8F86860FFF712FF0746414C05E000BFB9
:102A1000FFF70CFFC01B022857D820680001F7D42D
:102A200068688101287A41EA007039498431086078
:102A3000C8F86890FFF7FAFE074604E0FFF7F6FED5
:102A4000C01B022841D820680001F7D528788007EC
:102A500052D52F484030016841F080510160006834
:102A60002C4C00F080500090206840F48070206072
:102A7000FFF7DCFE074604E0FFF7D8FEC01B022884
:102A800023D82068C005F7D5214C7034206810F495
:102A9000407020D0A98901F4407181421BD0206888
:102AA0001D4920F44070C1F800900E60206020683D
:102AB000C00710D0FFF7BAFE064641F2883707E09C
:102AC000FFF7B4FE801BB84202D90320BDE8F883AB
:102AD00020688007F4D5E9680D48C1F30122083069
:102AE000032A0BD0016821F4F81101602068A9893C
:102AF000C1F30B01084320600020E7E70268074BA1
:102B000022F4F81219400A430260EFE7000047423E
:102B10000038024000700040400E4742FFFCFF0FAB
:102B20002DE9F0470E46050065D0DFF81481D8F88E
:102B30000000F7B200F00700B04207D288F800703A
:102B4000D8F8000000F00700B04254D128683D4C8E
:102B5000810712D5400703D5206840F4E05020607B
:102B60002878000703D5206840F460402060206882
:102B7000A96820F0F000084320602878C0072DD015
:102B8000304968680839012812D0022813D0032878
:102B900011D00968890700292DDA216821F0030185
:102BA00001432160FFF742FE814641F2883A0EE080
:102BB00009688903EFE709688901ECE7FFF736FE4A
:102BC000A0EB0901514502D90320BDE8F087206838
:102BD000696800F00C00B0EB810FEFD1D8F800105D
:102BE000404601F00701B14207D90770006800F0C4
:102BF0000700B04201D00120E7E72878400705D55B
:102C00002068E96820F4E050084320602878000735
:102C100006D52068296920F4604040EAC1002060A0
:102C200000F058F82168084AC1F30311515CC8400C
:102C30000649086006480068FFF720FE0020C4E748
:102C4000003C024008380240347F00089002002017
:102C5000880200200F2202600C4A136803F003036D
:102C60004360136803F0F0038360136803F4E053D8
:102C7000C36012684FF4E05303EAD20202610448D1
:102C8000006800F007000860704700000838024044
:102C9000003C02400448054900680968044AC1F341
:102CA0008221515CC84070479002002008380240E1
:102CB000447F00080448054900680968044AC1F3D4
:102CC0004231515CC84070479002002008380240F1
:102CD000447F0008154810B5006810F00C02144835
:102CE00013D04110042A0FD0082A0ED10F4C241FF4
:102CF0002268236802F03F025B0207D52068C0F318
:102D00008810A0FB010106E0084610BD2168C1F350
:102D10008811A1FB00010023FDF736FB2168C1F3F8
:102D20000141491C4900B0FBF1F010BD08380240D8
:102D30000024F4002DE9F84F04006ED02078DFF86D
:102D40004C93C007A9F104054AD009F104000168B9
:102D5000C1F38101012908D00068C0F38100022875
:102D60000AD1D9F80000400206D52868800337D57B
:102D700060680028E1D033E06068B0F5803F10D093
:102D8000B0F5A02F286810D020F480302860286883
:102D900020F4802028606068A8B1FFF747FD064650
:102DA0000DE0286840F48030F4E740F4802028608B
:102DB000F7E700BFFFF73AFD801B642873D8286847
:102DC0008003F7D50CE0FFF731FD064605E000BFB4
:102DD000FFF72CFD801B6428F0D828688003F7D407
:102DE0002078DFF8AC8280074FF0000A3ED5A74874
:102DF000001D016811F00C0F08D00068C0F38100BD
:102E000002280BD1D9F80000400207D428688007B7
:102E100016D5E068012800D112E033E1E068B8B1CE
:102E20000120C8F80000FFF701FD064605E000BFDD
:102E3000FFF7FCFC801B0228C0D828688007F7D564
:102E40002868216920F0F80040EAC10028600DE000
:102E5000C8F800A0FFF7EAFC064604E0FFF7E6FC2E
:102E6000801B02281FD828688007F7D42078000725
:102E700022D5864F87486169703771B101210160A1
:102E8000FFF7D4FC064604E0FFF7D0FC801B0228C5
:102E900009D838688007F7D50EE0C0F800A0FFF722
:102EA000C5FC064605E082E0FFF7C0FC801B022857
:102EB0007DD838688007F7D42078400768D5DFF8D8
:102EC000CCB100270BF13C0BDBF80000C0000BD4A9
:102ED000DBF8001041F08051CBF80010DBF8000067
:102EE000012700F0805000906B4E3068C00510D470
:102EF000306840F480703060FFF798FC009005E087
:102F0000FFF794FC0099401A022850D83068C00599
:102F1000F6D55E4EA0686C3601280FD005283068C3
:102F200010D020F001003060306820F004003060E4
:102F3000A068B8B1FFF77AFC00900FE0306840F06D
:102F40000100F4E740F004003060F7E7FFF76EFCA3
:102F50000099411A41F28830814266D83068800772
:102F6000F4D50EE0FFF762FC009007E0FFF75EFC8F
:102F70000099411A41F28830814256D83068800762
:102F8000F4D42FB1DBF8001021F08051CBF8001001
:102F9000A069C8B33D49091D0968C1F3810102292F
:102FA0004AD00228504607D0C8F8600000E03CE054
:102FB000FFF73CFC04463BE04746C8F86000FFF7DB
:102FC00035FC064605E000BFFFF730FC801B0228F9
:102FD0002BD828688001F7D4D4E907010843A16AF7
:102FE0002E4A490802EB0141626A41EA8211084314
:102FF00094F82C1040EA0161C9F8001001203866ED
:10300000FFF714FC044606E03EE000BFFFF70EFCAD
:10301000001B022809D828688001F7D534E000BFDA
:10302000FFF704FC001B022802D90320BDE8F88F3B
:1030300028688001F4D427E00128F7D0D9F80000EF
:10304000E26900F4800191421CD1226A00F03F0144
:10305000914217D147F6C071626A0140B1EB821FFD
:1030600010D1A26A4FF0FF3300F4403103EB52025B
:10307000B1EB024F06D194F82C1000F07060B0EB69
:10308000016F01D00120D1E70020CFE704380240D2
:1030900000004742800E4742007000400000FFFFE2
:1030A0000068503050F8210070470068503040F8F8
:1030B0002120704710B500680B4641680D4801405B
:1030C000080CD870C1F304245C7001F03F049C70BC
:1030D000C1F34231197052B901F036F8D8705878FE
:1030E00001F032F85870987801F02EF898700020AE
:1030F00010BD00003FFFFF0010B50B460168896A54
:10310000596001680969C1F30E019960006801689E
:103110000D480140C1F305401870C1F306245C70EE
:1031200001F07F049C70890DD97052B901F00CF840
:103130001870587801F008F85870987801F004F881
:103140009870002010BD00007F7F7F0010B5040044
:1031500002D0607F10B106E0012010BD0020207772
:10316000204600F041F8022060772068C168C9431A
:10317000C90632D5CA2141622168532048622046DF
:1031800000F0F6FF20BB20688168164A114081607C
:103190002168886862681043D4E904231A43104305
:1031A00088602168E068086120680169228941EA35
:1031B00002410161204600F0FFFF48B921680A6C16
:1031C00022F480220A6421680A6CA3691A430A6403
:1031D0002268FF21516208B110BD002001216177F2
:1031E00010BD0000BFFF8FFF1FB5002100910191AE
:1031F000029103910068084988420CD10220009096
:10320000C00103906846FFF7EDFB08B1FFF73CF9FA
:103210000249012008601FBD002800403C0E4742C3
:1032200070B50446007F0B46012819D00126267789
:1032300002206077B2B19878D97840EA0145587891
:103240001978000240EA413005432168CA204862EB
:10325000216853204862204600F08AFFD0B122E066
:10326000022070BD5878C10603D500F0EF000A3087
:103270005870D87800F071FF0204587800F06DFFA4
:1032800042EA0022987800F068FF0243187842EA88
:103290004035DAE70748054020684560204600F0E1
:1032A0008BFF00B966772268FF21516200212177E8
:1032B00070BD00003FFFFF002DE9F0410446007F94
:1032C0000D46012823D04FF0010884F81C8002200D
:1032D00060772068002780684FEA4060D2B10028FC
:1032E00000DBEF70A878297840EA01466878E97831
:1032F000000240EA815006432168CA2048622168E2
:1033000053204862204600F033FFB8B12CE0022081
:10331000BDE8F081002800DBEF70287800F01DFF89
:103320000204687800F019FF42EA0022A87800F051
:1033300014FF0243E87842EA8056DDE70D48064074
:10334000206806602068816821F480218160D5E9C9
:103350000301084321688A6810438860204600F012
:103360002BFF08B984F81D802268FF21516227775E
:10337000CEE700007F7F7F0070B504460B482168D0
:10338000C860FFF753FA05464FF47A7607E000BFAE
:10339000FFF74CFA401BB04201D9032070BD2068F2
:1033A000C0688006F4D5002070BD00005F7F01007A
:1033B00070B5040009D0606A002540B125616561DF
:1033C000A56294F8510040B10CE0012070BD606826
:1033D000B0F5827FF4D0E561F2E784F850502046E2
:1033E00000F044F8022084F851002068016821F0C0
:1033F00040010160A088218900F4827001F4044139
:103400000843A18901F400610843217C01F0020115
:103410000843217D01F001010843218B01F4007173
:103420000843217F01F03801084394F8201001F08F
:1034300080010843218D01F4005108432168086090
:10344000A069042101EA104094F8241001F0100151
:103450000843216848602068C16921F40061C161A6
:103460006565012084F85100002070BD10B586B05C
:10347000044614216846FDF78AFB134920688842F8
:1034800020D112480021026842F400420260006824
:1034900000F4004005900D481038026842F0020226
:1034A0000260006800F002000590282000900220D1
:1034B000CDE90101032003900620049069460448E9
:1034C000FFF7B2F806B010BD003C004040380240A3
:1034D000000402402DE9F84F984616468A460446F5
:1034E000FFF7A4F9814694F8510001281ED1BAF1E2
:1034F000000F73D0002E71D094F85000012815D021
:10350000012784F85070032084F851000025656578
:10351000C4F830A0A686E686A563A587E58765641E
:103520002564A068B0F5004F03D00CE00220BDE890
:10353000F88F2068016821F040010160206801686F
:1035400041F48041016020680168490603D40168A4
:1035500041F040010160E068B0F5006F606803D0A1
:1035600048B3012E27D047E008B1012E1FD1206BB0
:1035700021680088C86006E020688168890709D54D
:10358000216B0988C160206B801C2063E08E401E87
:10359000E0860CE0FFF74AF9A0EB0901414503D3AF
:1035A000B8F1FF3F03D035E0B8F1000F32D0E08E24
:1035B0000028E1D123E0206B21680078087306E041
:1035C0002068816889070AD5216B09780173206B0F
:1035D000401C2063E08E401EE0860DE02BE0FFF7EC
:1035E00025F9A0EB0901414503D3B8F1FF3F03D012
:1035F00010E0B8F1000F0DD0E08E0028E0D14A466F
:103600004146204600F00EFE08B120206065A0680B
:1036100030B109E084F8517084F85050032086E7F7
:103620002068C1688068009084F8517004F8505F89
:1036300060680028F3D0012079E77047704710B523
:10364000040003D094F83D0010B107E0012010BD44
:10365000002084F83C00204600F01EF8022084F888
:103660003D00211D206801F0E5F8012084F84600A6
:1036700084F83E0084F83F0084F8400084F841005C
:1036800084F8420084F8430084F8440084F845003C
:1036900084F83D00002010BD7047000090F83D10F8
:1036A000012901D001207047022180F83D100168F6
:1036B000CA6842F00102CA6000681149884214D009
:1036C000B0F1804F11D00F4988420ED00E49884288
:1036D0000BD00E49884208D00D49884205D00D49CB
:1036E000884202D00C49884204D1816801F0070168
:1036F000062903D0016841F00101016000207047F4
:10370000000001400004004000080040000C0040A0
:1037100000040140004001400018004070472DE9BE
:10372000F04104460068C66805694FF00007A90724
:1037300013D5B10711D5F91E01610120207720684A
:1037400080698007204602D0FFF7E8FF04E000F020
:103750007EF8204600F07CF82777680716D57007BA
:1037600014D521686FF004000861022020772068DA
:10377000806910F4407F204602D0FFF7CFFF04E0BD
:1037800000F065F8204600F063F82777280715D584
:10379000300713D521686FF00800086104202077F6
:1037A0002068C0698007204602D0FFF7B7FF04E019
:1037B00000F04DF8204600F04BF82777E80616D5C4
:1037C000F00614D521686FF01000086108202077FA
:1037D0002068C06910F4407F204602D0FFF79EFFAA
:1037E00004E000F034F8204600F032F82777E807CC
:1037F00008D0F00706D021686FF00100086120466C
:1038000000F028F8280608D5300606D521686FF0A4
:10381000800008612046FFF710FF680608D5700693
:1038200006D521686FF040000861204600F01CF8C2
:10383000A8060AD5B00608D521686FF020000861F7
:103840002046BDE8F041FFF7F9BEBDE8F0817047C2
:103850007047000000680349884201D1FEF7ECBFC1
:1038600070470000001000407047704770B5044674
:1038700020680C3050E8001F21F4907140E80012DD
:10388000002AF5D12068143050E8001F21F0010112
:1038900040E80012002AF5D1206B012809D12068E8
:1038A0000C3050E8001F21F0100140E80012002AFF
:1038B000F5D1206840694FF00005400615D5206815
:1038C000143050E8001F21F0400140E80012002AA7
:1038D000F5D1E06B48B10565E06BFEF736FE20B12F
:1038E000E06BFEF78DFE202806D0E585202084F8C9
:1038F00042002563002070BD10206064032070BD6D
:10390000FEF710BCF8B5016804460868CA684B6940
:1039100010F00F0F4FF0000559D003F0010602F42C
:103920009077374365D0C10705D0D10503D5616CC9
:1039300041F001016164410705D5D90703D0616CED
:1039400041F002016164810705D5D90703D0616C9C
:1039500041F004016164010707D502F02001314301
:1039600003D0616C41F008016164616C00293AD0B8
:10397000800604D5900602D5204600F0F1FF2068AD
:103980004069616CC0F38010090700D460B3204621
:1039900000F0BFFF20684069400621D52068143040
:1039A00050E8001F21F0400140E80012002AF5D144
:1039B000E06BA8B172490165E06BFEF70FFE0028CD
:1039C00011D0E06B016D01B0BDE8F04008478306FF
:1039D0000FD593060DD52046BDE8F84000F0C0BFD6
:1039E0002046FFF78DFFF8BD2046FFF789FF65648D
:1039F000F8BD266B2023012E7ED1C6067CD5D606C7
:103A00007AD508684868009048694FF00206400679
:103A10004DD5E26B106840684FF480770004000CCD
:103A20003AD0A18D814237D9E085D069B8422DD0F6
:103A300020680C3050E8001F21F4807140E800122B
:103A4000002AF5D12068143050E8001F21F0010150
:103A500040E80012002AF5D12068143050E8001F19
:103A600021F0400140E80012002AF5D184F84230EC
:103A7000256320680C3050E8001F21F0100140E859
:103A80000012002AF5D1E06BFEF75FFD6663A08DA2
:103A9000E18D401A81B206E0A18D8142A8D1D069A2
:103AA000B842A5D166632046FFF7DFFEF8BDA08DC2
:103AB000E18D401A81B2E08D0028F7D00029F5D0C1
:103AC00020680C3050E8002F22F4907240E8002764
:103AD000002FF5D12068143050E8002F22F00102A9
:103AE00040E80027002FF5D184F842302563206894
:103AF0000C3050E8002F00E006E022F0100240E811
:103B00000023002BF3D1CDE705062BD5150629D5CB
:103B100094F841002128C9D1A068B0F5805F01D197
:103B20002069B0B1206A411C216221680078486098
:103B3000E08C401E0004000CE084B7D12068C1680E
:103B400021F08001C1602068C16841F04001C1607E
:103B5000F8BD206A0088C0F308004860206A801C15
:103B60002062E5E74006F3D55006F1D5CA68204645
:103B700022F04002CA6084F8413000F0D3F8F8BD6A
:103B80000549000870B5040004D094F841000025F0
:103B900010B106E0012070BD84F84050204600F0CE
:103BA00023F8242084F841002068C16821F40051E2
:103BB000C160204600F036FF2068016921F4904181
:103BC00001612068416921F02A0141612068C168D2
:103BD00041F40051C1606564202084F8410084F8FC
:103BE00042006563002070BD10B586B00446142104
:103BF0006846FCF7CCFF18492068884229D117484D
:103C00000021026842F010020260006800F010001B
:103C1000059012481438026842F001020260006800
:103C200000F0010005904FF4C06000900220CDE943
:103C30000101032003900720049069460848FEF71D
:103C4000F3FC002205212520FEF78EFE2520FEF73D
:103C50007DFE06B010BD0000001001404438024057
:103C60000000024090F84230202B01D00220704723
:103C700021B11AB10023036300F05ABF012070473D
:103C8000FEF760BA2DE9F843044690F841009846E3
:103C900016460D46202802D00220BDE8F88385B1E3
:103CA0007EB100206064212084F84100FEF7BEFD53
:103CB000A6848146E684A0682027B0F5805F02D004
:103CC00003E00120E9E7206910B12E4600250EE04F
:103CD00000260CE08021204600F045FFA8B9C6B1BF
:103CE00016F8010B21684860E08C401EE084E08CEF
:103CF0004B464FF00002CDF800800028EAD14FF08B
:103D00004001204600F02FFF40B184F841700320AD
:103D1000C3E735F8020BC0F30800E3E784F841700D
:103D20000020BAE77047FEE710B5FDF74BFBFDF743
:103D3000F5FC134A0421082001F052FF114C2061C8
:103D4000FDF7AAFC0E4A0021903A0F4802F026F82F
:103D50000B4A20606C3A00210C4802F01FF8084A18
:103D60006060483A00210A4802F018F8044AA0604E
:103D7000243A0021074802F011F8E06010BD00006D
:103D80001C7F000870020020A94500083947000880
:103D9000A14600084D4300082DE9F04186B01421EA
:103DA0006846FCF7F4FE35480024016841F0100134
:103DB0000160016801F010010591016841F0040102
:103DC0000160016801F004010591016841F0800182
:103DD0000160016801F080010591016841F008016E
:103DE0000160016801F008010591016841F00101DD
:103DF0000160016801F001010591016841F00201D3
:103E000001600068012200F002001D4F560305907A
:103E100031463846FEF705FDDFF8688001224FF491
:103E200030514046FEF7FDFC002271104046FEF77F
:103E3000F8FC3C2001258DE8310069461248FEF768
:103E4000F3FB0096CDE90154694638460394FEF72A
:103E5000EBFB4FF470500090CDE9015469464046A9
:103E60000394FEF7E1FBE8038DE83100694607485B
:103E7000FEF7DAFB06B0BDE8F08100003038024002
:103E800000080240000C0240001002400000024006
:103E900030B587B014216846FCF779FE00240594FC
:103EA000FEF794FD20481F49C0E900147F2181607E
:103EB000FF21C0E9031444618461FFF747F908B1A9
:103EC000FEF7E2FA00211848FFF7EAF844F270051D
:103ED000A84225D08DF800408DF801408DF80240B1
:103EE00003940122694610480494FFF7E5F908B1EC
:103EF000FEF7CAFA01208DF814008DF815008DF830
:103F0000160002468DF8174005A90748FFF788F903
:103F100008B1FEF7B9FA2A4600210348FFF7C5F8B1
:103F200007B030BD00280040B4760020104810B51E
:103F30000E4901604FF48271416000218160C160CF
:103F40004FF400720161C0E905121822C0E907218F
:103F5000416281620A21C162FFF72AFA002803D078
:103F6000BDE81040FEF790BA10BD0000003C0040D4
:103F7000D47600200C4810B50A4901604FF4E131B5
:103F80004160002181600C22C160C0E9041281619E
:103F9000C161FFF7F7FD002803D0BDE81040FEF730
:103FA00073BA10BD001001402C770020FEE700001E
:103FB00010B504002BD016A1FCF7EBFC20B10220B9
:103FC000FDF75CFB15A11DE018A12046FCF7E1FC04
:103FD00020B10120FDF752FB17A113E01AA12046E2
:103FE000FCF7D7FC20B10420FDF748FB19A109E03C
:103FF0001CA12046FCF7CDFC002808D00320FDF7CB
:104000003DFB1CA1BDE810401FA0FDF781BD10BD08
:10401000706167655F6E6578740000007061676548
:104020005F6E6578745F6F6B00000000706167659C
:104030005F70726576000000706167655F70726521
:10404000765F6F6B00000000706167655F686F6D81
:1040500065000000706167655F686F6D655F6F6B1D
:1040600000000000776561746865725F7265667252
:1040700065736800776561746865725F7265667202
:104080006573685F6F6B0000776561746865725F68
:10409000636C6F636B2F7A6774365F3030312F61DA
:1040A000636B0000FEE7000070B588B014460D4653
:1040B00030B32DB324B307AB06AA05A98DE80E00D3
:1040C00004AB03AA1CA1FCF719FB052818D103981F
:1040D000A0F5FA60642813D20498012810DB0C289C
:1040E0000EDC059801280BDB1F2809DC0698002848
:1040F00006DB172804DC0798002801DB3B2802DDDB
:10410000002008B070BD00262E6014212046FCF768
:104110003EFD0398A0F5FA60E87004986870059871
:10412000A870012028700698207007986070A6700B
:10413000E66001202661E4E725642D25642D2564D1
:104140005425643A25640000010901EB810100F067
:104150000F0000EB4100C0B27047002102E00A38B6
:10416000C0B2491C0A28FAD2090740EA1160704718
:104170002DE9F041044600680025C168490618D4BD
:10418000C16841F08001C160FEF750FB06464FF464
:104190007A78042707E000BFFEF748FB801B404504
:1041A00001D9677701252068C068400601D4002D39
:1041B000F2D02846BDE8F08170B5044600680025BD
:1041C000C16821F08001C16020688068800606D443
:1041D0002046FFF7D1F810B104206077012528466A
:1041E00070BD000000B587B090B189B1006805903E
:1041F00014226846FCF76FFC002269460848FFF766
:104200005BF828B9002205A90548FFF709F810B1A5
:10421000002007B000BD0120FDF78EF90120F8E76E
:10422000B4760020F8B515460E460B4600920446BB
:104230000122022100F02CF8A0B9134813490068AC
:10424000B0FBF1F04FF47A71484300906068B0F52C
:10425000827F0DD13346002280212046009500F058
:1042600017F870B1606D40F0200060650320F8BD64
:10427000009830B1401E009020688068C04300065E
:10428000F6D50020F8BD00009002002000366E0137
:104290002DE9F8431E46914688460446089DFEF7E0
:1042A000C5FA401B351AFEF7C1FA074626480068D2
:1042B000C0F3CB3068430AE0701C09D0FEF7B6FAB1
:1042C000C01BA8420FD275B10098B8B3401E009031
:1042D0002068816838EA010033D000214945EBD1DC
:1042E0000020BDE8F8832068416821F0E0014160CA
:1042F0006068B0F5827F0BD1A068B0F5004F02D0A6
:10430000B0F5806F04D12068016821F040010160A0
:10431000A06AB0F5005F09D12068016821F400515E
:1043200001602068016841F400510160012084F8B7
:104330005100002084F850000320D2E7FFE7002559
:10434000C6E70121CAE70000900200200026ADF573
:104350006E7D35463746B346B246B14641F288389F
:1043600040F6B83001F0CEFB73A8E190FEF75EFA9C
:1043700004462EB1A4EB0A0142F21070814216D31A
:10438000A246FDF7A3F938B101263046FDF770F8D3
:104390000720FDF773F911E0FDF7D2F908B1012606
:1043A00000E0002600252F46A94641F28838304615
:1043B000FDF75EF80720FDF761F90EB14DB12EE073
:1043C0000020FDF777F80020FDF73CF840F6B83004
:1043D000B2E0B9F1000F03D0A4EB090141451ED3AF
:1043E000A146FDF7D3FA68B10125FDF7C5FB40B141
:1043F00053A157A0FDF78CFB4FF0000941F2883024
:1044000006E0002547F2305188450AD24FEA4800BD
:1044100080462846FDF716F80720FDF72FF91FB153
:1044200010E04EF66020F3E70127E2A9E7A8FDF7C8
:1044300021FF28B1E2A9E7A8FFF7D4FE00B10120CF
:10444000FDF738F8BBF1000F08D04949A4EB0B0089
:10445000884203D2FCF7C4FF002844D058A8FDF7D7
:1044600055FAE8B10120FCF7D7FF9DF8CC0170B1F7
:1044700040A1E198FCF7B2FB48B1E8AABBA9E198DA
:10448000FFF712FE18B1E8A9BBA8FFF7ABFE58A8CA
:10449000FDF7A2F86DB138A13BA0FDF739FB08E0AC
:1044A0000020FCF7B9FF0020FDF730F80620FDF7EB
:1044B000E5F84FF47A7001F025FB01A8FDF7E4F967
:1044C000012821D0022826D05FF00000FCF78EFFE3
:1044D0000020FDF705F80620FDF7D0F8FCF732FFC5
:1044E000FEF7A4F9834635B34FF4FA7000904FF409
:1044F00080737AAA8021C0A8FDF7D4FA00280CDDC9
:104500007AA8FFF755FD16E00120FCF76FFF01A820
:10451000FDF744F8E2E70120D8E70CDA4FF0000598
:10452000FEF784F9814641F288380020FCF78AFFC3
:104530000720FDF7A3F8012001F0E4FA16E70000D8
:10454000776966693D312C6D7174743D31000000EE
:10455000776561746865725F636C6F636B2F7A67F0
:1045600074365F3030312F73746174650000000061
:10457000C02709002D2D0000776561746865725FA2
:104580006E6F775F6F6B0000776561746865725F4F
:10459000636C6F636B2F7A6774365F3030312F77BF
:1045A00065617468657200004FF0010808B5C14686
:1045B000C246C346384C04212046FEF72DF9074673
:1045C00008212046FEF728F9064610212046FEF76E
:1045D00023F9054620212046FEF71EF904469FB91F
:1045E000B8F1010F10D1142001F08CFA04212A48EF
:1045F000FEF712F940B902200090284800231A461D
:104600006946006901F018FB9EB9B9F1010F10D19C
:10461000142001F077FA08211F48FEF7FDF840B991
:10462000012000901D4800231A466946006901F0E8
:1046300003FB9DB9BAF1010F10D1142001F062FA09
:1046400010211548FEF7E8F840B903200090134800
:1046500000231A466946006901F0EEFA9CB9BBF1E5
:10466000010F10D1142001F04DFA20210A48FEF765
:10467000D3F840B904200090084800231A46694640
:10468000006901F0D9FAB846B146AA46A3461420FB
:1046900001F038FA8EE7000000100240700200209E
:1046A00092B04FF47A74002202A91948FEF724FD53
:1046B00048BB002207A91648FEF7FCFC18BB9DF872
:1046C0000A109DF80900CDE900019DF8083011A2FB
:1046D00010210DA8FBF7D0FE9DF81E109DF81D00BF
:1046E000CDE900019DF81F300EA2142108A8FBF7A8
:1046F000C3FE08A90DA8FCF735FF0120FCF71CFF3D
:104700000520FCF7BBFF204601F0FCF9CBE70000D9
:10471000B4760020253032643A253032643A2530B0
:10472000326400003230253032642D253032642D61
:10473000253032640000000008B5FCF709FE074D83
:104740004FF0FF34234600226946286901F016FA2B
:104750000028F7D10098FCF707FEF3E7700200206D
:1047600010B54FF0E020006902F01CFF012803D0D3
:10477000BDE8104002F0C4BA10BD000030B593B0DF
:1047800030216846FCF703FA14210CA8FCF7FFF966
:104790001F480025016841F080510160006800F069
:1047A000805011901B48016841F48041016000680D
:1047B000022400F480401190052000904FF48030D6
:1047C0000190012002908005CDE906400820089064
:1047D0004FF4A870CDE9090404200B906846FEF759
:1047E000A9FA08B172B6FEE70CA90F2081E83100E2
:1047F0004FF4A0500F904FF48050109005210CA85A
:10480000FEF78EF9002801D072B6FEE713B030BD76
:1048100040380240007000400248016841F47001D5
:104820000160704788ED00E00148FEF778BF0000A6
:1048300074770020F0B50268274B284D284E294F89
:10484000294C4FF0804C984209D0604507D0A842CF
:1048500005D0B04203D0B84201D0A04204D122F02A
:10486000700E4A6842EA0E0298421BD0604519D089
:10487000A84217D0B04215D0B84213D0A04211D0F0
:104880001A4DA8420ED01A4DA8420BD0194DA8427D
:1048900008D0194DA84205D0184DA84202D0184D95
:1048A000A84203D122F44075CA682A434D6922F018
:1048B00080022A438D68C5620D688562984201D0E6
:1048C000A04201D109690163016841F0040101605E
:1048D000012141610260F0BD000001400004004080
:1048E00000080040000C004000040140004001406E
:1048F000004401400048014000180040001C0040F6
:104900000020004010B5806B0021C185FEF7F8FF44
:1049100010BD01680C3151E8002F22F4907241E87B
:104920000023002BF5D10168143151E8002F22F04B
:10493000010241E80023002BF5D1016B012909D1C7
:1049400001680C3151E8002F22F0100241E80023E9
:10495000002BF5D1202180F842100021016370471F
:1049600008B590F84210222901D0022008BD8268C3
:104970004FF480539A4201D1016921B1816A9A4270
:104980001BD04AB10AE00268816A5268C2F3080289
:104990000A80816A891C08E0026972B10268526863
:1049A00002F07F020A70816A491C8162C18D491E32
:1049B0000904090CC18503D01BE002685268F1E7C5
:1049C0000168CA6822F02002CA600168CA6822F43D
:1049D0008072CA6001684A6922F001024A6120219E
:1049E00080F8421000214163026B012A03D0FFF7D7
:1049F00047F9002008BD016301680C3151E8002F20
:104A000022F0100241E80023002BF5D101680A686A
:104A1000D20602D50A6849680091818DFEF725FF0C
:104A2000E7E7000070B5044600680169E26821F418
:104A30004051114301612169A068E269084361693D
:104A4000114308432168CA6849F20C639A43024340
:104A5000CA6020684169A26921F440711143416133
:104A600031492068884202D03049884202D1FEF79D
:104A700021F901E0FEF70EF9E2690023192164250E
:104A80003226B2F5004F626828D0A0FB0101930FD7
:104A90009200FBF779FC0146B0FBF5F06FF01802CD
:104AA000504301EB800006EB0010B0FBF5F000F086
:104AB000F002B1FBF5F002EB0012B1FBF5F06FF084
:104AC0001803584301EB800006EB0010B0FBF5F033
:104AD00000F00F0021681044886070BDA0FB010148
:104AE00092185B41FBF750FC0146B0FBF5F0020168
:104AF000B1FBF5F06FF01803584301EB800006EBB3
:104B0000C000B0FBF5F000F0F80002EB4002B1FB92
:104B1000F5F0584301EB800006EBC000B0FBF5F068
:104B200000F00700D6E7000000100140001401402B
:104B300081628285C28500214164222180F8421071
:104B4000016921B10168CA6842F48072CA600168D3
:104B50004A6942F001024A610068C16841F02001DF
:104B6000C160002070472DE9F843984617460D466E
:104B70000446089E24E0701C22D0FDF757FEA0EBEF
:104B80000800B0421AD8CEB12068C168490717D5CD
:104B9000802D15D0402D13D00168C94309070FD4CB
:104BA00001680025406800902046FFF7B2FE08200B
:104BB000606484F840500120BDE8F8830320FBE7DF
:104BC0002068006835EA000004D00020B842D2D046
:104BD0000020F1E70120F9E7002807D0002905D0DF
:104BE00002B9034A134603A2FBF746BC7047000014
:104BF000AC4F00082573000000B5ADF5057D684693
:104C000000F08CFA0D48007858B101280DD0022828
:104C10000FD0032802D1684600F012F80DF5057D8B
:104C200000BD684600F076F9F8E7684600F0DCF968
:104C3000F4E7684600F0F8F8F0E700000000002014
:104C40002DE9F0410446002000F020FE4FF6FF75EC
:104C500005212B4660A2084600F0B6F92B4660A25B
:104C60001721052000F0B0F994F805024FF4FC6616
:104C70004FF47847002801D0334600E03B4601D08E
:104C800059A200E059A24FF017014FF0410000F087
:104C90009BF92B4656A22821052000F095F994F89F
:104CA0000C02002801D0334600E03B4601D04EA262
:104CB00000E04EA24FF028014FF0410000F084F9CF
:104CC0002B464DA23921052000F07EF994F806020A
:104CD000002801D0334600E03B4601D042A200E06C
:104CE00042A24FF039014FF0410000F06DF92B4620
:104CF00043A24A21052000F067F994F80702002832
:104D000001D0334600E03B4601D037A200E037A295
:104D10004FF04A014FF0410000F056F92B463AA2FD
:104D20005B21052000F050F994F80802002801D01A
:104D3000334600E03B4601D02BA200E02BA24FF00F
:104D40005B014FF0410000F03FF92B4630A26C218F
:104D5000052000F039F994F80902002801D0334603
:104D600000E03B4601D020A200E020A24FF06C0101
:104D70004FF0410000F028F92B4627A27D210520A5
:104D800000F022F994F80A02002801D0334600E02E
:104D90003B4601D014A200E014A24FF07D014FF079
:104DA000410000F011F92B461DA28E21052000F0D4
:104DB0000BF994F80B02002801D0334600E03B4683
:104DC00001D009A200E009A2BDE8F0414FF08E0138
:104DD0004FF0410000F0F8B844454255470000004C
:104DE000576946693A0000004F4B00004E4F0000E3
:104DF0004D5154543A0000004E6F773A00000000C5
:104E00004461696C793A00004A736F6E4E3A000053
:104E10004A736F6E443A00005254433A0000000057
:104E20004E54503A000000002DE9F04F804689B002
:104E3000002000F02BFD05214FF6FF7328A2084645
:104E400000F0C2F898F80902E0B100264FF01C0902
:104E50004FF6E07A40F2FF7BC6EBC60000EB400164
:104E600009EB410706EB4600C0EB461108EB810455
:104E700014F1A90510D02846FBF7C9FD0A280BD369
:104E80006B1D0AE04FF4784318A22D21052000F095
:104E90009BF809B0BDE8F08F19A304F1B9000090A8
:104EA00018A2202101A8FBF7E7FA534601AA3946C8
:104EB000052000F089F804F1E900009004F1F10305
:104EC00012A2202101A8FBF7D7FA5B4601AA07F13D
:104ED0001201052000F078F8761C032EBCDBD8E721
:104EE000464F524543415354000000004E6F206628
:104EF0006F72656361737420646174610000000007
:104F00002D2D0000257320257300000025732F250B
:104F10007343000070B50446002000F0B7FC4FF664
:104F2000FF7505212B4620A2084600F04DF84FF4EE
:104F3000FC6322461C21082000F046F82B4604F1B1
:104F400010023221082000F03FF84FF6E076334699
:104F500004F124024B21082000F036F894F8A80050
:104F6000D0B16E11334604F13C026221082000F0FA
:104F70002BF8334604F154026221482000F024F853
:104F80002B460BA27A21082000F01EF87A212B462E
:104F900004F160023A2003E06421334606A20820AF
:104FA000BDE8704000F010B8484F4D4500000000CB
:104FB00048756D693A000000576561746865722034
:104FC0006C6F6164696E6700F8B507461C460E4653
:104FD00015461046FBF71BFD03462A463146384668
:104FE000009400F04FFDF8BD2DE9F041044600208B
:104FF00000F04CFC4FF6FF7505212B462CA208460D
:10500000FFF7E2FF94F8A80000284CD02B462AA214
:105010001C210520FFF7D8FF4FF4FC66334604F14E
:1050200024021C213A20FFF7CFFF2B4624A2322175
:105030000520FFF7C9FF4FF6E07304F13C0232216F
:105040003A20FFF7C1FF2B461FA248210520FFF79A
:10505000BBFF6F113B4604F1540248213A20FFF791
:10506000B3FF2B461AA25E210520FFF7ADFF3B469A
:1050700004F160025E213A20FFF7A6FF2B4616A23C
:1050800074210520FFF7A0FF2B4604F18402742150
:105090003A20FFF799FF334611A28C21BDE8F04179
:1050A0000520FFF791BF4FF4784310A22821F5E7C0
:1050B0005745415448455200436974793A0000000D
:1050C000546578743A00000054656D703A00000031
:1050D00048756D693A00000057696E643A00000037
:1050E0004F4B205265667265736800004E6F2077E3
:1050F00065617468657220646174610001460648E8
:1051000010B58068002803D000F0CAFD08B1002067
:1051100010BD012010BD00000000002070B504008B
:105120005AD040F20D252946FBF70FFD2BA2102186
:105130002046FFF751FD2CA2142104F11000FFF7C7
:105140004BFD2CA2182104F12400FFF745FD29A2F4
:10515000182104F13C00FFF73FFD27A20C2104F1C8
:105160005400FFF739FD25A20C2104F16000FFF780
:1051700033FD20A2182104F16C00FFF72DFD1DA2C4
:105180000C2104F18400FFF727FD1AA2182104F175
:105190009000FFF721FD17A2102104F1A900FFF7ED
:1051A0001BFD14A2102104F21D10FFF715FD11A222
:1051B000102104F29110FFF70FFD4FF0FF30FFF7C1
:1051C0009DFF002808D02A460D492046FBF73EFCEB
:1051D000BDE8704000F016B870BD000030303A30C5
:1051E000303A303000000000323030302D30312D78
:1051F000303100002D2D00002D2D43002D2D2500D8
:105200000C00002003488068002801D000F0A5BDF4
:1052100070470000000000200148FEF773BB00004B
:105220002C770020FEE700002DE9F04F87B00F46F5
:10523000002835D0002FFCD06AA1FBF7AAFB00287C
:105240007DD000266AA1FBF7A4FB0500F1D004463F
:10525000002100780A460B467B2821D11DE05AB177
:105260000BB1002317E05C2802D0222802D012E004
:10527000012310E000220EE0222804D07B2804D075
:105280007D2804D007E0012205E0491C03E0491E07
:10529000002906D004DB04F1010420780028DED1C7
:1052A0009DE00294002CFBD006EB4600C0EB4610BC
:1052B00007EB800081467421FBF747FC48464DA26E
:1052C0001021FCF7F1F909F11000804649A21821DC
:1052D000FCF7EAF909F12800834646A21821FCF7F9
:1052E000E3F909F14004204642A20821FCF7DCF969
:1052F00009F1480003903FA208210490FCF7D4F97B
:1053000009F1500082463BA21821FCF7CDF909F1C2
:10531000680038A20C210590FCF7C6F91021CDE9F0
:10532000009135A335A228460299FDF7DBF8182134
:10533000CDE9008130A334A22846029900E04BE079
:10534000FDF7D0F81821CDE900B12BA332A22846F1
:105350000299FDF7C7F84FF0080BCDE9004B26A3E3
:1053600031A228460299FDF7BDF80498CDE9000B5B
:1053700021A330A228460299FDF7B4F81821CDE9FF
:1053800000A11DA32DA228460299FDF7ABF80C2120
:105390000598CDE9000118A32DA228460299FDF732
:1053A000A1F8484613A1FBF719FCC0B1404611A172
:1053B000FBF714FC98B120460EA1FBF70FFC70B16F
:1053C0000CA10398FBF70AFC48B10298761C401C1C
:1053D000032EFFF637AF012007B0BDE8F08F0020A5
:1053E000FAE70000226461696C79223A5B000000F0
:1053F0007B0000002D2D000022000000226461745B
:1054000065223A220000000022746578745F6461AE
:1054100079223A220000000022746578745F6E6978
:10542000676874223A2200002268696768223A227B
:1054300000000000226C6F77223A22002277696E0A
:10544000645F646972656374696F6E223A2200005A
:105450002277696E645F7363616C65223A22000093
:105460002DE9F04F89B00C465FEA00097BD0002C93
:10547000FCD085212046FBF768FB54A2182120466A
:10548000FCF712F904F1180052A218210646FCF7A5
:105490000BF904F1300050A20C210790FCF704F93D
:1054A00004F13C004DA20C210690FCF7FDF804F13C
:1054B000480048A218218246FCF7F6F804F1600083
:1054C00044A20C218346FCF7EFF804F16C0041A2E2
:1054D00018210590FCF7E8F84FF0180845462346D8
:1054E0003FA240A14846CDF80080FCF7CFFF3346ED
:1054F0003BA23FA148460095FCF7C8FF0746082697
:1055000001AB37A23DA148460096FCF7BFFF05005E
:1055100008D101AB32A23DA148460096FCF7B6FF88
:10552000050005D001AB3CA20C210798FAF7A4FFB7
:1055300003AB2BA239A148460096FCF7A7FF28B180
:1055400003AB3AA20C210698FAF796FF464653465B
:1055500023A238A14846CDF80080FCF797FF40B958
:1055600053461FA200E02EE037A148460096FCF704
:105570008DFF4FF00C085B4619A236A14846CDF8C6
:105580000080FCF783FF38B95B4615A235A1484679
:10559000CDF80080FCF77AFF009611A235A14846AD
:1055A000059BFCF773FF30B900960DA235A1484664
:1055B000059BFCF76BFF37B12DB1012084F8840007
:1055C00009B0BDE8F08F0020FAE700006265696A63
:1055D000696E67002D2D00002D2D43002D2D250017
:1055E00022000000226E616D65223A220000000058
:1055F0002274657874223A22000000002274656DDE
:105600007065726174757265223A22002274656D4C
:1056100070223A2200000000257343002268756D55
:105620006964697479223A220000000025732525F7
:10563000000000002277696E645F646972656374BC
:10564000696F6E223A2200002277696E64446972A3
:10565000223A22002277696E645F7363616C65226F
:105660003A2200002277696E645363616C65223AC6
:1056700022000000226C6173745F75706461746550
:10568000223A2200226F627354696D65223A220029
:1056900010B5012251037C48FDF7C3F8012000F04A
:1056A00041F9002000F04AF9002000F053F90120F0
:1056B000FCF7A8FF012000F04DF97820FCF7A2FFCD
:1056C000112000F00FF97820FCF79CFFB12000F0CA
:1056D00009F9052000F016F93C2000F013F93C20F0
:1056E00000F010F9B22000F0FDF8052000F00AF9F2
:1056F0003C2000F007F93C2000F004F9B32000F052
:10570000F1F8052000F0FEF83C2000F0FBF83C200A
:1057100000F0F8F8052000F0F5F83C2000F0F2F871
:105720003C2000F0EFF8B42000F0DCF8032000F09B
:10573000E9F8C02000F0D6F8282000F0E3F80820AF
:1057400000F0E0F8042000F0DDF8C12000F0CAF815
:10575000C02000F0D7F8C22000F0C4F80D2000F0FF
:10576000D1F8002000F0CEF8C32000F0BBF88D2067
:1057700000F0C8F82A2000F0C5F8C42000F0B2F804
:105780008D2000F0BFF8EE2000F0BCF8C52000F03E
:10579000A9F81A2000F0B6F8362000F0A3F8C020CF
:1057A00000F0B0F8E02000F09DF8042000F0AAF826
:1057B000222000F0A7F8072000F0A4F80A2000F04B
:1057C000A1F82E2000F09EF8302000F09BF8252054
:1057D00000F098F82A2000F095F8282000F092F8C0
:1057E000262000F08FF82E2000F08CF83A2000F0F0
:1057F00089F8002000F086F8012000F083F80320EB
:1058000000F080F8132000F07DF8E12000F06AF845
:10581000042000F077F8162000F074F8062000F05D
:1058200071F80D2000F06EF82D2000F06BF82620A6
:1058300000F068F8232000F065F8272000F062F8F7
:10584000272000F05FF8252000F05CF82D2000F004
:1058500059F83B2000F056F8002000F053F80120E2
:1058600000F050F8042000F04DF8132000F04AF842
:105870003A2000F037F8052000F044F8BDE8104069
:10588000292000F02FB80000000C024070B5064639
:1058900000229F237F21104600F068F80024002595
:1058A000304600F009F86D1CADB2802DF8D3641CB1
:1058B000A4B2A02CF3D370BD10B50446000A00F0CA
:1058C00021F8E0B2BDE8104000F01CB801B54FF07F
:1058D000FF33012269460248FDF7FCFD08BD0000C8
:1058E000D476002010B50446002000F027F80020F0
:1058F00000F018F82046FFF7E9FFBDE8104001204E
:1059000000F010B810B50446012000F017F8002090
:1059100000F008F82046FFF7D9FFBDE8104001204D
:10592000AFF30080044B4FF4006118B10122184618
:10593000FCF777BF0022FAE7000C0240044B4FF45B
:10594000805118B101221846FCF76BBF0022FAE71C
:10595000000C0240044B4FF4806118B1012218463C
:10596000FCF75FBF0022FAE7000C02402DE9F0418E
:1059700004461D4616460F462A20FFF7B3FF0020B7
:10598000FFF7C0FF2046FFF7BDFF0020FFF7BAFF7B
:105990003846FFF7B7FF2B20FFF7A4FF0020FFF7E3
:1059A000B1FF3046FFF7AEFF0020FFF7ABFF284600
:1059B000FFF7A8FFBDE8F0412C20FFF793BF0000E0
:1059C0002DE9F0411446984601F10F02D3B2CAB254
:1059D000C11DC9B2C0B2FFF7C9FFA4F13000092848
:1059E00005D8204800EB0414A4F540741EE0A4F18F
:1059F0004100192805D81C4800EB0414A4F5826462
:105A000014E0A4F16100192805D8184800EB04142B
:105A1000A4F5C2640AE0202C07D03A2C0DD02D2C1E
:105A20000DD0252C0DD0222C0DD0114C0025002698
:105A3000675D380609D5404608E00E4CF6E70E4C87
:105A4000F4E70E4CF2E70E4CF0E70020FFF734FFCE
:105A50007806070E761C082EEBDB6D1C102DE6DB9E
:105A6000BDE8F081BE7900086E7A00080E7C00085F
:105A7000AE7D0008BE7D0008CE7D0008DE7D0008FA
:105A80005E7A00082DE9F0471D461646894607460E
:105A90000024DDF8208007E0325D07EBC4004346B8
:105AA0004946FFF78DFF641CAC42F5DBBDE8F0878B
:105AB0000907090E002804DB00F1E02080F800143B
:105AC000704700F00F0000F1E02080F8141D7047CF
:105AD00030380A2801D20120704700207047FCF7B7
