:020000040800F2
:10000000587B0020F9020008E72200086920000858
:10001000E522000877090008612D000800000000B3
:10002000000000000000000000000000390200088D
:10003000790900080000000095020008F526000874
:100040001303000813030008130300081303000838
:100050001303000813030008130300081303000828
:100060001303000813030008130300081303000818
:100070001303000813030008130300081303000808
:1000800013030008130300081303000813030008F8
:1000900013030008130300081303000813030008E8
:1000A00013030008130300081303000813030008D8
:1000B00013030008130300081303000813030008C8
:1000C00013030008130300081303000813030008B8
:1000D00013030008130300081303000813030008A8
:1000E0001303000813030008130300081303000898
:1000F0001303000813030008130300081303000888
:100100001303000813030008130300081303000877
:100110001303000813030008BD2700081303000899
:100120001303000813030008130300081303000857
:100130001303000813030008130300081303000847
:100140001303000813030008130300081303000837
:100150001303000813030008130300081303000827
:100160001303000813030008130300081303000817
:100170001303000813030008130300080000000025
:10018000130300081303000800F002F800F044F81D
:100190000AA090E8000C82448344AAF10107DA45E2
:1001A00001D100F039F8AFF2090EBAE80F0013F0F0
:1001B000010F18BFFB1A43F0010318470455000054
:1001C00024550000103A24BF78C878C1FAD85207E5
:1001D00024BF30C830C144BF04680C6070470000C1
:1001E0000023002400250026103A28BF78C1FBD840
:1001F000520728BF30C148BF0B607047752900F017
:100200005781732900F07983002070471FB504F0EF
:100210005FFF1FBD10B510BD00F073FB1146FFF767
:10022000F5FF03F01BF800F091FB03B4FFF7F2FFBA
:1002300003BC00F099FB00002C4B19680868B0E87B
:10024000F04F80F30988BFF36F8F4FF0000080F309
:10025000118870470000000008480068006880F3BB
:1002600008884FF0000080F3148862B661B6BFF3CF
:100270004F8FBFF36F8F00DF00BF00BF08ED00E0BE
:10028000DFF80C00016841F470010160704700BFA5
:1002900088ED00E0EFF30980BFF36F8F134B1A680E
:1002A0001EF0100F08BF20ED108A20E9F04F1060FB
:1002B00009B44FF0500080F31188BFF34F8FBFF3A4
:1002C0006F8F04F00DF84FF0000080F3118809BC27
:1002D00019680868B0E8F04F1EF0100F08BFB0ECC6
:1002E000108A80F30988BFF36F8F70479800002051
:1002F000EFF3058070470000094880470948004730
:10030000FEE7FEE7FEE7FEE7FEE7FEE7FEE7FEE7C5
:10031000FEE7FEE704480549054A064B7047000022
:10032000AD27000889010008585B0020587B002099
:10033000586B0020586B002053EA020C00F06980D3
:100340002DE9F04B4FF00006002B1FBFB3FA83F5E9
:1003500003FA05F424FA05F65E4012BF1643B2FA1A
:1003600082F502FA05F4C5F120051EBF22FA05FC4C
:1003700044EA0C04203556EA044C4FEA144418BFF2
:10038000641C4FF000084FF00009904271EB030C21
:1003900039D3002919BFB1FA81F701FA07F6B0FA8B
:1003A00080F700FA07F6C7F120071EBF20FA07FC06
:1003B00046EA0C062037B6FBF4FCA7EB0507103F16
:1003C00007F01F0BCBF120060CFA0BFB2CFA06F6FC
:1003D00044BFB3460026202FA4BF5E464FF0000B5B
:1003E0005BEA060C08BF4FF0010B19EB0B09ABFBE6
:1003F000027C48EB0608C01B06FB02CC0BFB03CCBF
:1004000071EB0C01C1E70B46024641464846BDE888
:10041000F08B13B54FF000004FF00001AFF30080F8
:10042000BDE81C40704700000FB41CB50C0007AAC3
:10043000009001D02044401E074B7B446946019048
:10044000069800F028FA002C03D06946002000F03E
:1004500035FA1CBC5DF814FB8904000070B50C462D
:100460000546012A05D02878800600D5EA690023D0
:1004700002E0012305E05B1C934202D2E05C00280D
:10048000F9D1A869E618C01AA861286A1844286238
:100490002846AFF3008004E0D5E9012114F8010BF0
:1004A0009047B442F8D32846AFF3008070BD0000F7
:1004B0002DE9F0410646002410687529314616A53D
:1004C00010D0AFF30080002802DA404213A507E005
:1004D00031688A0701D512A502E0490704D511A5A4
:1004E000012401E0AFF3008000210A2206F1240775
:1004F00009E0B0FBF2FCB0FBF2F302FB1C00303071
:1005000078541846491C0028F3D123462A46304621
:10051000BDE8F04100F060B9000000002D000000CF
:100520002B000000200000002DE9F0410F46054699
:10053000002028622846E968884770B3252805D03E
:10054000D5E901219047286A401CF2E7E96828466E
:10055000002688476C2804460AD0682C08D04C2C0A
:1005600035D06A2C31D0742C31D07A2C2FD016E0B3
:10057000E968064628468847B042044608D16C2EF2
:1005800023D04FF480662846E9688847044606E091
:100590006C2E03D04FF4807601E01EE04026E4B1DB
:1005A000A4F14100192802D8203446F400663A46E6
:1005B000214628462E60FFF721FE60B1012808D0B1
:1005C000FF1D27F007070837B4E78026DBE7002682
:1005D000D9E73F1DAEE72046B2E7286ABDE8F081C3
:1005E00030B505460B462A4613F8014B12F8010BAD
:1005F00008B1A042F8D01CB1002802D06D1CF1E770
:10060000284630BD10B5431C02E010F8011B71B143
:100610008107FAD14FF0013202C88C1A8C4314EAD8
:10062000C211F9D0C01A0A0603D0C01E10BDC01AEC
:1006300010BD0A0401D0801E10BD0902FCD0401E6E
:1006400010BD032A40F2308010F0030C00F015803A
:1006500011F8013BBCF1020F624498BF11F801CBC5
:1006600000F8013B38BF11F8013BA2F1040298BF2A
:1006700000F801CB38BF00F8013B11F0030300F094
:100680002580083AC0F0088051F8043B083A51F838
:1006900004CBA0E80810F5E7121D5CBF51F8043B3D
:1006A00040F8043BAFF30080D20724BF11F8013BB0
:1006B00011F801CB48BF11F8012B24BF00F8013B12
:1006C00000F801CB48BF00F8012B704710B5203A65
:1006D000C0F00B80B1E81850203AA0E81850B1E8FB
:1006E0001850A0E81850BFF4F5AF5FEA027C24BFB1
:1006F000B1E81850A0E8185044BF18C918C0BDE8A8
:1007000010405FEA827C24BF51F8043B40F8043B70
:1007100008BF7047D20728BF31F8023B48BF11F825
:10072000012B28BF20F8023B48BF00F8012B70477F
:1007300002F0FF0343EA032242EA024200F002B859
:100740004FF000020429C0F0128010F0030C00F0FA
:100750001B80CCF1040CBCF1020F18BF00F8012B78
:10076000A8BF20F8022BA1EB0C0100F00DB85FEA46
:10077000C17C24BF00F8012B00F8012B48BF00F812
:10078000012B70474FF0000200B513469446964681
:10079000203922BFA0E80C50A0E80C50B1F1200194
:1007A000BFF4F7AF090728BFA0E80C5048BF0CC042
:1007B0005DF804EB890028BF40F8042B08BF7047A0
:1007C00048BF20F8022B11F0804F18BF00F8012B12
:1007D00070477047704770472DE9F0470D469946BE
:1007E0009246044600F124080168880604D5E069B1
:1007F00021F01001216000E00120A84201DD471B2B
:1008000000E00027A1697A1902EB0900081AA0612B
:100810002078C00602D42046AFF30080002608E00E
:10082000D4E901211AF806009047206A401C761C82
:1008300020624E45F4DB2078C0060AD52046AFF38F
:10084000008006E0D4E9012130209047206A401C56
:100850002062381EA7F10107F4DC07E0D4E901218A
:1008600018F805009047206A401C2062281EA5F158
:100870000105F3DC2046AFF300802078000602D5A6
:100880000220BDE8F0870120FBE7000001694A1C57
:1008900002610878704700B58FB0CDE901310021C1
:1008A000059105497944CDE9031011466846FFF7E3
:1008B0003BFE0FB000BD0000E5FFFFFF0A6802F835
:1008C000010B0A607047D1E900239A4202D2531CFF
:1008D0000B601070704710B5436913B1AFF300801F
:1008E00001E0FFF7BBFD012010BD127800F12401EB
:1008F0000A7000224A700122EDE711684FF0FF32C2
:10090000E9E7754600F02CF8AE4605006946534607
:1009100020F00700854618B020B5FFF7FBFCBDE8C6
:1009200020404FF000064FF000074FF000084FF056
:10093000000B21F00701AC46ACE8C009ACE8C009E7
:10094000ACE8C009ACE8C0098D46704710B5044654
:10095000AFF300802046BDE81040FFF766BC000002
:1009600000487047F45A002001491820ABBEFEE74A
:10097000260002007047FEE7704700004FF48051E8
:100980000148FFF7DDBE00001801002030B5A9B016
:10099000002446F2A81000F0D7F8002851D04FF4F8
:1009A0007A752A4628A129A000F028F9002845D008
:1009B0002A4625A127A000F021F92A4622A127A036
:1009C00000F01CF9002839D02A461FA127A000F00A
:1009D00015F940F6B8352A461BA128A000F00EF9FB
:1009E00078B129A12A48FFF7FBFD50B12A4616A18C
:1009F00028A000F003F920B129A12548FFF7F0FD58
:100A0000C8B929A000902BA32CA2A02101A8FFF710
:100A10000BFD44F620620CA101A800F0EFF868B1CC
:100A20002A4609A11BA000F0E9F830B11CA1184822
:100A3000FFF7D6FD08B1012400E0002400F0FAF829
:100A4000204629B030BD00004F4B000041540D0A34
:100A500000000000415445300D0A000041542B4372
:100A6000574D4F44453D310D0A00000041542B4382
:100A700049504D55583D300D0A00000041542B435C
:100A8000574A41503F0D0A002B43574A41503A0004
:100A90001801002041542B43494653520D0A0000CF
:100AA0005354414950000000383532393131353323
:100AB000000000006B65656C6564000041542B43C9
:100AC000574A41503D222573222C222573220D0ABC
:100AD0000000000010B59EB0782212496846FFF76A
:100AE000F5FD00244FF4FA4000F02EF8002816D04F
:100AF00047F230520CA1684600F080F860B10CA1BA
:100B00000E48FFF76DFD38B10DA10C48FFF768FDE9
:100B100010B102F027F9012400F08CF820461EB035
:100B200010BD0000005600080D0A4F4B0D0A0000D2
:100B300022726573756C7473220000001801002026
:100B4000226E6F77220000000146064810B540680B
:100B5000002803D002F06AFC08B1002010BD01207B
:100B600010BD0000000000202DE9F84F0E4682461F
:100B7000002400F0ABF90546FFF700FF40F6FF77D1
:100B8000A146DFF8608025E014230122694616485B
:100B900001F0C2F9F0B9BC4207D29DF8001008F884
:100BA0000410641CA4B208F80490BAF1000007D045
:100BB00001460C48FFF714FD10B10120BDE8F88F85
:100BC0000AA10848FFF70CFD48B90AA10548FFF73C
:100BD00007FD20B900F07AF9401BB042D4D30020C1
:100BE000ECE7000018010020901100204552524F00
:100BF000520000004641494C0000000070B5154607
:100C00000E460446FFF7BAFE2046FFF7FBFC82B211
:100C10004FF47A732146064801F0D6F908B1002056
:100C200070BD29463046BDE87040FFF79DBF00000B
:100C30009011002003484068002801D002F053BC06
:100C4000704700000000002072B6FEE72DE9F04179
:100C50001E46069D90460F4610B30FB3B8F1000F25
:100C60001ED0EEB1E5B13946FFF7BAFC040017D04B
:100C70003846FFF7C7FC071941463846FFF7B0FC76
:100C800000280BD0C41BAC4200D36C1E2246394650
:100C90003046FFF7D6FC002030550120BDE8F0813A
:100CA0000020FBE770B5044600F010F90546601C13
:100CB00002D004480078044400F008F9401BA04228
:100CC000FAD370BD880000202DE9F84FDFF8BCA1F1
:100CD0000022012503264FF00F090AF1040BAAF1A7
:100CE000040E00BF0B6805FA02F42340A34270D142
:100CF0000F7907F00307012F01D0022F16D1876863
:100D00004FEA420806FA08FC27EA0C07D1F80CC0A3
:100D10000CFA08FC4CEA070CC0F808C04768A74367
:100D20000C79C4F3001494403C4344600C79E443D0
:100D3000A4070AD0C4684FEA420C06FA0CF7BC4379
:100D40008F6807FA0CF72743C7600C7904F0030497
:100D5000022C12D1D40800EB840CDCF82040570799
:100D6000FF0E09FA07F824EA0804D1F8108008FAFF
:100D700007F848EA0408CCF8208004684FEA420CDF
:100D800006FA0CF7BC430F7907F0030707FA0CF7D4
:100D9000274307604C6814F4403F70D03C4C2768F0
:100DA00047F480472760246822F0030704F4804456
:100DB0000094384C07EB040CDCF8084897074FEA1E
:100DC000177809FA08F7BC43334FB84202D100271D
:100DD00024E054E0314FB84201D101271EE0304FEA
:100DE000B84201D1022719E02E4FB84201D10327A2
:100DF00014E02D4FB84201D104270FE02B4FB84229
:100E000001D105270AE02A4FB84201D1062705E0A3
:100E1000284FB84201D1072700E0082707FA08F752
:100E20002743CCF80878DAF800405746D1F804C0D8
:100E30009C435FEACC2C00D51C433C60DBF80040AF
:100E40005F46D1F804C09C435FEA8C2C00D51C435C
:100E50003C60DEF800407746D1F804C09C435FEA6E
:100E60008C3C00D51C433C60084F083F3C68D1F8DF
:100E700004C09C435FEACC3C00D51C433C60521C40
:100E8000102AFFF42FAFBDE8F88F0000083C0140A6
:100E9000443802400030014000000240000402409B
:100EA00000080240000C0240001002400014024002
:100EB00000180240001C02400069084000D00120D8
:100EC00070470AB1816170470904FBE701488068F7
:100ED00070470000880000200248816802781144B1
:100EE00081607047880000200B4810B5016841F40C
:100EF00000710160016841F480610160016841F4A2
:100F000080710160032000F09FF80F2000F006F8C8
:100F100000F050F8002010BD003C024030B50546FE
:100F20001F4887B00024016841F01001016000688B
:100F300006A900F01000009001A800F0CFF9049875
:100F4000A8B100F0EBF940001649174AB0FBF1F1E7
:100F50001648491E026040F2E732C0E90324C0E9A6
:100F60000114846100F059FE040003D015E000F084
:100F7000D5F9E9E70D4800F07FFE04000DD13620D9
:100F800000F034F8102D07D200222946362000F058
:100F90003BF80748056000E0012407B0204630BD5B
:100FA0004038024040420F0000100040D81100209D
:100FB0008C0000200C4882B0016841F4804101603F
:100FC000006800F4804000900748001F016841F06D
:100FD000805101600068002200F0805000900F21D5
:100FE000901E02B000F010B844380240002809DB1F
:100FF00000F01F02012191404009800000F1E02033
:10100000C0F8001170470000F0B40E4B1B680C468E
:10101000C3F30223C3F10705042D00D90425191DCC
:10102000072901D2002300E0DB1E012606FA05F1A4
:10103000491E214099409E40761E16403143F0BC27
:1010400002F0FCB80CED00E0064900F00702086869
:101050004FF6FF03184040EA0220034A104308609D
:10106000704700000CED00E00000FA052DE9F843A0
:10107000054600684FF00109C1074FF0000601D195
:10108000400727D5DFF80C81C8F86860FFF71EFF1E
:101090000746414C05E000BFFFF718FFC01B0228C0
:1010A00057D820680001F7D468688101287A41EA9E
:1010B0000070394984310860C8F86890FFF706FF6E
:1010C000074604E0FFF702FFC01B022841D8206852
:1010D0000001F7D52878800752D52F4840300168A5
:1010E00041F08051016000682C4C00F0805000906D
:1010F000206840F480702060FFF7E8FE074604E0B7
:10110000FFF7E4FEC01B022823D82068C005F7D5EE
:10111000214C7034206810F4407020D0A98901F46B
:10112000407181421BD020681D4920F44070C1F8F5
:1011300000900E6020602068C00710D0FFF7C6FE48
:10114000064641F2883707E0FFF7C0FE801BB84231
:1011500002D90320BDE8F88320688007F4D5E96848
:101160000D48C1F301220830032A0BD0016821F495
:10117000F81101602068A989C1F30B0108432060C0
:101180000020E7E70268074B22F4F81219400A43EF
:101190000260EFE700004742003802400070004064
:1011A000400E4742FFFCFF0F2DE9F0470E460500B9
:1011B00065D0DFF81481D8F80000F7B200F007001E
:1011C000B04207D288F80070D8F8000000F007009D
:1011D000B04254D128683D4C810712D5400703D551
:1011E000206840F4E05020602878000703D520688C
:1011F00040F4604020602068A96820F0F0000843B7
:1012000020602878C0072DD0304968680839012847
:1012100012D0022813D0032811D0096889070029A9
:101220002DDA216821F0030101432160FFF74EFE12
:10123000814641F2883A0EE009688903EFE70968C0
:101240008901ECE7FFF742FEA0EB0901514502D905
:101250000320BDE8F0872068696800F00C00B0EB5F
:10126000810FEFD1D8F80010404601F00701B142DC
:1012700007D90770006800F00700B04201D00120D4
:10128000E7E72878400705D52068E96820F4E050B2
:10129000084320602878000706D52068296920F4D3
:1012A000604040EAC100206000F058F82168084A18
:1012B000C1F30311515CC840064908600648006844
:1012C000FFF72CFE0020C4E7003C02400838024033
:1012D000E8550008940000208C0000200F220260D6
:1012E0000C4A136803F003034360136803F0F00330
:1012F0008360136803F4E053C36012684FF4E05353
:1013000003EAD20202610448006800F007000860A6
:101310007047000008380240003C0240044805497C
:1013200000680968044AC1F38221515CC8407047D3
:101330009400002008380240F85500080448054988
:1013400000680968044AC1F34231515CC8407047E3
:101350009400002008380240F8550008154810B5E0
:10136000006810F00C02144813D04110042A0FD06A
:10137000082A0ED10F4C241F2268236802F03F0276
:101380005B0207D52068C0F38810A0FB010106E0CE
:10139000084610BD2168C1F38811A1FB000100239C
:1013A000FEF7CAFF2168C1F30141491C4900B0FBA7
:1013B000F1F010BD083802400024F4002DE9F84F88
:1013C00004006ED02078DFF84C93C007A9F1040523
:1013D0004AD009F104000168C1F38101012908D054
:1013E0000068C0F3810002280AD1D9F80000400249
:1013F00006D52868800337D560680028E1D033E03F
:101400006068B0F5803F10D0B0F5A02F286810D0EC
:1014100020F480302860286820F4802028606068EC
:10142000A8B1FFF753FD06460DE0286840F4803070
:10143000F4E740F480202860F7E700BFFFF746FD9F
:10144000801B642873D828688003F7D50CE0FFF769
:101450003DFD064605E000BFFFF738FD801B642810
:10146000F0D828688003F7D42078DFF8AC828007B2
:101470004FF0000A3ED5A748001D016811F00C0F7F
:1014800008D00068C0F3810002280BD1D9F8000011
:10149000400207D42868800716D5E068012800D1EB
:1014A00012E033E1E068B8B10120C8F80000FFF7AE
:1014B0000DFD064605E000BFFFF708FD801B022872
:1014C000C0D828688007F7D52868216920F0F8007F
:1014D00040EAC10028600DE0C8F800A0FFF7F6FC64
:1014E000064604E0FFF7F2FC801B02281FD828689C
:1014F0008007F7D42078000722D5864F8748616996
:10150000703771B101210160FFF7E0FC064604E08D
:10151000FFF7DCFC801B022809D838688007F7D564
:101520000EE0C0F800A0FFF7D1FC064605E082E01F
:10153000FFF7CCFC801B02287DD838688007F7D4E1
:101540002078400768D5DFF8CCB100270BF13C0BC1
:10155000DBF80000C0000BD4DBF8001041F0805134
:10156000CBF80010DBF80000012700F0805000905D
:101570006B4E3068C00510D4306840F48070306025
:10158000FFF7A4FC009005E0FFF7A0FC0099401ACB
:10159000022850D83068C005F6D55E4EA0686C367B
:1015A00001280FD00528306810D020F001003060ED
:1015B000306820F004003060A068B8B1FFF786FC06
:1015C00000900FE0306840F00100F4E740F00400C4
:1015D0003060F7E7FFF77AFC0099411A41F2883052
:1015E000814266D830688007F4D50EE0FFF76EFCC4
:1015F000009007E0FFF76AFC0099411A41F2883039
:10160000814256D830688007F4D42FB1DBF800103F
:1016100021F08051CBF80010A069C8B33D49091DE5
:101620000968C1F3810102294AD00228504607D037
:10163000C8F8600000E03CE0FFF748FC04463BE0EF
:101640004746C8F86000FFF741FC064605E000BFCA
:10165000FFF73CFC801B02282BD828688001F7D4B8
:10166000D4E907010843A16A2E4A490802EB014167
:10167000626A41EA8211084394F82C1040EA016141
:10168000C9F8001001203866FFF720FC044606E088
:101690003EE000BFFFF71AFC001B022809D82868AB
:1016A0008001F7D534E000BFFFF710FC001B0228D3
:1016B00002D90320BDE8F88F28688001F4D427E020
:1016C0000128F7D0D9F80000E26900F480019142C6
:1016D0001CD1226A00F03F01914217D147F6C07138
:1016E000626A0140B1EB821F10D1A26A4FF0FF3352
:1016F00000F4403103EB5202B1EB024F06D194F8F3
:101700002C1000F07060B0EB016F01D00120D1E728
:101710000020CFE70438024000004742800E4742D5
:10172000007000400000FFFF10B5040002D0607F91
:1017300010B106E0012010BD00202077204600F007
:1017400041F8022060772068C168C943C90632D5D4
:10175000CA214162216853204862204600F0D0FD32
:1017600020BB20688168164A114081602168886822
:1017700062681043D4E904231A4310438860216847
:10178000E068086120680169228941EA024101613B
:10179000204600F0D9FD48B921680A6C22F4802265
:1017A0000A6421680A6CA3691A430A642268FF214B
:1017B000516208B110BD00200121617710BD000009
:1017C000BFFF8FFF1FB5002100910191029103918E
:1017D0000068084988420CD102200090C0010390A3
:1017E0006846FFF743FC08B1FFF72EFA02490120D3
:1017F00008601FBD002800403C0E474270B50446FB
:10180000007F0B46012819D0012626770220607739
:10181000B2B19878D97840EA014558781978000231
:1018200040EA413005432168CA20486221685320BC
:101830004862204600F064FDD0B122E0022070BD75
:101840005878C10603D500F0EF000A305870D878F8
:1018500000F04AFD0204587800F046FD42EA0022FA
:10186000987800F041FD0243187842EA4035DAE703
:101870000748054020684560204600F065FD00B936
:1018800066772268FF2151620021217770BD000038
:101890003FFFFF002DE9F0410446007F0D4601287F
:1018A00023D04FF0010884F81C8002206077206864
:1018B000002780684FEA4060D2B1002800DBEF705B
:1018C000A878297840EA01466878E978000240EA79
:1018D000815006432168CA2048622168532048622B
:1018E000204600F00DFDB8B12CE00220BDE8F081EB
:1018F000002800DBEF70287800F0F6FC020468781E
:1019000000F0F2FC42EA0022A87800F0EDFC02436D
:10191000E87842EA8056DDE70D4806402068066018
:101920002068816821F480218160D5E903010843A2
:1019300021688A6810438860204600F005FD08B9D8
:1019400084F81D802268FF2151622777CEE70000CE
:101950007F7F7F0070B504460B482168C860FFF7A1
:10196000B5FA05464FF47A7607E000BFFFF7AEFA06
:10197000401BB04201D9032070BD2068C0688006BA
:10198000F4D5002070BD00005F7F010070B5040039
:1019900009D0606A002540B125616561A56294F8AF
:1019A000510040B10CE0012070BD6068B0F5827F4D
:1019B000F4D0E561F2E784F85050204600F044F896
:1019C000022084F851002068016821F04001016084
:1019D000A088218900F4827001F404410843A189A0
:1019E00001F400610843217C01F002010843217DDC
:1019F00001F001010843218B01F400710843217FAC
:101A000001F03801084394F8201001F080010843E8
:101A1000218D01F40051084321680860A069042168
:101A200001EA104094F8241001F0100108432168E5
:101A300048602068C16921F40061C16165650120C9
:101A400084F85100002070BD10B586B00446142102
:101A50006846FEF797FE13492068884220D1124855
:101A60000021026842F400420260006800F4004075
:101A700005900D481038026842F0020202600068CA
:101A800000F002000590282000900220CDE901011D
:101A9000032003900620049069460448FFF714F9D8
:101AA00006B010BD003C0040403802400004024037
:101AB0002DE9F84F984616468A460446FFF706FA7F
:101AC000814694F8510001281ED1BAF1000F73D05D
:101AD000002E71D094F85000012815D0012784F809
:101AE0005070032084F8510000256565C4F830A0CB
:101AF000A686E686A563A587E58765642564A06854
:101B0000B0F5004F03D00CE00220BDE8F88F20684C
:101B1000016821F0400101602068016841F48041C2
:101B2000016020680168490603D4016841F0400162
:101B30000160E068B0F5006F606803D048B3012E23
:101B400027D047E008B1012E1FD1206B2168008803
:101B5000C86006E020688168890709D5216B09887B
:101B6000C160206B801C2063E08E401EE0860CE08C
:101B7000FFF7ACF9A0EB0901414503D3B8F1FF3FF2
:101B800003D035E0B8F1000F32D0E08E0028E1D16B
:101B900023E0206B21680078087306E020688168E4
:101BA00089070AD5216B09780173206B401C2063DB
:101BB000E08E401EE0860DE02BE0FFF787F9A0EBFA
:101BC0000901414503D3B8F1FF3F03D010E0B8F15C
:101BD000000F0DD0E08E0028E0D14A464146204655
:101BE00000F0C8FB08B120206065A06830B109E0B2
:101BF00084F8517084F85050032086E72068C1684B
:101C00008068009084F8517004F8505F6068002884
:101C1000F3D0012079E77047704710B5040003D076
:101C200094F83D0010B107E0012010BD002084F8B9
:101C30003C00204600F01EF8022084F83D00211DE3
:101C4000206800F0C1FD012084F8460084F83E00C1
:101C500084F83F0084F8400084F8410084F8420092
:101C600084F8430084F8440084F8450084F83D007B
:101C7000002010BD7047000090F83D10012901D0F0
:101C800001207047022180F83D100168CA6842F0C7
:101C90000102CA6000681149884214D0B0F1804F37
:101CA00011D00F4988420ED00E4988420BD00E4900
:101CB000884208D00D49884205D00D49884202D09B
:101CC0000C49884204D1816801F00701062903D03C
:101CD000016841F0010101600020704700000140EF
:101CE0000004004000080040000C004000040140D7
:101CF000004001400018004070472DE9F0410446C3
:101D00000068C66805694FF00007A90713D5B10739
:101D100011D5F91E016101202077206880698007B4
:101D2000204602D0FFF7E8FF04E000F07EF82046EE
:101D300000F07CF82777680716D5700714D521685E
:101D40006FF004000861022020772068806910F499
:101D5000407F204602D0FFF7CFFF04E000F065F897
:101D6000204600F063F82777280715D5300713D5EC
:101D700021686FF008000861042020772068C0699E
:101D80008007204602D0FFF7B7FF04E000F04DF8CF
:101D9000204600F04BF82777E80616D5F00614D554
:101DA00021686FF010000861082020772068C06962
:101DB00010F4407F204602D0FFF79EFF04E000F0C1
:101DC00034F8204600F032F82777E80708D0F0070B
:101DD00006D021686FF001000861204600F028F865
:101DE000280608D5300606D521686FF08000086106
:101DF0002046FFF710FF680608D5700606D5216853
:101E00006FF040000861204600F01CF8A8060AD5D3
:101E1000B00608D521686FF0200008612046BDE8B3
:101E2000F041FFF7F9BEBDE8F08170477047000050
:101E300000680349884201D1FFF74EB8704700009F
:101E400000100040704770B5040004D094F84100C1
:101E5000002510B106E0012070BD84F840502046F6
:101E600000F024F8242084F841002068C16821F49F
:101E70000051C160204600F037FD2068016921F45F
:101E8000904101612068416921F02A014161206887
:101E9000C16841F40051C1606564202084F84100AC
:101EA00084F842006563002070BD000010B586B064
:101EB000044614216846FEF765FC144920688842F0
:101EC00021D113480021026842F01002026000682C
:101ED00000F0100005900E481438026842F001022C
:101EE0000260006800F0010005904FF4C0600090AF
:101EF0000220CDE9010103200390072004906946E8
:101F00000448FEF7E1FE06B010BD000000100140DD
:101F100044380240000002402DE9F84F044690F892
:101F200042009A4616460D46202802D00220BDE8FF
:101F3000F88FB5B1AEB100206064222184F8421060
:101F40002063FEF7C3FFA6858146E685A0684FF4AF
:101F500080582027404501D1206920B12E46002518
:101F600029E00120E3E7002625E04B46002220215E
:101F70002046CDF800A000F03DFD18B184F8427075
:101F80000320D4E726B1A06840451AD038B108E054
:101F900020684068C0F3080025F8020B08E02069BB
:101FA00078B12068406800F07F0000BF06F8010BA0
:101FB000E08D401EE085E08D0028D6D184F8427087
:101FC000B5E720684068F1E72DE9F843044690F84A
:101FD0004100984616460D46202802D00220BDE852
:101FE000F88385B17EB100206064212084F841002F
:101FF000FEF76CFFA6848146E684A0682027B0F532
:10200000805F02D003E00120E9E7206910B12E468D
:1020100000250EE000260CE08021204600F0EAFCBE
:10202000A8B9C6B116F8010B21684860E08C401EC3
:10203000E084E08C4B464FF00002CDF80080002891
:10204000EAD14FF04001204600F0D4FC40B184F8C2
:1020500041700320C3E735F8020BC0F30800E3E743
:1020600084F841700020BAE7FEE7000010B5184878
:1020700001F005FA174C164A04216060C4320820AA
:1020800001F074F9124AE06110320021124801F0A7
:102090004BFA0F4AA06034320021104801F044FA94
:1020A0000B4AE060583200210D4801F03DFA084A21
:1020B00020617C3200210B4801F036FA044A60614D
:1020C000A0320021084801F02FFAA06110BD0000E5
:1020D0000C550008000000209D240008252600085B
:1020E0001D26000895250008A12600082DE9F041CD
:1020F00086B014216846FEF745FB35480024016888
:1021000041F010010160016801F0100105910168C2
:1021100041F004010160016801F0040105910168CA
:1021200041F080010160016801F0800105910168C2
:1021300041F008010160016801F0080105910168A2
:1021400041F001010160016801F0010105910168A0
:1021500041F0020101600068012200F002001D4F01
:102160005603059031463846FEF7ABFEDFF868802F
:1021700001224FF430514046FEF7A3FE00227110B9
:102180004046FEF79EFE3C2001258DE83100694661
:102190001248FEF799FD0096CDE90154694638468C
:1021A0000394FEF791FD4FF470500090CDE9015477
:1021B000694640460394FEF787FDE8038DE8310049
:1021C00069460748FEF780FD06B0BDE8F0810000D3
:1021D0003038024000080240000C0240001002406B
:1021E0000000024010B586B014216846FEF7CAFA16
:1021F0001B48002419490594C0E900147F2181601F
:10220000FF21C0E9031444618461FFF78DFA08B12E
:10221000FEF71AFD8DF800408DF801408DF8024060
:102220000394012269460E480494FFF733FB08B17A
:10223000FEF70AFD01208DF814008DF815008DF8C9
:10224000160002468DF8174005A90548FFF7D6FA93
:10225000002801D0FEF7F8FC06B010BD00280040B1
:1022600018110020104810B50E4901604FF482711A
:10227000416000218160C1604FF400720161C0E9DA
:1022800005121822C0E90721416281620A21C16258
:10229000FFF77CFB002803D0BDE81040FEF7D4BC5C
:1022A00010BD0000003C0040381100200C4810B563
:1022B0000A4901604FF4E1314160002181600C2244
:1022C000C160C0E904128161C161FFF7BCFD002853
:1022D00003D0BDE81040FEF7B7BC10BD00100140B0
:1022E00090110020FEE7FEE7002102E00A38C0B2AC
:1022F000491C0A28FAD2090740EA11607047000019
:102300002DE9F041044600680025C168490618D44B
:10231000C16841F08001C160FEF7D8FD06464FF468
:102320007A78042707E000BFFEF7D0FD801B404508
:1023300001D9677701252068C068400601D4002DC7
:10234000F2D02846BDE8F08170B50446006800254B
:10235000C16821F08001C16020688068800606D4D1
:102360002046FFF7F7FA10B10420607701252846D0
:1023700070BD0000F8B515460E460B4600920446A7
:102380000122022100F02CF8A0B91348134900687B
:10239000B0FBF1F04FF47A71484300906068B0F5FB
:1023A000827F0DD13346002280212046009500F027
:1023B00017F870B1606D40F0200060650320F8BD33
:1023C000009830B1401E009020688068C04300062D
:1023D000F6D50020F8BD00009400002000366E0104
:1023E0002DE9F8431E46914688460446089DFEF7AF
:1023F0006DFD401B351AFEF769FD0746264800684B
:10240000C0F3CB3068430AE0701C09D0FEF75EFDD4
:10241000C01BA8420FD275B10098B8B3401E0090FF
:102420002068816838EA010033D000214945EBD1AA
:102430000020BDE8F8832068416821F0E001416098
:102440006068B0F5827F0BD1A068B0F5004F02D074
:10245000B0F5806F04D12068016821F0400101606F
:10246000A06AB0F5005F09D12068016821F400512D
:1024700001602068016841F400510160012084F886
:102480005100002084F850000320D2E7FFE7002528
:10249000C6E70121CAE70000940000204FF00108C0
:1024A00008B5C146C246C346384C04212046FEF753
:1024B00003FD074608212046FEF7FEFC06461021D4
:1024C0002046FEF7F9FC054620212046FEF7F4FCE5
:1024D00004469FB9B8F1010F10D1142000F0D1FECD
:1024E00004212A48FEF7E8FC40B902200090284861
:1024F00000231A466946C06900F064FF9EB9B9F12D
:10250000010F10D1142000F0BCFE08211F48FEF777
:10251000D3FC40B9012000901D4800231A466946AB
:10252000C06900F04FFF9DB9BAF1010F10D114201E
:1025300000F0A7FE10211548FEF7BEFC40B90320AD
:102540000090134800231A466946C06900F03AFF1C
:102550009CB9BBF1010F10D1142000F092FE202194
:102560000A48FEF7A9FC40B904200090084800235F
:102570001A466946C06900F025FFB846B146AA462A
:10258000A346142000F07DFE8EE7000000100240FC
:102590000000002040F2DC5000F073FE0126174CD2
:1025A0004FF47A6740F6B838002542F21079384681
:1025B000FEF7CAFA88B1424611A112A0FEF71EFB2F
:1025C00048B113A11448FEF70BF820B1FEF732FB17
:1025D00084F864600AE0FEF72DFBFEF7D7F900B13E
:1025E000012084F8640008B984F86550072000F0E1
:1025F000ABFB484600F045FED9E700002000002074
:102600004F4B000041542B43574A41503F0D0A00A5
:102610002B43574A41503A0018010020012000F096
:1026200030FEFBE708B500F0F9FB1C4C00252570D7
:1026300000F01AFA6E1E334600226946E06900F087
:1026400063FE0028F7D100980828F4D2DFE800F0F4
:10265000040D051514211B21EDE720780521401CF0
:10266000B0FBF1F201FB120004E0207808B1401E3B
:1026700000E00420207000E0257000F0F5F9DAE7B2
:102680000428D8D1F9E720780028F6D00128F7D11E
:10269000F3E720780028F3D1EFE7000000000020E6
:1026A0004FF4FA5000F0EDFD0125DFF84080104CAA
:1026B00041F28837002647F2305900BF94F8640091
:1026C00048B1FEF707FA40B184F86550062000F0E3
:1026D0003BFB404607E0384605E084F8656006208D
:1026E00000F032FB484600F0CCFDE7E7C0270900C8
:1026F0002000002010B54FF0E020006902F0EEFA53
:10270000012803D0BDE8104001F096BE10BD0000C6
:1027100030B593B030216846FEF734F814210CA888
:10272000FEF730F81F480025016841F08051016034
:10273000006800F0805011901B48016841F480410E
:1027400001600068022400F4804011900520009090
:102750004FF480300190012002908005CDE90640C1
:10276000082008904FF4A870CDE9090404200B90CC
:102770006846FEF723FE08B172B6FEE70CA90F20EB
:1027800081E831004FF4A0500F904FF4805010902A
:1027900005210CA8FEF708FD002801D072B6FEE75F
:1027A00013B030BD4038024000700040024801685C
:1027B00041F470010160704788ED00E00148FFF7C7
:1027C0009CBA0000D8110020F0B50268274B284DB4
:1027D000284E294F294C4FF0804C984209D0604533
:1027E00007D0A84205D0B04203D0B84201D0A042E1
:1027F00004D122F0700E4A6842EA0E0298421BD0C1
:10280000604519D0A84217D0B04215D0B84213D0B5
:10281000A04211D01A4DA8420ED01A4DA8420BD09A
:10282000194DA84208D0194DA84205D0184DA8420C
:1028300002D0184DA84203D122F44075CA682A4339
:102840004D6922F080022A438D68C5620D68856259
:10285000984201D0A04201D109690163016841F0A9
:1028600004010160012141610260F0BD00000140EE
:102870000004004000080040000C0040000401403B
:102880000040014000440140004801400018004061
:10289000001C00400020004001680C3151E8002F6E
:1028A00022F4907241E80023002BF5D10168143125
:1028B00051E8002F22F0010241E80023002BF5D15E
:1028C000016B012909D101680C3151E8002F22F078
:1028D000100241E80023002BF5D1202180F842109E
:1028E000002101637047000070B50446006801696B
:1028F000E26821F44051114301612169A068E26955
:1029000008436169114308432168CA6849F20C63AE
:102910009A430243CA6020684169A26921F4407168
:102920001143416131492068884202D030498842D0
:1029300002D1FEF703FD01E0FEF7F0FCE26900239F
:10294000192164253226B2F5004F626828D0A0FB19
:102950000101930F9200FDF7EFFC0146B0FBF5F08B
:102960006FF01802504301EB800006EB0010B0FB43
:10297000F5F000F0F002B1FBF5F002EB0012B1FB54
:10298000F5F06FF01803584301EB800006EB0010E0
:10299000B0FBF5F000F00F0021681044886070BDB6
:1029A000A0FB010192185B41FDF7C6FC0146B0FB9C
:1029B000F5F00201B1FBF5F06FF01803584301EB9D
:1029C000800006EBC000B0FBF5F000F0F80002EB71
:1029D0004002B1FBF5F0584301EB800006EBC0006C
:1029E000B0FBF5F000F00700D6E700000010014052
:1029F000001401402DE9F843984617460D46044659
:102A0000089E24E0701C22D0FEF760FAA0EB0800BC
:102A1000B0421AD8CEB12068C168490717D5802DB9
:102A200015D0402D13D00168C94309070FD40168A0
:102A30000025406800902046FFF72EFF08206064C4
:102A400084F840500120BDE8F8830320FBE72068AC
:102A5000006835EA000004D00020B842D2D000203F
:102A6000F1E70120F9E7000070B522484FF6FF7446
:102A7000661100784FF4FC65052839D2DFE800F0D4
:102A800003070B1D3400BDE8704000F0B9B8BDE885
:102A9000704000F0FFB8002000F0BEFA0521234688
:102AA00015A2084600F0E6F82B4616A228210A20B7
:102AB00000F0E0F8334615A210E0002000F0ACFA78
:102AC0000521234615A2084600F0D4F82B4615A28E
:102AD00028210A2000F0CEF8334615A2BDE8704048
:102AE00041210A2000F0C6B8BDE8704000F026B8C9
:102AF00070BD000000000020464F52454341535432
:102B0000000000003320446179730000576169744C
:102B1000205765617468657200000000494E444F9B
:102B20004F52000054656D702048756D69000000BB
:102B3000576169742053656E736F720070B588B009
:102B4000002000F069FA4FF6FF740521234620A209
:102B5000084600F08FF823461FA21E21052000F032
:102B600089F81F4D95F8640008B11E4A00E01EA2C6
:102B70004FF4FC6633461E21372000F07BF82346D5
:102B80001AA23721052000F075F895F8650008B104
:102B9000144A00E014A237213346084600F06AF8D0
:102BA00000F07CFB034613A220216846FDF73CFCA5
:102BB000234611A25521052000F05CF840F2FF7376
:102BC0006A465521372000F055F808B070BD000066
:102BD0004445425547000000576946693A000000E5
:102BE00020000020002600084E4F00004150493AC6
:102BF00000000000256C75005469636B3A0000000A
:102C000010B5002000F008FA4FF6FF7405212346A6
:102C100015A2084600F02EF84FF4FC63144A1E215A
:102C20000A2000F027F8124A2346103237210A20E2
:102C300000F020F80E4A4FF6E073243255210A20A6
:102C400000F018F80A4A6411234638326E210A202F
:102C500000F010F8064A23464C326E21BDE81040C1
:102C60004B2000F007B80000484F4D450000000021
:102C700020000020F8B507461C460E4615461046B3
:102C8000FDF7C0FC03462A4631463846009400F062
:102C9000BFFAF8BD70B5002000F0BEF94FF6FF7422
:102CA000052123461DA20846FFF7E4FF23461DA287
:102CB0001E210520FFF7DEFF4FF4FC631B4A1E2197
:102CC0003720FFF7D7FF234619A237210520FFF74A
:102CD000D1FF164A37214FF6E07314320846FFF74A
:102CE000C9FF234614A250210520FFF7C3FF0F4A56
:102CF00065112B46283250213720FFF7BBFF2346B2
:102D00000FA269210520FFF7B5FF2B46074ABDE852
:102D10007040343269213720FFF7ACBF574541542A
:102D200048455200436974793A000000440000208D
:102D3000546578743A00000054656D703A000000E4
:102D400048756D693A00000001B5044800231A4631
:102D50006946C06900F036FB08BD00000000002095
:102D6000FEE700003EB51424184B194A19A11C486F
:102D70000094FDF76BFF154B154A143319A1184841
:102D80000094FDF763FF0820009001AB104A18A1E2
:102D90001348FDF75BFF30B10C4801AB18A20C21C2
:102DA0002830FDF741FB094B0C20343300901C46C2
:102DB000074A14A10A48FDF749FF002804D115A2CB
:102DC0000C212046FDF730FB3EBD000044000020F2
:102DD000380B0008226E616D65223A220000000067
:102DE000180100202274657874223A220000000045
:102DF0002274656D7065726174757265223A220085
:102E0000257343002268756D6964697479223A22DA
:102E1000000000002D2D25250000000010B5012226
:102E200051037C48FEF74DF8012000F041F90020E5
:102E300000F04AF9002000F053F90120FDF732FFBD
:102E4000012000F04DF97820FDF72CFF112000F053
:102E50000FF97820FDF726FFB12000F009F90520D1
:102E600000F016F93C2000F013F93C2000F010F9B6
:102E7000B22000F0FDF8052000F00AF93C2000F037
:102E800007F93C2000F004F9B32000F0F1F8052028
:102E900000F0FEF83C2000F0FBF83C2000F0F8F8D1
:102EA000052000F0F5F83C2000F0F2F83C2000F09E
:102EB000EFF8B42000F0DCF8032000F0E9F8C020BF
:102EC00000F0D6F8282000F0E3F8082000F0E0F841
:102ED000042000F0DDF8C12000F0CAF8C02000F0A6
:102EE000D7F8C22000F0C4F80D2000F0D1F800207F
:102EF00000F0CEF8C32000F0BBF88D2000F0C8F839
:102F00002A2000F0C5F8C42000F0B2F88D2000F0AF
:102F1000BFF8EE2000F0BCF8C52000F0A9F81A2098
:102F200000F0B6F8362000F0A3F8C02000F0B0F8AA
:102F3000E02000F09DF8042000F0AAF8222000F024
:102F4000A7F8072000F0A4F80A2000F0A1F82E202E
:102F500000F09EF8302000F09BF8252000F098F853
:102F60002A2000F095F8282000F092F8262000F0A2
:102F70008FF82E2000F08CF83A2000F089F800201D
:102F800000F086F8012000F083F8032000F080F8BC
:102F9000132000F07DF8E12000F06AF8042000F032
:102FA00077F8162000F074F8062000F071F80D2074
:102FB00000F06EF82D2000F06BF8262000F068F885
:102FC000232000F065F8272000F062F8272000F0A9
:102FD0005FF8252000F05CF82D2000F059F83B2028
:102FE00000F056F8002000F053F8012000F050F8EF
:102FF000042000F04DF8132000F04AF83A2000F0C9
:1030000037F8052000F044F8BDE81040292000F012
:103010002FB80000000C024070B5064600229F2326
:103020007F21104600F068F800240025304600F0AB
:1030300009F86D1CADB2802DF8D3641CA4B2A02C8D
:10304000F3D370BD10B50446000A00F021F8E0B2D9
:10305000BDE8104000F01CB801B54FF0FF3301226D
:1030600069460248FEF724FD08BD00003811002023
:1030700010B50446002000F027F8002000F018F8F2
:103080002046FFF7E9FFBDE81040012000F010B82E
:1030900010B50446012000F017F8002000F008F8F1
:1030A0002046FFF7D9FFBDE810400120AFF30080B4
:1030B000044B4FF4006118B101221846FDF701BF1F
:1030C0000022FAE7000C0240044B4FF4805118B183
:1030D00001221846FDF7F5BE0022FAE7000C024077
:1030E000044B4FF4806118B101221846FDF7E9BE88
:1030F0000022FAE7000C02402DE9F04104461D468B
:1031000016460F462A20FFF7B3FF0020FFF7C0FF47
:103110002046FFF7BDFF0020FFF7BAFF3846FFF754
:10312000B7FF2B20FFF7A4FF0020FFF7B1FF3046C9
:10313000FFF7AEFF0020FFF7ABFF2846FFF7A8FF21
:10314000BDE8F0412C20FFF793BF00002DE9F041CE
:103150001446984601F10F02D3B2CAB2C11DC9B2DA
:10316000C0B2FFF7C9FFA4F13000092805D82048F4
:1031700000EB0414A4F540741EE0A4F141001928EA
:1031800005D81C4800EB0414A4F5826414E0A4F1F3
:103190006100192805D8184800EB0414A4F5C2648E
:1031A0000AE0202C07D03A2C0DD02D2C0DD0252C48
:1031B0000DD0222C0DD0114C00250026675D38065D
:1031C00009D5404608E00E4CF6E70E4CF4E70E4CED
:1031D000F2E70E4CF0E70020FFF734FF7806070E09
:1031E000761C082EEBDB6D1C102DE6DBBDE8F081B4
:1031F000DA5000088A5100082A530008CA5400080F
:10320000DA540008EA540008FA5400087A51000819
:103210002DE9F0471D461646894607460024DDF88D
:10322000208007E0325D07EBC40043464946FFF7C4
:103230008DFF641CAC42F5DBBDE8F0870907090E81
:10324000002804DB00F1E02080F80014704700F053
:103250000F0000F1E02080F8141D7047FDF744FED8
:10326000FFF756FAFEF742FFFEF7BCFFFEF7FAFF44
:10327000FFF71CF800F01AF8FEF7F8FE00F028F847
:10328000FEE710B5EFF3058111B16FF0050403E01F
:10329000002408B100F028FF204610BDEFF30580A0
:1032A00008B101F02FBD01F027BD0000EFF305804C
:1032B00010B16FF0050070470448016811B14FF07C
:1032C000FF3070470121016000207047E8000020B6
:1032D00010B5EFF3058010B16FF0050010BD084880
:1032E0000168012902D04FF0FF3010BD054A0021CE
:1032F00082F8141D0221016000F0A6FF002010BD1D
:10330000E80000200BE000E0F8B51D466FF0030276
:103310006FF002064FF00004EFF30583A3B1F0B1A4
:10332000E9B1E5B9002200926A4601F015FB0128D7
:1033300017D10098B0B10C494FF080500860BFF32E
:103340004F8FBFF36F8F0DE048B141B12A4601F0B6
:1033500067FA012806D025B16FF0010402E0144697
:1033600000E034462046F8BD04ED00E0F8B5144610
:103370004FF00005EFF3058212BB08B301B3A4B10F
:10338000D4E9023263B1502A1AD32269C2B1676903
:1033900000FB01F6B74213D3009501F09CF807E05B
:1033A00072B9226962B9626952B9002201F072F8F9
:1033B000050005D00CB1216800E0002100F05EFEA0
:1033C0002846F8BDF8B51D466FF003026FF00206FF
:1033D0004FF00004EFF30583ABB100B3F9B1F5B9D9
:1033E0000022134600926A4601F09CF9012818D188
:1033F0000098B8B10C494FF080500860BFF34F8F70
:10340000BFF36F8F0EE050B149B100232A4601F09F
:10341000D9F8012806D025B16FF0010402E0144666
:1034200000E034462046F8BD04ED00E02DE9F0410F
:103430000D46014621F0010001F001014FF00004AA
:10344000EFF305820AB1A41F16E048B100296FF01E
:1034500001066FF00207294608D001F087FB07E05C
:103460006FF0030408E035B1344605E001F0C2FA1C
:103470000128F8D100E03C462046BDE8F08170B557
:1034800005464FF00004EFF3058050BB0DB16868AE
:1034900000E00020C10701D0012600E0002600075F
:1034A0001FD46DB1D5E9021021B1502819D31EB136
:1034B000042002E020B114E0012000F0DEFF05E06E
:1034C0000EB1042000E0012000F0CCFF040008D081
:1034D0000DB1296800E0002100F0D0FD0EB144F0EC
:1034E0000104204670BD70B5014621F0010001F0D5
:1034F00001014FF00004EFF305820AB1A41F11E0AF
:1035000028B16FF0020529B101F06BF907E06FF007
:10351000030407E000231A46194601F053F8012876
:1035200000D02C46204670BD2DE9FF414FEA010333
:103530004FF00005EFF30581039549BB40B38027A9
:10354000182100244AB3166806B1344696691EB1A4
:103550003146761E382E02D21679F60703D00020A7
:1035600004B0BDE8F081566906B1B708D2F808C0CA
:10357000BCF1000F0DD0D5685C2D18D312693AB19B
:1035800036B18DE806103A46214601F076FB0390ED
:103590000DE0D6685EB912694AB903AACDE90012F6
:1035A000BAB2214601F03CFB012800D003950398F4
:1035B000D6E700002DE9F041134C0F460546E668BA
:1035C0002068001D00F05CFC681C07D137B1216841
:1035D000BDE8F0410D48091D00F0A2BC206835444B
:1035E000B5424560216805D2A06BBDE8F041091DD8
:1035F00000F07EBC606B091D00F07AFCA06A854279
:1036000000D2A562BDE8F0819800002010170020CC
:103610002DE9F041054600F08FFC2D4CA068401CC0
:10362000A06020682B4F10B1606930B32BE025609B
:10363000A068012827D1002606EB860007EB800052
:1036400000F048FC761C382EF6D3234800F042FCEC
:103650002148143000F03EFC1F48283000F03AFCAE
:103660001D483C3000F036FC1B48503000F032FC66
:10367000194860631430A06305E02068E96AC06AF5
:10368000884200D82560606A401C60626864E86A0D
:103690002169884200D9206100EB800007EB80009F
:1036A000291D00F03DFC00F067FC606900280CD08B
:1036B0002068E96AC06A884207D208494FF0805002
:1036C0000860BFF34F8FBFF36F8FBDE8F08100003C
:1036D0009800002060120020C016002004ED00E0D9
:1036E00038B500F029FC104C2068C8B90F4800F02C
:1036F000F1FB0E48143000F0EDFB0C48E060143094
:1037000020610A4B0020F03B009003F15002102191
:103710000A2000F0E0FE206010B105A100F0AEFC30
:10372000BDE8384000F028BCD40000201418002068
:10373000546D72510000000030B4026C0B46002A38
:103740000BD0C1681144C1608468A14201D30168F3
:10375000C16030BC1846FCF774BF30BC70472DE91F
:10376000F041856B174604460026026C82B1C7B152
:10377000E068FCF766FFE168206C091AE1602268E6
:10378000914202D2A168081AE060022F16D017E019
:103790002068A8B9A06801F021FB06460020A060BF
:1037A0000EE06068FCF74DFF216C606808446060C3
:1037B000A168884204D32068606001E005B16D1EF5
:1037C0006D1CA5633046BDE8F08110B5044690F845
:1037D000590058B101280CD002280FD0502080F396
:1037E0001188BFF34F8FBFF36F8FFEE7206B00F0A0
:1037F000D7FB2046BDE8104000F0D2BB10BD000052
:1038000010484FF47051420706D0C01D0D4920F0FA
:103810000700411AC1F570510B4A00230144C2E967
:1038200000030839183A21F0070111604B600B6062
:103830000B1AC0E9001393604FF0004053605061D1
:1038400070470000F41E002004010020144E154CA7
:10385000A6F29C474FF08058DFF84C9012E000BF72
:1038600000F06AFBF068C568281D00F009FBA0683D
:10387000401EA0606068401E606000F07DFB28462E
:10388000FFF7A3FF60680028EAD138680128F9D95A
:10389000C9F80080BFF34F8FBFF36F8FF2E70000CE
:1038A000FC1600209800002004ED00E0002807D05E
:1038B0000021816001600B460A46C16000F082BEB3
:1038C0007047000070B51D46049C51B1C4F800203B
:1038D000C4E90F010121204600F030FE84F84C506D
:1038E00070BD2460F4E700002DE9F05F8846DDE953
:1038F0000B941546834691009A460A9EA522206B9A
:10390000FCF716FF6FF00301206B01EB8501084403
:1039100020F00707780707D0502080F31188BFF305
:103920004F8FBFF36F8FFEE70025B8F1000F0FD068
:103930005FF00000221818F8001082F8341018F810
:10394000001011B1401C1028F4D384F8435001E05A
:1039500084F83450382E00D33726E662C4E9136564
:10396000201D00F0C2FA04F1180000F0BEFA246134
:10397000C6F138006462A061656584F8585052460B
:103980005946384600F066FA2060B9F1000F01D0C0
:10399000C9F80040BDE8F09F30B5114900E011467C
:1039A0000A688242FBD34B685C18844203D14068AA
:1039B00018444860084643681C18944209D1084CD2
:1039C000183C2468A24209D052681A4442600A682E
:1039D00012680260814200D0086030BD0460F9E7DF
:1039E0000401002070B5002441600B4D006191423C
:1039F00006D8D11A8269914206D2011D286907E0D2
:103A00009A4203D2994201D3012403E0011DE868E0
:103A100000F06EFA204670BDD400002010B50446B8
:103A200000F08AFAA06B28B15FF0000400F0A4FA5D
:103A3000204610BD0124F9E730B589B03C4D6EE059
:103A40000498002806DADDE90601059A90470498F3
:103A5000002864DB069C606910B1201D00F010FA9C
:103A600003A800F0D7F8024604980A2857D2DFE8E6
:103A700000F00505052D334A05052D3394F828007F
:103A800040F0010084F828000599A069059B0144D5
:103A90002046FFF7A7FF68B3216A2046884794F8BD
:103AA000280040073BD5002000900598A16900231D
:103AB00042181946204601F0D7FAD8B9502080F3B1
:103AC0001188BFF34F8FBFF36F8FFEE714F8280FF5
:103AD00020F00100207022E094F8280040F001005E
:103AE00084F828000598A06128B181181346204663
:103AF000FFF778FF13E0502080F31188BFF34F8F5A
:103B0000BFF36F8FFEE794F82800810703D42046A7
:103B100000F046FA03E020F0010084F828000022BB
:103B200004A9286800F07CFE002889D109B030BDC6
:103B3000D40000202DE9FC410F46054600F0C8FBEB
:103B400001A800F067F80446019818B101F0FAF9ED
:103B5000BDE8FC81254EAFB130690068D0B30027C5
:103B6000291B3A46306800F09DFA01F0EBF9002875
:103B7000EED11F494FF080500860BFF34F8FBFF365
:103B80006F8FE5E7A542EBD801F0DCF9F068274636
:103B9000C068C468201D00F073F994F8280041073C
:103BA00019D5A0692B4641193A462046FFF71AFF5E
:103BB000A8B100200346014600902A46204601F0A5
:103BC00053FA60B9502080F31188BFF34F8FBFF3D1
:103BD0006F8FFEE707E020F0010084F82800216ADB
:103BE00020468847B4E70127BAE70000D400002048
:103BF00004ED00E00648416B096829B1416BC968D2
:103C0000C9684968816270474FF0FF31FAE70000E8
:103C10009800002070B5054601F06EF8064E044687
:103C2000B068844203D200F009F8012000E00020CF
:103C300028602046B46070BDD4000020F8B5194D4E
:103C400020E0C068C4680668201D00F019F9216AE8
:103C50002046884794F82800400713D5A0693044CF
:103C6000B04206D924616060211DE86800F040F987
:103C700008E000200346014600903246204601F04D
:103C8000F3F938B1E86801680029DAD12969C5E992
:103C90000310F8BD502080F31188BFF34F8FBFF39E
:103CA0006F8FFEE7D400002008484068401C4FF0AA
:103CB000500080F3118804D0BFF34F8FBFF36F8F94
:103CC000FEE7BFF34F8FBFF36F8FFEE70C010020BD
:103CD000074CE068016841B1C0680021D0F80000DD
:103CE000FFF728FFFFF7A8FEF3E701210020F7E721
:103CF000D40000202DE9F041044600F01DF994F9AC
:103D0000455004F1240609E0606A48B1304601F0EC
:103D1000E1F808B100F016FA6D1E6DB2002DF3DC6B
:103D20004FF0FF3684F8456000F026F900F004F902
:103D300094F9445004F1100709E0206948B138466D
:103D400001F0C8F808B100F0FDF96D1E6DB2002D4C
:103D5000F3DC84F84460BDE8F04100F00DB90000E8
:103D60002DE9F0410546002700F0B2FA324E3068E6
:103D700008B9FFF745FD706905424ED1C5B3083556
:103D800068070ED005F00700C0F108000544680779
:103D900007D0502080F31188BFF34F8FBFF36F8F90
:103DA000FEE72DB37068854237D8234818300146A6
:103DB0000C6801E020460C466168A94202D22168E5
:103DC0000029F7D131688C4227D00768216801604B
:103DD00060680837411B10290FD96019420708D0C5
:103DE000502080F31188BFF34F8FBFF36F8FFEE732
:103DF00013E041606560FFF7CFFD61687068401AAD
:103E00007060B268904200D2B060706901430020D7
:103E1000C4E90001F068401CF06001F093F87807F5
:103E200007D0502080F31188BFF34F8FBFF36F8FFF
:103E3000FEE73846BDE8F081EC0000200449086840
:103E400018B10868026D521C0265086870470000CE
:103E50009800002010B5031F4FF080741C601B1FDA
:103E600021F001011960191F044B0B6014390A601D
:103E7000091F6FF0020244380A6010BDA93C000817
:103E8000D0E9013201699A60D0E901235A604A6899
:103E9000824201D182684A60002202610868401EA5
:103EA0000860086870470000034B036003F15C0082
:103EB00008608020106070473C180020044B0360AD
:103EC00003F15C0008604FF48070106070470000E0
:103ED000981A002000F108014FF0FF32C0E90112EA
:103EE000C1600161002101607047002101617047DC
:103EF00030B50B685A1C02D000F1080202E00269DA
:103F000004E02246546825689D42FAD953684B6004
:103F100099608A60516008610168491C016030BD88
:103F200042684A6093688B60936859609160086149
:103F30000168491C01607047502080F31188BFF36D
:103F40004F8FBFF36F8F0A494868401C48600128B3
:103F50000CD10848006810F0FF0F07D0502080F304
:103F60001188BFF34F8FBFF36F8FFEE770470000DC
:103F70000C01002004ED00E00849486828B1401E0B
:103F8000486001D180F311887047502080F3118878
:103F9000BFF34F8FBFF36F8FFEE700000C010020CF
:103FA00070B500282AD0164DA0F108046068696930
:103FB000084207D1502080F31188BFF34F8FBFF321
:103FC0006F8FFEE722683AB1502080F31188BFF36B
:103FD0004F8FBFF36F8FFEE78843606000F078F982
:103FE00060686968084468602046FFF7D5FC286966
:103FF000401C2861BDE8704000F0A4BF70BD000007
:10400000EC0000204FF0E0200021016181610549B2
:104010004FF47A720968B1FBF2F1491E4161072140
:10402000016170479400002010B5FCF761F9114957
:1040300010280ED300F1E02090F8F0030A789042A7
:1040400007D2502080F31188BFF34F8FBFF36F8FDB
:10405000FEE709480068896800F4E060884207D9F3
:10406000502080F31188BFF34F8FBFF36F8FFEE7AF
:1040700010BD00000C0100200CED00E010B5084B55
:10408000002200BF53F832401CB1521C082AF9D359
:1040900010BD43F8321003EBC201486010BD0000B0
:1040A0002012002070B515460E460446FFF744FF67
:1040B00094F944100020491C01D184F8440094F97B
:1040C0004510491C01D184F84500FFF755FFA06B4E
:1040D00028B92A46314604F1240000F051F8204660
:1040E000BDE87040FFF706BE10B5020014D00F48BF
:1040F000006B38B1502080F31188BFF34F8FBFF3AE
:104100006F8FFEE700F0E4F800211046FFF752FA47
:1041100000F018FF002807D105494FF080500860D3
:10412000BFF34F8FBFF36F8F10BD000098000020CA
:1041300004ED00E002490A6A0260C9684160704704
:104140009800002001490120C861704798000020B4
:1041500010B50C4650B1094909681831FFF7C8FE7F
:104160002046BDE810400121FFF724BA502080F31B
:104170001188BFF34F8FBFF36F8FFEE798000020C9
:1041800070B514460D4668B10A4909681831FFF741
:10419000C7FE0CB14FF0FF3521462846BDE8704000
:1041A000FFF708BA502080F31188BFF34F8FBFF399
:1041B0006F8FFEE79800002070B504003ED0226D9E
:1041C000A2B1E06C884200D30146E06A884235D053
:1041D000012A33D11A4D2A6894420FD1502080F31E
:1041E0001188BFF34F8FBFF36F8FFEE7502080F32E
:1041F0001188BFF34F8FBFF36F8FFEE7E162A269B3
:10420000002A02DBC1F13801A1610E4E00EB8000F3
:10421000616906EB8000814210D1201DFFF730FE5E
:10422000E06A2969884200D9286100EB800006EB2A
:104230008000211DBDE87040FFF772BE70BD000018
:10424000980000206012002030B587B0002403944D
:1042500005AA04A903A80494FFF726FEDDE90301DB
:104260000094CDE90110002315A11748059A00F02C
:1042700004FD164D0028E8621FD000F0C5FE01289D
:1042800009D0401C19D1502080F31188BFF34F8F03
:10429000BFF36F8FFEE7502080F31188BFF34F8F7D
:1042A000BFF36F8F4FF0FF30A86201206861EC60B0
:1042B00007B0BDE8304000F045B807B030BD0000A1
:1042C00049444C45000000004D380008980000208B
:1042D0000248016B491C01637047000098000020F0
:1042E000164810B5016B11B10121C16110BD00214B
:1042F000C1610169124A01E0B9B1491E01EB8103B4
:1043000052F82330002BF7D001EB810302EB83023C
:1043100002F1080453685B685360A34201D15B68F3
:104320005360DA680260016110BD502080F311888B
:10433000BFF34F8FBFF36F8FFEE7000098000020A0
:10434000601200201CB537480168374A914207D1F6
:10435000502080F31188BFF34F8FBFF36F8FFEE7BC
:1043600000683149491E884207D1502080F31188E6
:10437000BFF34F8FBFF36F8FFEE72C490878019092
:10438000FF20087008788DF800009DF800009DF867
:10439000002000F0F000904207D0502080F31188F8
:1043A000BFF34F8FBFF36F8FFEE79DF80000204CE7
:1043B00000F0500020700720A06005E09DF800206C
:1043C00052008DF80020401E9DF800201206F5D402
:1043D000A060032807D0502080F31188BFF34F8FCF
:1043E000BFF36F8FFEE74FF44070A0600198087034
:1043F0000C482030016841F470010160016841F00F
:1044000070410160FFF7FEFD00206060FBF738FFA0
:104410000848016841F040410160FBF71DFF0020A2
:104420001CBD000000ED00E071C20F4100E400E09F
:104430000C01002034EF00E010B5502080F311880B
:10444000BFF34F8FBFF36F8F00F064FC18B10449C6
:104450004FF080500860002080F3118810BD0000EC
:1044600004ED00E010B502460021012000F012F832
:104470000446FFF71BFA204610BD38B50B46002254
:1044800000901146012000F026F80446FFF70EFACE
:10449000204638BDF8B517460E46050013D005FB7B
:1044A00006F05030FFF75CFC04000AD0002084F8CE
:1044B000460004F150023B46314628460094FFF77F
:1044C00001FA2046F8BD502080F31188BFF34F8FCA
:1044D000BFF36F8FFEE738B5049D18B153B1CAB171
:1044E00081B120E0502080F31188BFF34F8FBFF3DC
:1044F0006F8FFEE7502080F31188BFF34F8FBFF31B
:104500006F8FFEE7502080F31188BFF34F8FBFF30A
:104510006F8FFEE739B1502080F31188BFF34F8FC2
:10452000BFF36F8FFEE750241C46012384F846300A
:104530002B460094FFF7C6F9204638BD70B50D46EE
:10454000040025D0FFF7F8FCD4E90F20216802FB16
:104550000011A1600021A163216861600A46D4E9CD
:104560000F01401E00FB0121E16021464FF0FF30AA
:1045700001F8440F487004F110008DB1FFF7AAFC58
:1045800004F12400FFF7A6FCFFF7F6FC012070BD44
:10459000502080F31188BFF34F8FBFF36F8FFEE77A
:1045A00021690029F0D000F095FC0028ECD00449E6
:1045B0004FF080500860BFF34F8FBFF36F8FE3E77A
:1045C00004ED00E02DE9FF4782B01D468A464FF01A
:1045D0000008040003D0BAF1000F08D011E0502009
:1045E00080F31188BFF34F8FBFF36F8FFEE7206C0E
:1045F00038B1502080F31188BFF34F8FBFF36F8F16
:10460000FEE7022D0AD1E06B012807D0502080F38D
:104610001188BFF34F8FBFF36F8FFEE700F05EFB93
:104620003F4F4FF000094FF0805648B9049838B119
:10463000502080F31188BFF34F8FBFF36F8FFEE7D9
:10464000FFF77AFCA06BE16B884207D3022D05D0FF
:104650000498D0B1B8F1000F1AD01EE02A46514696
:104660002046FFF77CF8616A19B104F1240000F0DC
:1046700031FC20B13E60BFF34F8FBFF36F8FFFF768
:104680007BFC012006B0BDE8F087FFF775FC22E057
:104690006846FFF74FFD4FF00108FFF76DFCFFF78D
:1046A00017FEFFF749FC94F94400401C01D184F83F
:1046B000449094F94500401C01D184F84590FFF7DF
:1046C0005BFC04A9684600F071FA30B12046FFF7A0
:1046D00011FB00F037FC0020D4E7FFF72DFCA06BA6
:1046E000E16B884213D1FFF747FC04F110000499F5
:1046F000FFF72EFD2046FFF7FDFA00F023FC00280F
:104700009ED13E60BFF34F8FBFF36F8F98E7FFF7E7
:1047100033FC2046FFF7EEFA00F014FC90E70000AF
:1047200004ED00E02DE9F0471F469046894604005D
:1047300003D0B9F1000F08D011E0502080F31188A8
:10474000BFF34F8FBFF36F8FFEE7206C38B150205F
:1047500080F31188BFF34F8FBFF36F8FFEE7022FF7
:104760000AD1E06B012807D0502080F31188BFF3F5
:104770004F8FBFF36F8FFEE7FFF756FC5020EFF32C
:10478000118680F31188BFF34F8FBFF36F8FA06B3B
:10479000E16B884206D3022F04D0002086F31188F3
:1047A000BDE8F08794F94550A06B3A46494620464B
:1047B000FEF7D5FF681C04D06D1C84F8455001201D
:1047C000ECE7606A0028FAD004F1240000F082FBD4
:1047D0000028F4D0B8F1000FF1D00121C8F8001082
:1047E000EDE710B5040009D000F072FAA168884224
:1047F00014D1E068401EE06008D00DE0502080F346
:104800001188BFF34F8FBFF36F8FFEE700231A4667
:1048100019462046FFF7D6FE012010BD002010BD2E
:104820002DE9F747002683B08A46040003D0BAF189
:10483000000F08D011E0502080F31188BFF34F8F94
:10484000BFF36F8FFEE7206C38B1502080F31188E2
:10485000BFF34F8FBFF36F8FFEE700F03FFADFF833
:10486000F4804FF000094FF0805748B9059838B1EF
:10487000502080F31188BFF34F8FBFF36F8FFEE797
:10488000FFF75AFBA56BC5B151462046FEF754FF12
:104890006D1EA563206950B104F1100000F01AFBF1
:1048A00028B1C8F80070BFF34F8FBFF36F8FFFF7C9
:1048B00063FB012006B0BDE8F087059808B11EB182
:1048C00006E0FFF759FB27E06846FFF733FC0126B7
:1048D000FFF752FBFFF7FCFCFFF72EFB94F94400B7
:1048E000401C01D184F8449094F94500401C01D14A
:1048F00084F84590FFF740FB05A9684600F056F99B
:10490000002820460AD0FFF7F5F900F01BFB2046EF
:10491000FFF784F80028B3D00020CBE7FFF77EF83C
:1049200090B104F124000599FFF712FC2046FFF72F
:10493000E1F900F007FB0028A2D1C8F80070BFF32E
:104940004F8FBFF36F8F9BE72046FFF7D3F900F03F
:10495000F9FA95E704ED00E02DE9F0479046894625
:10496000040003D0B9F1000F08D011E0502080F30B
:104970001188BFF34F8FBFF36F8FFEE7206C38B104
:10498000502080F31188BFF34F8FBFF36F8FFEE786
:10499000FFF74AFB5020EFF3118680F31188BFF335
:1049A0004F8FBFF36F8FA76BF7B194F9445049460F
:1049B0002046FEF7C1FE7F1EA763681C04D06D1C55
:1049C00084F84450012010E020690028FAD004F156
:1049D000100000F07FFA0028F4D0B8F1000FF1D0F9
:1049E0000121C8F80010EDE7002086F31188BDE82A
:1049F000F08700002DE9F343002683B0040035461C
:104A000009D0206C78B1502080F31188BFF34F8F0C
:104A1000BFF36F8FFEE7502080F31188BFF34F8FF5
:104A2000BFF36F8FFEE700F059F9DFF83C814FF0DC
:104A300000094FF0805748B9049838B1502080F3EE
:104A40001188BFF34F8FBFF36F8FFEE7FFF774FA44
:104A5000A06BC8B1401EA063206810B9FFF7EEF943
:104A6000A060206950B104F1100000F033FA28B1C1
:104A7000C8F80070BFF34F8FBFF36F8FFFF77CFA5A
:104A8000012005B0BDE8F083049808B166B10FE0DD
:104A90003DB1502080F31188BFF34F8FBFF36F8F6C
:104AA000FEE7FFF769FA5DE06846FFF743FB012682
:104AB000FFF762FAFFF70CFCFFF73EFA94F94400A7
:104AC000401C01D184F8449094F94500401C01D168
:104AD00084F84590FFF750FA04A9684600F066F89C
:104AE0000028204612D0FFF705F900F02BFA2046E7
:104AF000FEF794FF0028A9D09DB3FFF71DFA606A66
:104B000050B3206B0068C0F1380126E0FEF786FF45
:104B1000E0B1206838B9FFF70FFAA06800F09EF9FD
:104B20000546FFF729FA04F124000499FFF710FB6A
:104B30002046FFF7DFF800F005FA002886D1C8F814
:104B40000070BFF34F8FBFF36F8F7FE72046FFF7F3
:104B5000D1F800F0F7F979E70021A068FFF72CFB06
:104B60009FE7FFE700208CE704ED00E070B50D46FD
:104B7000040009D000F0ACF8A16888420CD1E068CC
:104B8000401CE060012070BD502080F31188BFF30D
:104B90004F8FBFF36F8FFEE729462046FFF72AFFAE
:104BA0000028F0D0E168491CE16070BD2DE9F041BA
:104BB0000C46050011D0C4B1FFF7BEF9174BDA68F7
:104BC0006E682068911B471C17D02F681B6A9F4294
:104BD00019D0964217D8012410E0502080F3118894
:104BE000BFF34F8FBFF36F8FFEE7502080F3118824
:104BF000BFF34F8FBFF36F8FFEE70024FFF7BCF9C1
:104C00002046BDE8F081884205D9401A2060284638
:104C1000FFF790FAF1E700202060DCE79800002021
:104C20002DE9FF5F8346DDE90E87994616468A46E1
:104C30009000FFF795F805001CD05C20FFF790F876
:104C4000040014D00020256384F85900CDE9024007
:104C5000CDE900874B46324651465846FEF744FEA2
:104C60002046FEF7D5FC012004B0BDE8F09F2846A1
:104C7000FFF796F94FF0FF30F6E7F0B585B0DDE9C4
:104C80000B640A9DA6B1DCB15C270097266302265F
:104C900084F85960002604AFCDE90246CDE90057FB
:104CA000FEF722FE2046FEF7B3FC049805B0F0BDE7
:104CB000502080F31188BFF34F8FBFF36F8FFEE753
:104CC000502080F31188BFF34F8FBFF36F8FFEE743
:104CD00001480068704700009800002005484169BD
:104CE00019B1006B18B100207047012070470220F5
:104CF00070470000980000200148C068704700001D
:104D00009800002010B5FFF78FF90148C06810BD6A
:104D1000980000202DE9F0412E4C0027206B28B18F
:104D2000A069401CA0613846BDE8F081E668761CA9
:104D3000E66013D1606B006838B1502080F31188B1
:104D4000BFF34F8FBFF36F8FFEE7606BA16B6163A3
:104D5000A063206A401C2062FEF74CFFA06ADFF8C7
:104D60007880864209D3606B0068A0B1606BC06830
:104D7000C5686868864211D2A0622068C06A00EBEC
:104D8000800158F82100012800D90127E069002896
:104D9000C9D00127C7E74FF0FF30EDE7281DFFF727
:104DA0006FF8A86A18B105F11800FFF769F8E86A0A
:104DB0002169884200D9206100EB800108EB810065
:104DC000291DFFF7ADF8E86A2168C96A8842CAD38D
:104DD0000127C8E7980000206012002070B5040089
:104DE0004FF0000133D01B4D2868844207D050207B
:104DF00080F31188BFF34F8FBFF36F8FFEE7206DF5
:104E000038B1401E2065E36CE26A9A421FD040B17F
:104E10001DE0502080F31188BFF34F8FBFF36F8FD9
:104E2000FEE7201DFFF72CF8E06CE062C0F13800CF
:104E3000A061E06A2969884200D92861064900EB2F
:104E4000800001EB8000211DFFF76AF80121084670
:104E500070BD0000980000206012002070B50400B2
:104E60004FF000002BD0194DE16A2A68D26A9142B6
:104E700026D2A069002804DB2868C06AC0F1380087
:104E8000A061134E01EB8101606906EB810188424C
:104E900011D1201DFEF7F4FF2868C06AE06229697D
:104EA000884200D9286100EB800006EB8000211DBC
:104EB000FFF736F802E02868C06AE062012070BDA2
:104EC000E16C2A68D26A9142F8D370BD9800002044
:104ED0006012002070B5C068C46854B104F11800B5
:104EE0000646FEF7CDFF144D286B50B131461348EE
:104EF00015E0502080F31188BFF34F8FBFF36F8F01
:104F0000FEE7201DFEF7BCFFE06A2969884200D950
:104F100028610B4900EB800001EB8000211DFEF7AA
:104F2000FFFFE06A2968C96A884202D90120E86166
:104F300070BD002070BD000098000020E816002021
:104F4000601200202DE9F0472C4D00242746286BE5
:104F500038B1FEF7F1FF286B401E2863286B40B183
:104F600046E0502080F31188BFF34F8FBFF36F8F5F
:104F7000FEE7A968224E0120D1B3A6F591698046CB
:104F80003068E0B1F068C46804F11800FEF778FFFB
:104F9000201DFEF775FFE06A2969884200D9286163
:104FA00000EB800109EB8100211DFEF7B9FFE06AEB
:104FB0002968C96A8842E3D3C5F81C80E0E70CB1D0
:104FC000FEF718FEAC694CB14FEA0806FFF7A2FEE7
:104FD00000B1EE61641EF9D10020A861E86938B122
:104FE0000849012738070860BFF34F8FBFF36F8F61
:104FF000FEF7C2FF3846BDE8F087000098000020A9
:10500000E816002004ED00E010B586B0FEF768FB5E
:10501000114C2068B8B100200390049005AA04A99F
:1050200003A8FEF74BFFDDE9032102208DE807000E
:1050300000230AA10B48059AFFF71FFE606010B11C
:1050400006B0012010BD502080F31188BFF34F8FB0
:10505000BFF36F8FFEE70000D4000020546D722074
:1050600053766300D13C00082DE9FF411E461346EC
:1050700002000A9D4FF0000016D0144C2768002F44
:105080000FD0CDE900130292062917DAFFF726FEAA
:1050900002284FF000030FD0002269462068FFF776
:1050A00091FA04B0BDE8F081502080F31188BFF37D
:1050B0004F8FBFF36F8FFEE72A46EEE7002332469D
:1050C00069463846FFF72EFBEBE70000D4000020CE
:1050D0004FF04070E1EE100A70470000003C64425F
:1050E0004242424242462C18000000000008187854
:1050F000581818181818181800000000003C6642CC
:1051000006040C0810207E7E00000000003C664271
:10511000060C0C06024264180000000000040C1C7F
:1051200014246444FF04040400000000003E6040B6
:10513000507C460202C66C380000000000081810BF
:10514000307C62434342663C00000000007E020661
:10515000040C08181010303000000000003C4642DB
:10516000467C7C42C242663C00000000003C46C2D5
:10517000C2C66C3C081810300000001224244800FD
:1051800000000000000000000000000000101018E7
:105190002828243C444242E70000000000F8444430
:1051A00044784442424244F800000000003E42423B
:1051B00080808080804244380000000000F8444233
:1051C00042424242424244F80000000000FC424891
:1051D00048784848404242FC0000000000FC424839
:1051E00048784848404040E000000000003C44440B
:1051F0008080808E844444380000000000E74242F2
:1052000042427E42424242E700000000007C101011
:10521000101010101010107C00000000003E080854
:10522000080808080808080888F0000000EE44484C
:1052300050705048484444EE0000000000E04040F8
:1052400040404040404042FE0000000000EE6C6CD8
:105250006C6C6C54545454D60000000000C7626259
:1052600052524A4A4A4646E2000000000038448250
:1052700082828282828244380000000000FC424226
:1052800042427C40404040E0000000000038448240
:105290008282828282B24C380600000000FC4242C8
:1052A000427C4848444442E300000000003E424241
:1052B000402018040242427C0000000000FE9210D0
:1052C00010101010101010380000000000E74242CB
:1052D000424242424242423C0000000000E7424259
:1052E00044242428281810100000000000D654542C
:1052F0005454546C282828280000000000E7422459
:1053000024181818242442E70000000000EE44444A
:10531000282810101010103800000000007E8404AF
:1053200008081020204242FC00000000003C4242DD
:1053300042424242423C000000000000007C4242E7
:1053400042424242423C000000000000003C424019
:1053500040404042423C000000000000003C42420D
:1053600042424242427C000000000000003C4240B9
:10537000407C4040423C000000000000003C4240B5
:10538000407C40404040000000000000003C4240A3
:10539000404E4242423C00000000000000424242B7
:1053A000427E42424242000000000000003C1818C9
:1053B00018181818183C000000000000003C0404F5
:1053C0000404044444380000000000000042444843
:1053D000704844424242000000000000004040404B
:1053E00040404040407E0000000000000042665AFD
:1053F0005A42424242420000000000000042625213
:105400004A4642424242000000000000003C424244
:1054100042424242423C000000000000007C424206
:105420007C4040404040000000000000003C424200
:1054300042424A443A02000000000000007C42421E
:105440007C4844424242000000000000003C4240D0
:105450003C0202423C00000000000000007E1818E0
:1054600018181818181800000000000000424242E6
:1054700042424242423C00000000000000424242E0
:10548000424224241818000000000000004242425A
:105490005A5A5A24242400000000000000424224EA
:1054A000181824424242000000000000004242243A
:1054B000181818181818000000000000007E0204D8
:1054C000081020407E0000000000000000000000E6
:1054D000000000000000000000000000001818009C
:1054E000000000000018180000000000000000008C
:1054F000007E7E00000000000000000000626408E2
:10550000081010202646000000000000B4560008D5
:10551000000000000000000000000000AC56000881
:10552000000000000000000000000000000000007B
:10553000000400000800000000000000000000005F
:105540008C56000800000000000000000000000071
:10555000000000000008000018000000000000002B
:10556000000000008056000800000000000000005D
:10557000000000000000000000080000080000001B
:105580000000000000000000945600080000000029
:1055900000000000000000000000000000100000FB
:1055A000080000000000000000000000A0560008F5
:1055B00000000000000000000000000000000000EB
:1055C00000100000080000000000000000000000C3
:1055D00078560008000000000000000000000000F5
:1055E00000000000000000000000000000000000BB
:1055F0000102030406070809000000000102030479
:1056000041542B48545450434745543D22687474C8
:1056100070733A2F2F6170692E73656E69766572AB
:1056200073652E636F6D2F76332F776561746865B0
:10563000722F6E6F772E6A736F6E3F6B65793D5375
:105640007753434F564E33756F484C4D735A4F47FF
:10565000266C6F636174696F6E3D6265696A696E1D
:1056600067266C616E67756167653D656E26756E50
:1056700069743D63220D0A00756951756575650091
:1056800054696D655461736B000000005569546185
:10569000736B00004E6574776F726B5461736B00AF
:1056A000576561746865725461736B004B6579541A
:1056B00061736B006573704D757465780000000050
:1056C000E05600080000002018010000C401000896
:1056D000F857000818010020407A0000E001000897
:1056E00000000000000000000000000000000000BA
:1056F00000000000000000000000000000000000AA
:1057000030303A30303A3030000000000000000005
:10571000323032362D30372D30320000000000009C
:10572000000000004265696A696E670000000000C1
:1057300000000000000000002D2D0000000000000F
:105740000000000000000000000000002D2D4300BC
:1057500000000000000000002D2D250000000000CA
:105760000000000000000000010000001000000028
:10577000000000000024F400000000000000000011
:105780000000000000000000000000000000000019
:105790000000000000000000000000000000000009
:1057A00000000000000000000000000000000000F9
:1057B00000000000000000000000000000000000E9
:1057C00000000000000000000000000000000000D9
:1057D00000000000000000000000000000000000C9
:1057E00000000000000000000000000000000000B9
:0857F000AAAAAAAA0000000009
:040000050800018965
:00000001FF
