:020000040800F2
:10000000308D002049030008CB3200084130000841
:10001000C9320008731500087D4100080000000087
:10002000000000000000000000000000890200083D
:100030009515000800000000E5020008513800088E
:1000400063030008630300086303000863030008F8
:1000500063030008630300086303000863030008E8
:1000600063030008630300086303000863030008D8
:1000700063030008630300086303000863030008C8
:1000800063030008630300086303000863030008B8
:1000900063030008630300086303000863030008A8
:1000A0006303000863030008630300086303000898
:1000B0006303000863030008630300086303000888
:1000C0006303000863030008630300086303000878
:1000D0006303000863030008630300086303000868
:1000E0006303000863030008630300086303000858
:1000F0006303000863030008630300086303000848
:100100006303000863030008630300086303000837
:10011000630300086303000819390008630300083B
:100120006303000863030008630300086303000817
:100130006303000863030008630300086303000807
:1001400063030008630300086303000863030008F7
:1001500063030008630300086303000863030008E7
:1001600063030008630300086303000863030008D7
:100170006303000863030008630300080000000035
:10018000630300086303000800F002F800F06DF854
:100190000AA090E8000C82448344AAF10107DA45E2
:1001A00001D100F062F8AFF2090EBAE80F0013F0C7
:1001B000010F18BFFB1A43F001031847C86D000078
:1001C000E86D00000A444FF0000C10F8013B13F0FA
:1001D000070408BF10F8014B1D1108BF10F8015BA0
:1001E000641E05D010F8016B641E01F8016BF9D193
:1001F00013F0080F1EBF10F8014BAD1C0C1B09D1EA
:100200006D1E58BF01F801CBFAD505E014F8016B5B
:1002100001F8016B6D1EF9D59142D6D370470000ED
:100220000023002400250026103A28BF78C1FBD8FF
:10023000520728BF30C148BF0B607047642900F0E7
:100240008581732900F09185002070471FB506F065
:100250000FFB00F0D3FF04000020002106F0F2FAAB
:10026000401C60601FBD10B510BD00F08BFF114633
:10027000FFF7ECFF04F0BBFB00F0B2FF03B4FFF7A5
:10028000F2FF03BC00F0BEFF2C4B19680868B0E811
:10029000F04F80F30988BFF36F8F4FF0000080F3B9
:1002A000118870470000000008480068006880F36B
:1002B00008884FF0000080F3148862B661B6BFF37F
:1002C0004F8FBFF36F8F00DF00BF00BF08ED00E06E
:1002D000DFF80C00016841F470010160704700BF55
:1002E00088ED00E0EFF30980BFF36F8F134B1A68BE
:1002F0001EF0100F08BF20ED108A20E9F04F1060AB
:1003000009B44FF0500080F31188BFF34F8FBFF353
:100310006F8F05F0A7FB4FF0000080F3118809BC38
:1003200019680868B0E8F04F1EF0100F08BFB0EC75
:10033000108A80F30988BFF36F8F70477002002026
:10034000EFF30580704700000948804709480047DF
:10035000FEE7FEE7FEE7FEE7FEE7FEE7FEE7FEE775
:10036000FEE7FEE704480549054A064B70470000D2
:100370000939000889010008306D0020308D002007
:10038000307D0020307D002053EA020C00F06980AF
:100390002DE9F04B4FF00006002B1FBFB3FA83F599
:1003A00003FA05F424FA05F65E4012BF1643B2FACA
:1003B00082F502FA05F4C5F120051EBF22FA05FCFC
:1003C00044EA0C04203556EA044C4FEA144418BFA2
:1003D000641C4FF000084FF00009904271EB030CD1
:1003E00039D3002919BFB1FA81F701FA07F6B0FA3B
:1003F00080F700FA07F6C7F120071EBF20FA07FCB6
:1004000046EA0C062037B6FBF4FCA7EB0507103FC5
:1004100007F01F0BCBF120060CFA0BFB2CFA06F6AB
:1004200044BFB3460026202FA4BF5E464FF0000B0A
:100430005BEA060C08BF4FF0010B19EB0B09ABFB95
:10044000027C48EB0608C01B06FB02CC0BFB03CC6E
:1004500071EB0C01C1E70B46024641464846BDE838
:10046000F08B13B54FF000004FF00001AFF30080A8
:10047000BDE81C40704700000FB41CB50C0007AA73
:10048000009001D02044401E074B7B4469460190F8
:10049000069800F038FC002C03D06946002000F0DC
:1004A00045FC1CBC5DF814FBA908000070B50446AF
:1004B00085690068C10601D5302600E02026C00706
:1004C00007D070BDD4E9012130469047206A401C16
:1004D00020626D1EF6D570BD70B504468569007842
:1004E000C00707D170BDD4E9012120209047206AC0
:1004F000401C20626D1EF6D570BD70B50C460546D9
:10050000012A05D02878800600D5EA69002302E098
:10051000012305E05B1C934202D2E05C0028F9D184
:10052000A869E618C01AA861286A184428622846F3
:10053000FFF7BCFF04E0D5E9012114F8010B904757
:10054000B442F8D32846FFF7C7FF70BD2DE9F0414C
:100550000646002410687529314616A510D0AFF361
:100560000080002802DA404213A507E031688A07BC
:1005700001D512A502E0490704D511A5012401E027
:10058000AFF3008000210A2206F1240709E0B0FB46
:10059000F2FCB0FBF2F302FB1C003030785418463A
:1005A000491C0028F3D123462A463046BDE8F041D5
:1005B00000F04BBB000000002D0000002B000000ED
:1005C000200000002DE9F05F894604464FF0000A44
:1005D000DFF824B1FB44C0F820A02046E16888473A
:1005E00000287DD0252806D0D4E901219047206A33
:1005F000401C2062F1E700255F462046E1688847FD
:100600002028064607DB312E05D2B81910F8200C39
:1006100008B10543F1E7A80701D525F00405C4F8A2
:100620001CA00027C4F818A02A2E09D0304604F0D8
:10063000D7F938B304EB8708303EC8F8186019E0E2
:1006400059F8041B204604EB87029161E168884752
:10065000012F064618D1E069002820DA25F0200590
:100660001DE0D8F8180000EB800006EB40003038A1
:10067000C8F818002046E1688847064604F0B0F93B
:100680000028EED1012F0AD02E2E08D12046E16895
:1006900088477F1C0646022F45F02005C4DBA06971
:1006A000002803DA404245F00105A061E80701D0C7
:1006B00025F01005A6B1A6F14100192802D8203670
:1006C00045F400654A463146204625604D46FFF711
:1006D000B5FD60B1012807D0ED1D25F0070000E051
:1006E00007E000F1080978E705F1040975E73046ED
:1006F0007AE7206ABDE8F09FB46700000FB400B548
:100700008DB010A9099000910B904FF0FF300A9026
:1007100000200C90064878440690064878446A46C3
:1007200007900F9909A800F039FB0DB05DF814FB94
:10073000A3060000BB0600002DE9FF5F1D464FF039
:10074000FF3B91464FF000085F46D5E90146A96995
:1007500001987F1C8847296A824688470028F6D17D
:10076000BAF1FF3F0CD0002E24F4C06419DD6006FE
:1007700014D5BAF12B0F09D0BAF12D0F0ED103E029
:10078000584604B0BDE8F09F44F48064A96901981C
:100790007F1C8847761E8246002E02DDBAF1300F9C
:1007A00003D0B9F1000F26D032E0A969761E019876
:1007B0007F1C44F400748847002E824605DDBAF1A0
:1007C000780F06D0BAF1580F03D0B9F1000F10D04E
:1007D0001EE0B9F1000F02D0B9F1100F18D1A969CC
:1007E000761E01987F1C24F40074884782461020EE
:1007F00002E0082000E00A20814609E0A96908FB20
:100800000908761E01987F1C44F4007488478246CC
:10081000002E05DD4946504600F0ABFA0028EDDA1F
:10082000E96901988847A00502D46FF00100A8E7A4
:10083000E00725D1600613D5600502D5C8F1000098
:1008400000E0404629680A1D2A600968220501D592
:10085000087015E0220701D5088011E008600FE05C
:100860002868011D29600068210502D580F80080F4
:1008700006E0210702D5A0F8008001E0C0F8008062
:1008800038467EE72DE9FF5F4FF000089946144691
:1008900046469169D2E901A7DDF838B0019888474A
:1008A000054659EA0B0005D009E0A1690198761CBC
:1008B00088470546216A284688470028F5D1681CE4
:1008C00003D05FEACA7005D015E04FF0FF3004B0E6
:1008D000BDE8F09F2068011D2160D0F800800AE08B
:1008E0005FEACA7001D108F8015BA169761C019822
:1008F0007F1E88470546002F1ADD681C18D0B9F105
:10090000000F0DD0E81705EBD060421120F01F005A
:1009100059F822102A1A012090400142E0D107E044
:10092000BBF1000FDCD12846216A88470028D7D0C8
:10093000E16901988847BBF1000F07D1002E05DD62
:100940005FEACA7002D1002188F80010A068B8429E
:1009500003DDBBF1000F03D017B16FF00100B6E764
:100960003046B4E7401ECAB210F8011F8A4202D0D6
:100970000029F9D10020704730B505460B462A46BC
:1009800013F8014B12F8010B08B1A042F8D01CB1CA
:10099000002802D06D1CF1E7284630BD40EA010373
:1009A00010B59B070FD1042A0DD310C808C9121F18
:1009B0009C42F8D020BA19BA884201D9012010BD52
:1009C0004FF0FF3010BD1AB1D30703D0521C07E01F
:1009D000002010BD10F8013B11F8014B1B1B07D183
:1009E00010F8013B11F8014B1B1B01D1921EF1D1F4
:1009F000184610BD10B5431C02E010F8011B71B180
:100A00008107FAD14FF0013202C88C1A8C4314EAE4
:100A1000C211F9D0C01A0A0603D0C01E10BDC01AF8
:100A200010BD0A0401D0801E10BD0902FCD0401E7A
:100A300010BD032A40F2308010F0030C00F0158046
:100A400011F8013BBCF1020F624498BF11F801CBD1
:100A500000F8013B38BF11F8013BA2F1040298BF36
:100A600000F801CB38BF00F8013B11F0030300F0A0
:100A70002580083AC0F0088051F8043B083A51F844
:100A800004CBA0E80810F5E7121D5CBF51F8043B49
:100A900040F8043BAFF30080D20724BF11F8013BBC
:100AA00011F801CB48BF11F8012B24BF00F8013B1E
:100AB00000F801CB48BF00F8012B704710B5203A71
:100AC000C0F00B80B1E81850203AA0E81850B1E807
:100AD0001850A0E81850BFF4F5AF5FEA027C24BFBD
:100AE000B1E81850A0E8185044BF18C918C0BDE8B4
:100AF00010405FEA827C24BF51F8043B40F8043B7D
:100B000008BF7047D20728BF31F8023B48BF11F831
:100B1000012B28BF20F8023B48BF00F8012B70478B
:100B200002F0FF0343EA032242EA024200F002B865
:100B30004FF000020429C0F0128010F0030C00F006
:100B40001B80CCF1040CBCF1020F18BF00F8012B84
:100B5000A8BF20F8022BA1EB0C0100F00DB85FEA52
:100B6000C17C24BF00F8012B00F8012B48BF00F81E
:100B7000012B70474FF0000200B51346944696468D
:100B8000203922BFA0E80C50A0E80C50B1F12001A0
:100B9000BFF4F7AF090728BFA0E80C5048BF0CC04E
:100BA0005DF804EB890028BF40F8042B08BF7047AC
:100BB00048BF20F8022B11F0804F18BF00F8012B1E
:100BC000704700004FF0013C50F8042B51F8043BF3
:100BD0009A4221D1A2EB0C03934313EACC1317D111
:100BE00050F8042B51F8043B9A4215D1A2EB0C03A8
:100BF000934313EACC130BD150F8042B51F8043B68
:100C00009A4209D1A2EB0C03934313EACC13DBD035
:100C10004FF00000704700BFD01A01BAB1FA81F15D
:100C200001F0180122FA01F0CB40C1F12001DBB242
:100C3000C0B2C01A2CFA01F3D11A914311EAC311C0
:100C4000E6D170477047704770472DE9F0470D4671
:100C500099469246044600F124080168880604D5A6
:100C6000E06921F01001216000E00120A84201DDCF
:100C7000471B00E00027A1697A1902EB0900081A56
:100C8000A0612078C00602D42046FFF70FFC0026A2
:100C900008E0D4E901211AF806009047206A401CB8
:100CA000761C20624E45F4DB2078C0060AD520462B
:100CB000FFF7FCFB06E0D4E9012130209047206AD1
:100CC000401C2062381EA7F10107F4DC07E0D4E9DC
:100CD000012118F805009047206A401C2062281E58
:100CE000A5F10105F3DC2046FFF7F6FB20780006AE
:100CF00002D50220BDE8F0870120FBE701694A1C0C
:100D000002610878704700B58FB0CDE9013100214C
:100D1000059105497944CDE9031011466846FFF76E
:100D200051FC0FB000BD0000E5FFFFFF0A6802F8AC
:100D3000010B0A607047D1E900239A4202D2531C8A
:100D40000B601070704710B5436913B1AFF30080AA
:100D500001E0FFF7D2FB012010BD127800F1240161
:100D60000A7000224A700122EDE711684FF0FF324D
:100D7000E9E73A2800D2303820F02002412A01D396
:100D8000A2F13700884201D34FF0FF3070470000D6
:100D9000026811441378016018467047D160054914
:100DA000794451610449794411620021116111466D
:100DB00000F02EB8EDFFFFFF53000000426842B183
:100DC000016811F8013B23B1521EC0E90012184618
:100DD00070470121C160881E704742685AB1C368DC
:100DE000016843B983688B4205D0491E521CC0E993
:100DF0000012002070474FF0FF30704710B50446D6
:100E000000F0E6F90068005D00F0010010BD000090
:100E10002DE9F34F4FF0000A0C4656468DB00120E5
:100E20000C9001F10C000B9062690B980121904726
:100E3000051E2DD0252D2CD0216A8847C0B16269AE
:100E40000B9801219047216A88470028F7D16269F1
:100E5000411E0B98904700E0761CA1690D988847C9
:100E6000216A88470028F7D1E1690D988847DBE7B8
:100E7000A1690D988847A842074601D1761CD3E79F
:100E8000E1690D9888477F1C02D1BAF1000F6FD03D
:100E90006BE162690B9800273D46394690472A2846
:100EA00004D162690B98012190470125DFF8D082B7
:100EB00062690B9801219047A0F130010A290AD2FA
:100EC0004745E5DC07EB870100EB4107303FDFD406
:100ED00045F01005ECE7E90601D46FF000476C28F7
:100EE0000AD04C2814D0682815D06A280DD0742850
:100EF0001CD07A281AD01DE062690B980121904716
:100F00006C2802D045F0040514E045F002050DE020
:100F100045F020050AE062690B9801219047682896
:100F200002D045F0080505E045F4006562690B98BC
:100F300001219047C4E9015765283DD019DC5828A4
:100F40007AD00CDC452837D004DC252826D041286F
:100F50009ED131E046282FD0472899D12CE05B283C
:100F600077D0612828D063287CD0642823D15AE028
:100F7000F6E06F2848D008DC66281DD067281BD013
:100F8000692821D06E2816D127E0702845D0732813
:100F900068D0752847D078280DD14DE0A1690D980B
:100FA0008847252805463FF469AFE1690D988847D1
:100FB0006D1C3FF46AAFD8E00D9923466A466FF086
:100FC0000100AFF30080C5E045F0400023464FF03C
:100FD00000026060A80736D43EE0E8077FF447AF20
:100FE0002068011D21600068290501D506701BE7F6
:100FF000290701D5068017E7A90703D5F117C0E92E
:10100000006111E706600FE745F0400023464FF00E
:1010100008026060A80716D41EE040F60E0125EA1B
:101020000100606016E045F0400023464FF00A02E0
:101030006060A80707D40FE045F040006060A80793
:1010400008D5234610220D996FF00100AFF3008000
:1010500080E007E0102223460D996FF00100FFF7B2
:101060006BFB77E04FF0000963284F46C8464B46BC
:10107000CB4602D05B2806D038E0E80601D4012038
:10108000A060012732E06269D4F80CB00B9801210E
:1010900090475E2807D14FF0010949466269D4F8AC
:1010A0000CB00B989047216939B900210A4603AB6F
:1010B00043F82120491C0829FADBD8B3216949B338
:1010C00008F1010862690B98012190475D28F4D16D
:1010D000B9F1000F09D0002003A951F82020D24314
:1010E00041F82020401C0828F7DB03AB20690028CA
:1010F00020794FEA40701ED05B462246CDF8008032
:10110000CDE901970D9900286FF0010020DAAFF3C7
:1011100000801FE0C11703AA00EBD1614B1121F041
:101120001F0102EB8302411A136801208840034328
:101130001360C7E719E00D99224600286FF00100FF
:10114000009702DAAFF3008004E0FFF79BFB01E0B9
:10115000AFF3008000280ADA401C06D10C9820B1B9
:101160004FF0FF300FB0BDE8F08F5046FAE7E907C7
:1011700001D10AF1010A064400200C9054E6000057
:10118000CCCCCC0C754600F035F8AE46050069466F
:10119000534620F00700854618B020B5FFF7E2F867
:1011A000BDE820404FF000064FF000074FF0000868
:1011B0004FF0000B21F00701AC46ACE8C009ACE8E9
:1011C000C009ACE8C009ACE8C0098D467047000012
:1011D00010B500F013F8001D10BD00BF69560000E7
:1011E00010B50446AFF300802046BDE81040FFF77D
:1011F00045B8000000487047CC6C0020004870479C
:10120000EC6C002001491820ABBEFEE7260002006E
:10121000704700000149002048707047140000200A
:1012200010B503F0BDF9034900200870BDE8104077
:1012300002F0D8BC14000020154A082811781FD2EB
:10124000DFE800F01E0804110F1B1F1B491C01F0F2
:10125000030004E011B1491E117017E00320107063
:1012600014E00020FBE719B1012901D002290DD1BA
:1012700001205070062000F051B939B1032905D082
:10128000704719B1012901D00229F7D102F0AABC97
:101290001400002010B5044803F0B3FC03490028F3
:1012A000886000D0012010BD546D0008140000209B
:1012B00001484078704700001400002010B5044633
:1012C0004FF0FF3002F0CCFE00280AD00CB1012014
:1012D00000E00020034981F80702BDE8104002F059
:1012E00043BF10BD2000002010B504464FF0FF3072
:1012F00002F0B6FE00280AD00CB1012000E0002068
:10130000034981F80602BDE8104002F02DBF10BD70
:101310002000002010B504464FF0FF3002F0A0FE80
:10132000002814D00A491CB1012081F805020AE006
:10133000002081F8050281F8060281F8070281F891
:10134000080281F80902BDE8104002F00DBF10BD8F
:101350002000002010B504464FF0FF3002F080FE60
:1013600000280AD00CB1012000E00020034981F8D8
:101370000B02BDE8104002F0F7BE10BD20000020B7
:1013800010B504464FF0FF3002F06AFE00280AD084
:101390000CB1012000E00020034981F80902BDE8FA
:1013A000104002F0E1BE10BD2000002010B5044640
:1013B0004FF0FF3002F054FE00280AD00CB101209B
:1013C00000E00020034981F80802BDE8104002F067
:1013D000CBBE10BD2000002010B504464FF0FF30FA
:1013E00002F03EFE00280AD00CB1012000E00020EF
:1013F000034981F80A02BDE8104002F0B5BE10BDF5
:101400002000002070B505460C464FF0FF3002F07A
:1014100027FE00280ED02A461021074802F0D2FBF2
:10142000054822461421103002F0CCFBBDE8704084
:1014300002F09ABE70BD00002000002010B504002C
:1014400016D04FF0FF3002F00BFE60B14FF4AE72D9
:1014500021460848FFF7EDFA06490120A93981F82D
:10146000090202F081FEBDE81040062000F056B8E7
:1014700010BD0000C900002010B504004BD04FF093
:10148000FF3002F0EDFD98B322461821224802F009
:1014900099FB214804F118021821183002F092FB40
:1014A0001D4804F130020C21303002F08BFB1A4849
:1014B00004F13C020C213C3002F084FB164804F19C
:1014C00048021821483002F07DFB134804F1600205
:1014D0000C21603002F076FB0F4804F16C021821F9
:1014E0006C3002F06FFB94F8840010B1012101E030
:1014F0000CE000210848243880F8A81094F88410E3
:1015000001B1012180F8081202F02EFEBDE8104062
:10151000062000F003B810BD4400002001B50548C6
:101520004068002804D000231A46694603F00CFBEB
:1015300008BD000014000020014948607047000009
:101540001400002070B50D46060014460DD064B19D
:101550001046FFF74FFA020007D0954205D37019E5
:10156000801A2146FFF71AFA08B1002070BD012049
:1015700070BDFEE7002807D0002905D002B903A2FC
:10158000134603A2FEF778BF70470000000000007A
:10159000257300007047000010B54FF47A6000F02A
:1015A000A5F9002811D040F6B83208A108A000F033
:1015B00077FA30B109A10B48FFF7DEF908B1012431
:1015C00000E0002400F08CFA204610BD4F4B0000D4
:1015D00041542B43574A41503F0D0A002B43574A71
:1015E00041503A00F002002010B5044803F009FB16
:1015F00003490028086000D0012010BD646D000878
:101600002C02002030B5A9B0002446F2A81000F04A
:101610006DF9002851D04FF47A752A4628A129A0E7
:1016200000F03EFA002845D02A4625A127A000F068
:1016300037FA2A4622A127A000F032FA002839D032
:101640002A461FA127A000F02BFA40F6B8352A46FB
:101650001BA128A000F024FA78B129A12A48FFF79D
:101660008BF950B12A4616A128A000F019FA20B132
:1016700029A12548FFF780F9C8B929A000902BA31C
:101680002CA2A02101A8FEF7F7FE44F620620CA1CF
:1016900001A800F005FA68B12A4609A11BA000F0D4
:1016A000FFF930B11CA11848FFF766F908B1012411
:1016B00000E0002400F014FA204629B030BD0000FC
:1016C0004F4B000041540D0A0000000041544530CA
:1016D0000D0A000041542B43574D4F44453D310DF9
:1016E0000A00000041542B4349504D55583D300DE0
:1016F0000A00000041542B43574A41503F0D0A0055
:101700002B43574A41503A00F002002041542B43EA
:10171000494653520D0A00005354414950000000FD
:101720003835323931313533000000006B65656C76
:101730006564000041542B43574A41503D222573B4
:10174000222C222573220D0A0000000030B5A7B01C
:101750000546982215496846FFF7B0F90024EDB117
:101760004FF4FA4000F0C2F8002818D047F2305287
:101770000FA1684600F094F9A0B10FA11148FFF73E
:10178000FBF878B110A10F48FFF7F6F850B12946E1
:101790000C4802F0F5FC20B1012403E0002027B042
:1017A00030BD022400F09CF92046F8E7286E0008BE
:1017B0000D0A4F4B0D0A000022726573756C74732D
:1017C00022000000F0020020226461696C7922008E
:1017D00030B5A3B00546882214496846FFF76EF974
:1017E000002405B34FF4FA4000F080F8002818D028
:1017F00047F230520EA1684600F052F970B10EA1C6
:101800001048FFF7B9F848B10FA10E48FFF7B4F838
:1018100020B129460B4802F0ABFD044600F060F908
:10182000204623B030BD0020FBE70000C06E00085A
:101830000D0A4F4B0D0A000022726573756C7473AC
:1018400022000000F0020020226E6F7722000000CC
:101850002DE9F04387B00F4606004FF000052AD06F
:101860004FB344F6206000F041F8002824D040F641
:10187000B83216A1164800F013F918B300244FF43B
:10188000FA6841F28839404603F0C4F84A460FA18D
:1018900010A000F005F990B16A4605A9124800F0C1
:1018A00035F860B105983060142269463846FFF774
:1018B00005F9012506E0002007B0BDE8F083641CAF
:1018C000052CE0DB00F00CF92846F5E74F4B000053
:1018D000E06D000841542B434950534E5450544935
:1018E0004D453F0D0A000000F00200200146064869
:1018F00010B50068002803D003F05AF908B10020A1
:1019000010BD012010BD00002C0200202DE9F04187
:101910008AB015460E4648B346B33DB33A21FFF7A9
:1019200021F8002841D000BF10F8011F2029FBD06A
:1019300009AC08AB07AA06A98DE81E0005AB04AAEE
:1019400027A1FEF7DBFE06282ED10027DFF8A880AE
:101950008DF813703C4600BF58F8241004A8FFF718
:1019600031F904F1010410B10C2CF5DB1CE0DCB101
:101970000998B0F5FA6F17DB40F63301884213DCA3
:101980000598012810DB1F280EDC069800280BDBC9
:10199000172809DC0798002806DB3B2804DC089898
:1019A000002801DB3B2803DD00200AB0BDE8F08100
:1019B000376014212846FFF7DDF80998A0F5FA6092
:1019C000F07074700598B07001203070069828701F
:1019D000079868700898A870EF6001202F61E4E70D
:1019E000252A3373202533732025642025643A2566
:1019F000643A25642025640030020020F8B50646CC
:101A00000F461E48FEF7F6FF84B200F0E9F90546DE
:101A10002DE0142301226946194801F069FA30BB10
:101A200041F6FF70844207D214489DF8001001551A
:101A3000641CA4B2002101553EB1324621460F4834
:101A4000FFF780FD08B10120F8BD0EA221460B482A
:101A5000FFF778FD80B90DA221460848FFF772FD17
:101A600050B90CA221460548FFF76CFD20B900F0E3
:101A7000B7F9401BB842CCD30020F8BDF0020020DB
:101A8000682300204552524F520D0A004641494CEE
:101A90000D0A00006275737920702E2E2E0D0A003B
:101AA00070B50E46044615464FF400510A48FFF73C
:101AB0003FF82046FEF79EFF82B24FF47A7321462C
:101AC000064801F06DFA08B1002070BD2946304685
:101AD000BDE87040FFF792BFF002002068230020AD
:101AE00003480068002801D003F0BFB87047000029
:101AF0002C02002072B6FEE72DE9F0411E46069D3D
:101B000090460F4610B30FB3B8F1000F1ED0EEB1E0
:101B1000E5B13946FEF730FF040017D03846FEF72E
:101B200069FF071941463846FEF726FF00280BD00B
:101B3000C41BAC4200D36C1E224639463046FEF729
:101B400078FF002030550120BDE8F0810020FBE740
:101B50002DE9F0479946DDE9087590460C46D0B16D
:101B6000CCB1B8F1000F16D0B9F1000F13D097B176
:101B70008DB14146FEF700FF06000CD0A6420AD206
:101B80004046FEF737FF064449463046FEF7F4FE6E
:101B900008B1A04202D90020BDE8F087841BAC4206
:101BA00000D36C1E224631463846FEF742FF002025
:101BB00038550120F0E7000070B5044600F010F938
:101BC0000546601C02D004480078044400F008F97F
:101BD000401BA042FAD370BD600200202DE9F84FEF
:101BE000DFF8BCA10022012503264FF00F090AF1FE
:101BF000040BAAF1040E00BF0B6805FA02F423409F
:101C0000A34270D10F7907F00307012F01D0022FF3
:101C100016D187684FEA420806FA08FC27EA0C0743
:101C2000D1F80CC00CFA08FC4CEA070CC0F808C04C
:101C30004768A7430C79C4F3001494403C434460C4
:101C40000C79E443A4070AD0C4684FEA420C06FAB0
:101C50000CF7BC438F6807FA0CF72743C7600C7971
:101C600004F00304022C12D1D40800EB840CDCF83D
:101C700020405707FF0E09FA07F824EA0804D1F8B4
:101C8000108008FA07F848EA0408CCF820800468B5
:101C90004FEA420C06FA0CF7BC430F7907F0030732
:101CA00007FA0CF7274307604C6814F4403F70D0E4
:101CB0003C4C276847F480472760246822F00307DC
:101CC00004F480440094384C07EB040CDCF808481A
:101CD00097074FEA177809FA08F7BC43334FB84221
:101CE00002D1002724E054E0314FB84201D101274E
:101CF0001EE0304FB84201D1022719E02E4FB84202
:101D000001D1032714E02D4FB84201D104270FE081
:101D10002B4FB84201D105270AE02A4FB84201D122
:101D2000062705E0284FB84201D1072700E0082721
:101D300007FA08F72743CCF80878DAF80040574646
:101D4000D1F804C09C435FEACC2C00D51C433C6016
:101D5000DBF800405F46D1F804C09C435FEA8C2C5E
:101D600000D51C433C60DEF800407746D1F804C043
:101D70009C435FEA8C3C00D51C433C60084F083F05
:101D80003C68D1F804C09C435FEACC3C00D51C43BE
:101D90003C60521C102AFFF42FAFBDE8F88F000002
:101DA000083C01404438024000300140000002403D
:101DB0000004024000080240000C024000100240F3
:101DC0000014024000180240001C02400069084054
:101DD00000D0012070470AB1816170470904FBE718
:101DE0000148806870470000600200200248816856
:101DF0000278114481607047600200200B4810B5E2
:101E0000016841F400710160016841F48061016082
:101E1000016841F480710160032000F09FF80F20F9
:101E200000F006F800F050F8002010BD003C024021
:101E300030B505461F4887B00024016841F0100105
:101E40000160006806A900F01000009001A800F0F1
:101E5000DBF90498A8B100F0F7F940001649174AD9
:101E6000B0FBF1F11648491E026040F2E732C0E9CA
:101E70000324C0E90114846100F0BBFE040003D018
:101E800015E000F0E1F9E9E70D4800F0E1FE04009B
:101E90000DD1362000F034F8102D07D2002229464B
:101EA000362000F03BF80748056000E0012407B049
:101EB000204630BD4038024040420F000010004034
:101EC000B0230020640200200C4882B0016841F475
:101ED00080410160006800F4804000900748001FC6
:101EE000016841F0805101600068002200F08050DC
:101EF00000900F21901E02B000F010B8443802404C
:101F0000002809DB00F01F020121914040098000F8
:101F100000F1E020C0F8001170470000F0B40E4B53
:101F20001B680C46C3F30223C3F10705042D00D937
:101F30000425191D072901D2002300E0DB1E01261C
:101F400006FA05F1491E214099409E40761E164032
:101F50003143F0BC02F034BD0CED00E0064900F066
:101F6000070208684FF6FF03184040EA0220034AC0
:101F700010430860704700000CED00E00000FA0517
:101F8000034908B50120086202480068009008BDB6
:101F900000000E42007000402DE9F843054600683D
:101FA0004FF00109C1074FF0000601D1400727D5C6
:101FB000DFF80C81C8F86860FFF712FF0746414C54
:101FC00005E000BFFFF70CFFC01B022857D82068B0
:101FD0000001F7D468688101287A41EA0070394924
:101FE00084310860C8F86890FFF7FAFE074604E0FD
:101FF000FFF7F6FEC01B022841D820680001F7D584
:102000002878800752D52F484030016841F0805130
:10201000016000682C4C00F080500090206840F473
:1020200080702060FFF7DCFE074604E0FFF7D8FE73
:10203000C01B022823D82068C005F7D5214C703476
:10204000206810F4407020D0A98901F440718142C9
:102050001BD020681D4920F44070C1F800900E602C
:1020600020602068C00710D0FFF7BAFE064641F294
:10207000883707E0FFF7B4FE801BB84202D903207F
:10208000BDE8F88320688007F4D5E9680D48C1F3FE
:1020900001220830032A0BD0016821F4F8110160F5
:1020A0002068A989C1F30B01084320600020E7E7FD
:1020B0000268074B22F4F81219400A430260EFE766
:1020C000000047420038024000700040400E474286
:1020D000FFFCFF0F2DE9F0470E46050065D0DFF845
:1020E0001481D8F80000F7B200F00700B04207D220
:1020F00088F80070D8F8000000F00700B04254D112
:1021000028683D4C810712D5400703D5206840F46C
:10211000E05020602878000703D5206840F4604034
:1021200020602068A96820F0F0000843206028782B
:10213000C0072DD0304968680839012812D002281C
:1021400013D0032811D00968890700292DDA2168E6
:1021500021F0030101432160FFF742FE814641F275
:10216000883A0EE009688903EFE709688901ECE71E
:10217000FFF736FEA0EB0901514502D90320BDE867
:10218000F0872068696800F00C00B0EB810FEFD198
:10219000D8F80010404601F00701B14207D9077096
:1021A000006800F00700B04201D00120E7E728787E
:1021B000400705D52068E96820F4E0500843206016
:1021C0002878000706D52068296920F4604040EA95
:1021D000C100206000F058F82168084AC1F30311DB
:1021E000515CC8400649086006480068FFF720FEB9
:1021F0000020C4E7003C024008380240746D00082B
:102200006C020020640200200F2202600C4A136856
:1022100003F003034360136803F0F0038360136863
:1022200003F4E053C36012684FF4E05303EAD202B0
:1022300002610448006800F0070008607047000071
:1022400008380240003C024004480549006809681B
:10225000044AC1F38221515CC84070476C020020DF
:1022600008380240846D0008044805490068096880
:10227000044AC1F34231515CC84070476C020020EF
:1022800008380240846D0008154810B5006810F049
:102290000C02144813D04110042A0FD0082A0ED182
:1022A0000F4C241F2268236802F03F025B0207D50F
:1022B0002068C0F38810A0FB010106E0084610BDAD
:1022C0002168C1F38811A1FB00010023FEF75CF82F
:1022D0002168C1F30141491C4900B0FBF1F010BD78
:1022E000083802400024F4002DE9F84F04006ED0B5
:1022F0002078DFF84C93C007A9F104054AD009F112
:1023000004000168C1F38101012908D00068C0F30D
:10231000810002280AD1D9F80000400206D52868B9
:10232000800337D560680028E1D033E06068B0F5FD
:10233000803F10D0B0F5A02F286810D020F4803056
:102340002860286820F4802028606068A8B1FFF722
:1023500047FD06460DE0286840F48030F4E740F47D
:1023600080202860F7E700BFFFF73AFD801B642854
:1023700073D828688003F7D50CE0FFF731FD0646D7
:1023800005E000BFFFF72CFD801B6428F0D828680B
:102390008003F7D42078DFF8AC8280074FF0000A82
:1023A0003ED5A748001D016811F00C0F08D0006849
:1023B000C0F3810002280BD1D9F80000400207D4F5
:1023C0002868800716D5E068012800D112E033E1C3
:1023D000E068B8B10120C8F80000FFF701FD06462B
:1023E00005E000BFFFF7FCFC801B0228C0D828686E
:1023F0008007F7D52868216920F0F80040EAC1007D
:1024000028600DE0C8F800A0FFF7EAFC064604E0EB
:10241000FFF7E6FC801B02281FD828688007F7D446
:102420002078000722D5864F87486169703771B1DF
:1024300001210160FFF7D4FC064604E0FFF7D0FC61
:10244000801B022809D838688007F7D50EE0C0F84D
:1024500000A0FFF7C5FC064605E082E0FFF7C0FCE0
:10246000801B02287DD838688007F7D42078400781
:1024700068D5DFF8CCB100270BF13C0BDBF800008E
:10248000C0000BD4DBF8001041F08051CBF80010F5
:10249000DBF80000012700F0805000906B4E3068A0
:1024A000C00510D4306840F480703060FFF798FCAD
:1024B000009005E0FFF794FC0099401A022850D8DC
:1024C0003068C005F6D55E4EA0686C3601280FD086
:1024D0000528306810D020F001003060306820F00E
:1024E00004003060A068B8B1FFF77AFC00900FE0FC
:1024F000306840F00100F4E740F004003060F7E796
:10250000FFF76EFC0099411A41F28830814266D88B
:1025100030688007F4D50EE0FFF762FC009007E01A
:10252000FFF75EFC0099411A41F28830814256D88B
:1025300030688007F4D42FB1DBF8001021F080510F
:10254000CBF80010A069C8B33D49091D0968C1F363
:10255000810102294AD00228504607D0C8F86000FD
:1025600000E03CE0FFF73CFC04463BE04746C8F88F
:102570006000FFF735FC064605E000BFFFF730FCC2
:10258000801B02282BD828688001F7D4D4E90701E2
:102590000843A16A2E4A490802EB0141626A41EAF6
:1025A0008211084394F82C1040EA0161C9F8001028
:1025B00001203866FFF714FC044606E03EE000BF49
:1025C000FFF70EFC001B022809D828688001F7D508
:1025D00034E000BFFFF704FC001B022802D90320EF
:1025E000BDE8F88F28688001F4D427E00128F7D0EF
:1025F000D9F80000E26900F4800191421CD1226AFE
:1026000000F03F01914217D147F6C071626A014064
:10261000B1EB821F10D1A26A4FF0FF3300F44031BA
:1026200003EB5202B1EB024F06D194F82C1000F0EC
:102630007060B0EB016F01D00120D1E70020CFE73F
:102640000438024000004742800E474200700040BC
:102650000000FFFF0068503050F82100704700680C
:10266000503040F82120704710B500680B46416893
:102670000D480140080CD870C1F304245C7001F0CF
:102680003F049C70C1F34231197052B900F06EFEE4
:10269000D870587800F06AFE5870987800F066FE9E
:1026A0009870002010BD00003FFFFF0010B50B46E2
:1026B0000168896A596001680969C1F30E0199606E
:1026C000006801680D480140C1F305401870C1F36E
:1026D00006245C7001F07F049C70890DD97052B99A
:1026E00000F044FE1870587800F040FE587098785A
:1026F00000F03CFE9870002010BD00007F7F7F003E
:1027000010B5040002D0607F10B106E0012010BDBA
:1027100000202077204600F041F8022060772068F2
:10272000C168C943C90632D5CA2141622168532014
:102730004862204600F02EFE20BB20688168164AC1
:10274000114081602168886862681043D4E90423DD
:102750001A43104388602168E068086120680169B5
:10276000228941EA02410161204600F037FE48B962
:1027700021680A6C22F480220A6421680A6CA36929
:102780001A430A642268FF21516208B110BD00207B
:102790000121617710BD0000BFFF8FFF1FB5002131
:1027A00000910191029103910068084988420CD17F
:1027B00002200090C00103906846FFF7EDFB08B1CE
:1027C000FFF798F90249012008601FBD002800406A
:1027D0003C0E474270B50446007F0B46012819D0D5
:1027E0000126267702206077B2B19878D97840EA3E
:1027F000014558781978000240EA413005432168C4
:10280000CA204862216853204862204600F0C2FD79
:10281000D0B122E0022070BD5878C10603D500F087
:10282000EF000A305870D87800F0A9FD02045878FB
:1028300000F0A5FD42EA0022987800F0A0FD0243D6
:10284000187842EA4035DAE70748054020684560D5
:10285000204600F0C3FD00B966772268FF2151626F
:102860000021217770BD00003FFFFF002DE9F041FE
:102870000446007F0D46012823D04FF0010884F85C
:102880001C80022060772068002780684FEA406043
:10289000D2B1002800DBEF70A878297840EA014621
:1028A0006878E978000240EA815006432168CA202E
:1028B0004862216853204862204600F06BFDB8B1A1
:1028C0002CE00220BDE8F081002800DBEF702878C2
:1028D00000F055FD0204687800F051FD42EA002244
:1028E000A87800F04CFD0243E87842EA8056DDE724
:1028F0000D480640206806602068816821F4802128
:102900008160D5E90301084321688A681043886023
:10291000204600F063FD08B984F81D802268FF217D
:1029200051622777CEE700007F7F7F0070B50446B5
:102930000B482168C860FFF753FA05464FF47A76D2
:1029400007E000BFFFF74CFA401BB04201D903205B
:1029500070BD2068C0688006F4D5002070BD0000FE
:102960005F7F010070B5040009D0606A002540B1A6
:1029700025616561A56294F8510040B10CE0012029
:1029800070BD6068B0F5827FF4D0E561F2E784F84D
:102990005050204600F044F8022084F8510020688E
:1029A000016821F040010160A088218900F4827053
:1029B00001F404410843A18901F400610843217C2A
:1029C00001F002010843217D01F001010843218B40
:1029D00001F400710843217F01F03801084394F8A5
:1029E000201001F080010843218D01F400510843BB
:1029F00021680860A069042101EA104094F82410BD
:102A000001F010010843216848602068C16921F481
:102A10000061C1616565012084F85100002070BD2E
:102A200010B586B0044614216846FEF7A3F8134992
:102A30002068884220D112480021026842F40042F6
:102A40000260006800F4004005900D4810380268EC
:102A500042F002020260006800F0020005902820A7
:102A600000900220CDE9010103200390062004908C
:102A700069460448FFF7B2F806B010BD003C0040BC
:102A800040380240000402402DE9F84F98461646AF
:102A90008A460446FFF7A4F9814694F851000128BC
:102AA0001ED1BAF1000F73D0002E71D094F85000EF
:102AB000012815D0012784F85070032084F85100B4
:102AC00000256565C4F830A0A686E686A563A587BF
:102AD000E58765642564A068B0F5004F03D00CE07D
:102AE0000220BDE8F88F2068016821F040010160F4
:102AF0002068016841F4804101602068016849064E
:102B000003D4016841F040010160E068B0F5006F56
:102B1000606803D048B3012E27D047E008B1012EEA
:102B20001FD1206B21680088C86006E0206881689A
:102B3000890709D5216B0988C160206B801C20633F
:102B4000E08E401EE0860CE0FFF74AF9A0EB090199
:102B5000414503D3B8F1FF3F03D035E0B8F1000F92
:102B600032D0E08E0028E1D123E0206B216800788C
:102B7000087306E02068816889070AD5216B097807
:102B80000173206B401C2063E08E401EE0860DE048
:102B90002BE0FFF725F9A0EB0901414503D3B8F17C
:102BA000FF3F03D010E0B8F1000F0DD0E08E0028F9
:102BB000E0D14A464146204600F046FC08B12020BC
:102BC0006065A06830B109E084F8517084F8505015
:102BD000032086E72068C1688068009084F85170FF
:102BE00004F8505F60680028F3D0012079E770474F
:102BF000704710B5040003D094F83D0010B107E011
:102C0000012010BD002084F83C00204600F01EF892
:102C1000022084F83D00211D206800F083FE012081
:102C200084F8460084F83E0084F83F0084F84000B1
:102C300084F8410084F8420084F8430084F844009A
:102C400084F8450084F83D00002010BD7047000066
:102C500090F83D10012901D001207047022180F831
:102C60003D100168CA6842F00102CA60006811495B
:102C7000884214D0B0F1804F11D00F4988420ED055
:102C80000E4988420BD00E49884208D00D4988422F
:102C900005D00D49884202D00C49884204D1816890
:102CA00001F00701062903D0016841F0010101602C
:102CB0000020704700000140000400400008004070
:102CC000000C00400004014000400140001800409A
:102CD00070472DE9F04104460068C66805694FF069
:102CE0000007A90713D5B10711D5F91E016101200D
:102CF0002077206880698007204602D0FFF7E8FF30
:102D000004E000F07EF8204600F07CF827776807A2
:102D100016D5700714D521686FF0040008610220F1
:102D200020772068806910F4407F204602D0FFF7AA
:102D3000CFFF04E000F065F8204600F063F8277745
:102D4000280715D5300713D521686FF008000861F2
:102D5000042020772068C0698007204602D0FFF752
:102D6000B7FF04E000F04DF8204600F04BF827775D
:102D7000E80616D5F00614D521686FF0100008613A
:102D8000082020772068C06910F4407F204602D0D8
:102D9000FFF79EFF04E000F034F8204600F032F820
:102DA0002777E80708D0F00706D021686FF0010008
:102DB0000861204600F028F8280608D5300606D518
:102DC00021686FF0800008612046FFF710FF680659
:102DD00008D5700606D521686FF0400008612046CE
:102DE00000F01CF8A8060AD5B00608D521686FF0D7
:102DF000200008612046BDE8F041FFF7F9BEBDE8BC
:102E0000F08170477047000000680349884201D193
:102E1000FEF7ECBF7047000000100040704770B52F
:102E2000040004D094F84100002510B106E0012010
:102E300070BD84F84050204600F024F8242084F827
:102E400041002068C16821F40051C160204600F0B3
:102E5000F9FD2068016921F4904101612068416910
:102E600021F02A0141612068C16841F40051C1602C
:102E70006564202084F8410084F8420065630020E6
:102E800070BD000010B586B0044614216846FDF7F9
:102E900071FE14492068884221D11348002102683C
:102EA00042F010020260006800F0100005900E4829
:102EB0001438026842F001020260006800F001006C
:102EC00005904FF4C06000900220CDE9010103207D
:102ED00003900720049069460448FEF77FFE06B081
:102EE00010BD0000001001404438024000000240C4
:102EF0002DE9F84F044690F842009A4616460D46D2
:102F0000202802D00220BDE8F88FB5B1AEB1002074
:102F10006064222184F842102063FEF761FFA685D9
:102F20008146E685A0684FF480582027404501D1AE
:102F3000206920B12E46002529E00120E3E7002684
:102F400025E04B46002220212046CDF800A000F0CD
:102F5000FFFD18B184F842700320D4E726B1A068C1
:102F600040451AD038B108E020684068C0F3080036
:102F700025F8020B08E0206978B12068406800F06D
:102F80007F0000BF06F8010BE08D401EE085E08D5C
:102F90000028D6D184F84270B5E720684068F1E790
:102FA0002DE9F843044690F84100984616460D4630
:102FB000202802D00220BDE8F88385B17EB1002030
:102FC0006064212084F84100FEF70AFFA684814650
:102FD000E684A0682027B0F5805F02D003E00120DE
:102FE000E9E7206910B12E4600250EE000260CE02E
:102FF0008021204600F0ACFDA8B9C6B116F8010B3F
:1030000021684860E08C401EE084E08C4B464FF025
:103010000002CDF800800028EAD14FF040012046A0
:1030200000F096FD40B184F841700320C3E735F805
:10303000020BC0F30800E3E784F841700020BAE710
:10304000FEE7000010B5FEF725F9FEF7CDFA134AAA
:103050000421082001F04CFD114C2061FEF76CFAB0
:103060000E4A0021903A0F4801F020FE0B4A2060E2
:103070006C3A00210C4801F019FE084A6060483A99
:1030800000210A4801F012FE044AA060243A0021FF
:10309000074801F00BFEE06010BD00003C6D000829
:1030A00000000020993600082938000891370008F0
:1030B000713500082DE9F04186B014216846FDF70E
:1030C00059FD35480024016841F010010160016894
:1030D00001F010010591016841F0040101600168EF
:1030E00001F004010591016841F08001016001686F
:1030F00001F080010591016841F00801016001685B
:1031000001F008010591016841F0010101600168C9
:1031100001F001010591016841F0020101600068C0
:10312000012200F002001D4F56030590314638463B
:10313000FEF751FEDFF8688001224FF4305140461F
:10314000FEF749FE002271104046FEF744FE3C2087
:1031500001258DE8310069461248FEF73FFD0096D3
:10316000CDE90154694638460394FEF737FD4FF424
:1031700070500090CDE90154694640460394FEF733
:103180002DFDE8038DE8310069460748FEF726FD6E
:1031900006B0BDE8F081000030380240000802406F
:1031A000000C0240001002400000024030B587B021
:1031B00014216846FDF7DEFC00240594FEF7E0FECE
:1031C00020481F49C0E900147F218160FF21C0E928
:1031D000031444618461FFF793FA08B1FEF78AFC97
:1031E00000211848FFF736FA44F27005A84225D0AE
:1031F0008DF800408DF801408DF8024003940122C3
:10320000694610480494FFF731FB08B1FEF772FCE1
:1032100001208DF814008DF815008DF81600024677
:103220008DF8174005A90748FFF7D4FA08B1FEF753
:1032300061FC2A4600210348FFF711FA07B030BDB0
:1032400000280040F0220020104810B50E4901600F
:103250004FF48271416000218160C1604FF40072BF
:103260000161C0E905121822C0E9072141628162AB
:103270000A21C162FFF776FB002803D0BDE81040A9
:10328000FEF738BC10BD0000003C004010230020B9
:103290000C4810B50A4901604FF4E131416000214A
:1032A00081600C22C160C0E904128161C161FFF735
:1032B000B6FD002803D0BDE81040FEF71BBC10BDD2
:1032C0000010014068230020FEE7FEE770B588B0DB
:1032D00014460D4630B32DB324B307AB06AA05A997
:1032E0008DE80E0004AB03AA1CA1FDF707FA052820
:1032F00018D10398A0F5FA60642813D20498012825
:1033000010DB0C280EDC059801280BDB1F2809DCDC
:103310000698002806DB172804DC0798002801DB44
:103320003B2802DD002008B070BD00262E6014216D
:103330002046FDF71FFC0398A0F5FA60E87004989A
:1033400068700598A870012028700698207007986A
:103350006070A670E66001202661E4E725642D25F3
:10336000642D25645425643A25640000010901EBAD
:10337000810100F00F0000EB4100C0B27047002156
:1033800002E00A38C0B2491C0A28FAD2090740EA0A
:10339000116070472DE9F041044600680025C168BE
:1033A000490618D4C16841F08001C160FEF718FDDC
:1033B00006464FF47A78042707E000BFFEF710FDB9
:1033C000801B404501D9677701252068C068400609
:1033D00001D4002DF2D02846BDE8F08170B5044636
:1033E00000680025C16821F08001C1602068806804
:1033F000800606D42046FFF799FA10B104206077C2
:103400000125284670BD000000B587B090B189B194
:103410000068059014226846FDF750FB00226946BB
:103420000848FFF723FA28B9002205A90548FFF745
:10343000D1F910B1002007B000BD0120FDF7CCFF8D
:103440000120F8E7F0220020F8B515460E460B469D
:10345000009204460122022100F02CF8A0B9134882
:1034600013490068B0FBF1F04FF47A7148430090C3
:103470006068B0F5827F0DD133460022802120465E
:10348000009500F017F870B1606D40F020006065A5
:103490000320F8BD009830B1401E0090206880687D
:1034A000C0430006F6D50020F8BD00006C020020E5
:1034B00000366E012DE9F8431E46914688460446C3
:1034C000089DFEF78DFC401B351AFEF789FC074668
:1034D00026480068C0F3CB3068430AE0701C09D06E
:1034E000FEF77EFCC01BA8420FD275B10098B8B39E
:1034F000401E00902068816838EA010033D0002126
:103500004945EBD10020BDE8F8832068416821F0EF
:10351000E00141606068B0F5827F0BD1A068B0F532
:10352000004F02D0B0F5806F04D12068016821F00F
:1035300040010160A06AB0F5005F09D12068016810
:1035400021F4005101602068016841F400510160DC
:10355000012084F85100002084F850000320D2E7B5
:10356000FFE70025C6E70121CAE700006C02002042
:1035700040F6B838ADF5087D0025404601F04AFA1E
:1035800047F230590DF16C04FEF706F830B1012016
:10359000FDF7C0FE0720FDF7C1FF0CE0FEF732F893
:1035A00008B1012600E000263046FDF7B3FE0720F3
:1035B000FDF7B4FF0EB12DB112E000252846FDF74E
:1035C000C9FE47E001257BA980A8FEF741F928B193
:1035D0007BA980A8FFF718FF00B10120FDF7BAFE14
:1035E0006846FEF7F5F8C0B10120FDF77DFE9DF8B5
:1035F0006C0070B127A12046FDF7E4FA48B12046DF
:1036000081AA86A9FFF762FE18B181A986A8FFF7F3
:10361000FBFE6846FDF730FF08E00020FDF764FE82
:103620000020FDF7C3FE0620FDF778FF404601F0BD
:10363000F1F922A8FEF78AF801280FD002281BD042
:103640005FF00000FDF73AFE0020FDF799FE06202E
:10365000FDF764FF484601F0DDF995E70120FDF72D
:103660002DFE22A8FDF7EAFEFDF7D4FD00264FF45B
:103670007A7A4EF6602701E00120E3E7FDF718FEB5
:10368000002881D1504601F0C5F906F57A76BE4290
:10369000F4D379E72D2D00004FF0010808B5C1469D
:1036A000C246C346384C04212046FEF78FFB07462E
:1036B00008212046FEF78AFB064610212046FEF729
:1036C00085FB054620212046FEF780FB04469FB976
:1036D000B8F1010F10D1142001F09CF904212A48FF
:1036E000FEF774FB40B902200090284800231A46D8
:1036F0006946006901F028FA9EB9B9F1010F10D1AD
:10370000142001F087F908211F48FEF75FFB40B93C
:10371000012000901D4800231A466946006901F007
:1037200013FA9DB9BAF1010F10D1142001F072F90A
:1037300010211548FEF74AFB40B9032000901348BA
:1037400000231A466946006901F0FEF99CB9BBF1F5
:10375000010F10D1142001F05DF920210A48FEF775
:1037600035FB40B904200090084800231A466946FA
:10377000006901F0E9F9B846B146AA46A34614200B
:1037800001F048F98EE70000001002400000002020
:1037900092B04FF47A74002202A91948FEF786FF0E
:1037A00048BB002207A91648FEF75EFF18BB9DF82C
:1037B0000A109DF80900CDE900019DF8083011A21A
:1037C00010210DA8FCF758FE9DF81E109DF81D0055
:1037D000CDE900019DF81F300EA2142108A8FCF7C6
:1037E0004BFE08A90DA8FDF70DFE0120FDF7F4FD25
:1037F0000520FDF793FE204601F00CF9CBE7000011
:10380000F0220020253032643A253032643A2530E7
:10381000326400003230253032642D253032642D80
:10382000253032640000000008B5FDF7F9FC074DB3
:103830004FF0FF34234600226946286901F026F93B
:103840000028F7D10098FDF7F7FCF3E7000000200F
:1038500010B54FF0E020006902F002FE012803D00D
:10386000BDE8104002F0AAB910BD000030B593B019
:1038700030216846FDF77EF914210CA8FDF77AF98E
:103880001F480025016841F080510160006800F088
:10389000805011901B48016841F48041016000682C
:1038A000022400F480401190052000904FF48030F5
:1038B0000190012002908005CDE906400820089083
:1038C0004FF4A870CDE9090404200B906846FEF778
:1038D0000BFD08B172B6FEE70CA90F2081E831009C
:1038E0004FF4A0500F904FF48050109005210CA879
:1038F000FEF7F0FB002801D072B6FEE713B030BD32
:1039000040380240007000400248016841F47001F4
:103910000160704788ED00E00148FFF7DAB9000068
:10392000B0230020F0B50268274B284D284E294FC0
:10393000294C4FF0804C984209D0604507D0A842EE
:1039400005D0B04203D0B84201D0A04204D122F049
:10395000700E4A6842EA0E0298421BD0604519D0A8
:10396000A84217D0B04215D0B84213D0A04211D00F
:103970001A4DA8420ED01A4DA8420BD0194DA8429C
:1039800008D0194DA84205D0184DA84202D0184DB4
:10399000A84203D122F44075CA682A434D6922F037
:1039A00080022A438D68C5620D688562984201D005
:1039B000A04201D109690163016841F0040101607D
:1039C000012141610260F0BD00000140000400409F
:1039D00000080040000C004000040140004001408D
:1039E000004401400048014000180040001C004015
:1039F0000020004001680C3151E8002F22F4907241
:103A000041E80023002BF5D10168143151E8002F63
:103A100022F0010241E80023002BF5D1016B0129BE
:103A200009D101680C3151E8002F22F0100241E861
:103A30000023002BF5D1202180F8421000210163E2
:103A40007047000070B5044600680169E26821F41F
:103A50004051114301612169A068E269084361692D
:103A6000114308432168CA6849F20C639A43024330
:103A7000CA6020684169A26921F440711143416123
:103A800031492068884202D03049884202D1FEF78D
:103A9000EBFB01E0FEF7D8FBE26900231921642566
:103AA0003226B2F5004F626828D0A0FB0101930FC7
:103AB0009200FCF769FC0146B0FBF5F06FF01802CC
:103AC000504301EB800006EB0010B0FBF5F000F076
:103AD000F002B1FBF5F002EB0012B1FBF5F06FF074
:103AE0001803584301EB800006EB0010B0FBF5F023
:103AF00000F00F0021681044886070BDA0FB010138
:103B000092185B41FCF740FC0146B0FBF5F0020166
:103B1000B1FBF5F06FF01803584301EB800006EBA2
:103B2000C000B0FBF5F000F0F80002EB4002B1FB82
:103B3000F5F0584301EB800006EBC000B0FBF5F058
:103B400000F00700D6E7000000100140001401401B
:103B50002DE9F843984617460D460446089E24E092
:103B6000701C22D0FEF73CF9A0EB0800B0421AD836
:103B7000CEB12068C168490717D5802D15D0402DDA
:103B800013D00168C94309070FD4016800254068B4
:103B900000902046FFF72EFF0820606484F8405014
:103BA0000120BDE8F8830320FBE72068006835EAC0
:103BB000000004D00020B842D2D00020F1E701205C
:103BC000F9E70000002807D0002905D002B9034A10
:103BD000134603A2FCF750BC70470000103F0008DA
:103BE0002573000000B5ADF5037D684600F048FA86
:103BF0000D48007858B101280DD002280FD00328B5
:103C000002D1684600F012F80DF5037D00BD68464C
:103C100000F032F9F8E7684600F098F9F4E76846F2
:103C200000F0B4F8F0E70000140000202DE9F041A6
:103C30000446002000F0B2FD4FF6FF7505212B462B
:103C400040A2084600F072F92B4640A21921052037
:103C500000F06CF994F8050208B13EA200E03EA223
:103C60004FF4FC6633461921412000F05FF92B46E2
:103C70003AA22D21052000F059F994F8060208B166
:103C800034A200E034A233462D21412000F04EF949
:103C90002B4634A24121052000F048F994F8070290
:103CA00008B12CA200E02CA241213346084600F0C6
:103CB0003DF92F462B462DA25521052000F036F95F
:103CC00094F8080208B123A200E023A23546334647
:103CD0005521412000F02AF93B4626A26921052002
:103CE00000F024F994F8090208B11AA200E01AA21F
:103CF0002B466921412000F019F93B461FA27D2186
:103D0000052000F013F994F80A0208B111A200E0AE
:103D100011A22B467D21412000F008F93B4619A253
:103D20009121052000F002F994F80B0208B109A2D4
:103D300000E009A22B46BDE8F0419121412000F0AE
:103D4000F5B80000444542554700000057694669F0
:103D50003A0000004F4B00004E4F00004E6F773A84
:103D6000000000004461696C793A00004A736F6E8C
:103D70004E3A00004A736F6E443A00005254433A80
:103D8000000000004E54503A000000002DE9F04FB2
:103D9000804689B0002000F001FD05214FF6FF7339
:103DA00028A2084600F0C2F898F80902E0B10026FF
:103DB0004FF01C094FF6E07A40F2FF7BC6EBC600DD
:103DC00000EB400109EB410706EB4600C0EB461152
:103DD00008EB810414F1A90510D02846FCF70AFE6F
:103DE0000A280BD36B1D0AE04FF4784318A22D214B
:103DF000052000F09BF809B0BDE8F08F19A304F18D
:103E0000B900009018A2202101A8FCF735FB534609
:103E100001AA3946052000F089F804F1E900009074
:103E200004F1F10312A2202101A8FCF725FB5B4657
:103E300001AA07F11201052000F078F8761C032E84
:103E4000BCDBD8E7464F52454341535400000000C5
:103E50004E6F20666F726563617374206461746174
:103E6000000000002D2D00002573202573000000A8
:103E700025732F257343000070B50446002000F021
:103E80008DFC4FF6FF7505212B4620A2084600F059
:103E90004DF84FF4FC6322461C21082000F046F840
:103EA0002B4604F110023221082000F03FF84FF6B3
:103EB000E076334604F124024B21082000F036F866
:103EC00094F8A800D0B16E11334604F13C0262218F
:103ED000082000F02BF8334604F1540262214820F8
:103EE00000F024F82B460BA27A21082000F01EF8DF
:103EF0007A212B4604F160023A2003E06421334624
:103F000006A20820BDE8704000F010B8484F4D45AB
:103F10000000000048756D693A0000005765617443
:103F2000686572206C6F6164696E6700F8B507465A
:103F30001C460E4615461046FCF75CFD03462A4615
:103F400031463846009400F025FDF8BD2DE9F041DA
:103F50000446002000F022FC4FF6FF7505212B4699
:103F60002CA20846FFF7E2FF94F8A80000284CD0E6
:103F70002B462AA21C210520FFF7D8FF4FF4FC6630
:103F8000334604F124021C213A20FFF7CFFF2B46D1
:103F900024A232210520FFF7C9FF4FF6E07304F198
:103FA0003C0232213A20FFF7C1FF2B461FA24821D5
:103FB0000520FFF7BBFF6F113B4604F15402482177
:103FC0003A20FFF7B3FF2B461AA25E210520FFF728
:103FD000ADFF3B4604F160025E213A20FFF7A6FFE9
:103FE0002B4616A274210520FFF7A0FF2B4604F1F3
:103FF000840274213A20FFF799FF334611A28C21E5
:10400000BDE8F0410520FFF791BF4FF4784310A2BF
:104010002821F5E7574541544845520043697479D2
:104020003A000000546578743A00000054656D70E1
:104030003A00000048756D693A00000057696E64E7
:104040003A0000004F4B20526566726573680000AD
:104050004E6F2077656174686572206461746100D9
:104060000146064810B58068002803D000F0A0FD86
:1040700008B1002010BD012010BD00001400002078
:1040800070B504005AD04FF403752946FCF750FD73
:104090002BA210212046FFF795FD2CA2142104F13C
:1040A0001000FFF78FFD2CA2182104F12400FFF768
:1040B00089FD29A2182104F13C00FFF783FD27A206
:1040C0000C2104F15400FFF77DFD25A20C2104F121
:1040D0006000FFF777FD20A2182104F16C00FFF7C4
:1040E00071FD1DA20C2104F18400FFF76BFD1AA2E3
:1040F000182104F19000FFF765FD17A2102104F1CB
:10410000A900FFF75FFD14A2102104F21D10FFF7B4
:1041100059FD11A2102104F29110FFF753FD4FF049
:10412000FF30FFF79DFF002808D02A460D492046A2
:10413000FCF77FFCBDE8704000F016B870BD0000D1
:1041400030303A30303A3030000000003230303019
:104150002D30312D303100002D2D00002D2D43004C
:104160002D2D25002000002003488068002801D064
:1041700000F07BBD7047000014000020FEE7000047
:104180002DE9F04F87B0884600287DD0B8F1000FA8
:10419000FBD057A1FCF7F0FB002876D0002657A1F2
:1041A000FCF7EAFB0700F0D055A1FCF7E5FB0500A2
:1041B000EBD006EB4600C0EB461108EB81047421FE
:1041C0002046FCF7B5FC20464EA21021FDF7D2F99F
:1041D00004F1100083464BA21821FDF7CBF904F13E
:1041E0002800824647A21821FDF7C4F904F14000D7
:1041F000814644A20821FDF7BDF904F14800029070
:1042000040A208210390FDF7B5F904F150003DA24A
:1042100018210590FDF7AEF904F1680039A20C21D0
:104220000490FDF7A7F91020CDE9004036A337A28E
:1042300029463846FDF78CFC1821CDE900B132A3A0
:1042400035A229463846FDF783FC1821CDE900A1A7
:104250002DA335A229463846FDF77AFC4FF0080A0F
:10426000CDE9009A28A334A229463846FDF770FC10
:104270000398CDE9000A24A332A229463846FDF767
:1042800067FC182120A301E02FE02BE00598CDE981
:1042900000012EA229463846FDF75AFC0C2104984D
:1042A000CDE9000118A32EA229463846FDF750FC9F
:1042B000204614A1FCF786FCB8B1584611A1FCF7C2
:1042C00081FC90B148460FA1FCF77CFC68B10DA1C0
:1042D0000298FCF777FC40B1681C761C032EFFF6B1
:1042E0005EAF012007B0BDE8F08F0020FAE70000C4
:1042F000226461696C79223A5B0000007B00000057
:104300007D0000002D2D0000220000002264617459
:1043100065223A220000000022746578745F6461AF
:1043200079223A220000000022746578745F6E6979
:10433000676874223A2200002268696768223A227C
:1043400000000000226C6F77223A22002277696E0B
:10435000645F646972656374696F6E223A2200005B
:104360002277696E645F7363616C65223A22000094
:104370002DE9F04F89B00C465FEA00097BD0002C94
:10438000FCD085212046FCF7D3FB54A218212046FF
:10439000FDF7F0F804F1180052A218210646FDF7C7
:1043A000E9F804F1300050A20C210790FDF7E2F883
:1043B00004F13C004DA20C210690FDF7DBF804F15E
:1043C000480048A218218246FDF7D4F804F16000A5
:1043D00044A20C218346FDF7CDF804F16C0041A204
:1043E00018210590FDF7C6F84FF0180845462346FA
:1043F0003FA240A14846CDF80080FDF77DFB334643
:104400003BA23FA148460095FDF776FB07460826EC
:1044100001AB37A23DA148460096FDF76DFB0500B4
:1044200008D101AB32A23DA148460096FDF764FBDE
:10443000050005D001AB3CA20C210798FCF71CF845
:1044400003AB2BA239A148460096FDF755FB28B1D6
:1044500003AB3AA20C210698FCF70EF846465346E9
:1044600023A238A14846CDF80080FDF745FB40B9AE
:1044700053461FA200E02EE037A148460096FDF704
:104480003BFB4FF00C085B4619A236A14846CDF81D
:104490000080FDF731FB38B95B4615A235A14846CF
:1044A000CDF80080FDF728FB009611A235A1484603
:1044B000059BFDF721FB30B900960DA235A14846BA
:1044C000059BFDF719FB37B12DB1012084F884005D
:1044D00009B0BDE8F08F0020FAE700006265696A64
:1044E000696E67002D2D00002D2D43002D2D250018
:1044F00022000000226E616D65223A220000000059
:104500002274657874223A22000000002274656DDE
:104510007065726174757265223A22002274656D4D
:1045200070223A2200000000257343002268756D56
:104530006964697479223A220000000025732525F8
:10454000000000002277696E645F646972656374BD
:10455000696F6E223A2200002277696E64446972A4
:10456000223A22002277696E645F7363616C652270
:104570003A2200002277696E645363616C65223AC7
:1045800022000000226C6173745F75706461746551
:10459000223A2200226F627354696D65223A22002A
:1045A00010B5012251037C48FDF715FC012000F0F5
:1045B00041F9002000F04AF9002000F053F90120F1
:1045C000FDF7FAFA012000F04DF97820FDF7F4FA32
:1045D000112000F00FF97820FDF7EEFAB12000F07D
:1045E00009F9052000F016F93C2000F013F93C20F1
:1045F00000F010F9B22000F0FDF8052000F00AF9F3
:104600003C2000F007F93C2000F004F9B32000F052
:10461000F1F8052000F0FEF83C2000F0FBF83C200B
:1046200000F0F8F8052000F0F5F83C2000F0F2F872
:104630003C2000F0EFF8B42000F0DCF8032000F09C
:10464000E9F8C02000F0D6F8282000F0E3F80820B0
:1046500000F0E0F8042000F0DDF8C12000F0CAF816
:10466000C02000F0D7F8C22000F0C4F80D2000F000
:10467000D1F8002000F0CEF8C32000F0BBF88D2068
:1046800000F0C8F82A2000F0C5F8C42000F0B2F805
:104690008D2000F0BFF8EE2000F0BCF8C52000F03F
:1046A000A9F81A2000F0B6F8362000F0A3F8C020D0
:1046B00000F0B0F8E02000F09DF8042000F0AAF827
:1046C000222000F0A7F8072000F0A4F80A2000F04C
:1046D000A1F82E2000F09EF8302000F09BF8252055
:1046E00000F098F82A2000F095F8282000F092F8C1
:1046F000262000F08FF82E2000F08CF83A2000F0F1
:1047000089F8002000F086F8012000F083F80320EB
:1047100000F080F8132000F07DF8E12000F06AF846
:10472000042000F077F8162000F074F8062000F05E
:1047300071F80D2000F06EF82D2000F06BF82620A7
:1047400000F068F8232000F065F8272000F062F8F8
:10475000272000F05FF8252000F05CF82D2000F005
:1047600059F83B2000F056F8002000F053F80120E3
:1047700000F050F8042000F04DF8132000F04AF843
:104780003A2000F037F8052000F044F8BDE810406A
:10479000292000F02FB80000000C024070B506463A
:1047A00000229F237F21104600F068F80024002596
:1047B000304600F009F86D1CADB2802DF8D3641CB2
:1047C000A4B2A02CF3D370BD10B50446000A00F0CB
:1047D00021F8E0B2BDE8104000F01CB801B54FF080
:1047E000FF33012269460248FEF74EF908BD00007A
:1047F0001023002010B50446002000F027F8002008
:1048000000F018F82046FFF7E9FFBDE8104001204E
:1048100000F010B810B50446012000F017F8002091
:1048200000F008F82046FFF7D9FFBDE8104001204E
:10483000AFF30080044B4FF4006118B10122184619
:10484000FDF7C9BA0022FAE7000C0240044B4FF40E
:10485000805118B101221846FDF7BDBA0022FAE7CF
:10486000000C0240044B4FF4806118B1012218463D
:10487000FDF7B1BA0022FAE7000C02402DE9F04141
:1048800004461D4616460F462A20FFF7B3FF0020B8
:10489000FFF7C0FF2046FFF7BDFF0020FFF7BAFF7C
:1048A0003846FFF7B7FF2B20FFF7A4FF0020FFF7E4
:1048B000B1FF3046FFF7AEFF0020FFF7ABFF284601
:1048C000FFF7A8FFBDE8F0412C20FFF793BF0000E1
:1048D0002DE9F0411446984601F10F02D3B2CAB255
:1048E000C11DC9B2C0B2FFF7C9FFA4F13000092849
:1048F00005D8204800EB0414A4F540741EE0A4F190
:104900004100192805D81C4800EB0414A4F5826462
:1049100014E0A4F16100192805D8184800EB04142C
:10492000A4F5C2640AE0202C07D03A2C0DD02D2C1F
:104930000DD0252C0DD0222C0DD0114C0025002699
:10494000675D380609D5404608E00E4CF6E70E4C88
:10495000F4E70E4CF2E70E4CF0E70020FFF734FFCF
:104960007806070E761C082EEBDB6D1C102DE6DB9F
:10497000BDE8F0817A6800082A690008CA6A000860
:104980006A6C00087A6C00088A6C00089A6C00084F
:104990001A6900082DE9F0471D4616468946074664
:1049A0000024DDF8208007E0325D07EBC4004346B9
:1049B0004946FFF78DFF641CAC42F5DBBDE8F0878C
:1049C0000907090E002804DB00F1E02080F800143C
:1049D000704700F00F0000F1E02080F8141D7047D0
:1049E00030380A2801D20120704700207047FDF7B7
:1049F00005FAFEF73BFFFEF75DFBFEF7D7FBFEF780
:104A000023FCFEF745FC00F013F8FEF71BFB00F05B
:104A100021F8FEE710B5EFF3058111B16FF0050441
:104A200003E0002408B100F021FF204610BD000083
:104A3000EFF3058010B16FF005007047044801687E
:104A400011B14FF0FF307047012101600020704725
:104A5000C002002010B5EFF3058010B16FF0050023
:104A600010BD08480168012902D04FF0FF3010BD89
:104A7000054A002182F8141D0221016000F0A6FF02
:104A8000002010BDC00200200BE000E0F8B51D467C
:104A90006FF003026FF002064FF00004EFF305839E
:104AA000A3B1F0B1E9B1E5B9002200926A4601F084
:104AB00015FB012817D10098B0B10C494FF0805078
:104AC0000860BFF34F8FBFF36F8F0DE048B141B166
:104AD0002A4601F067FA012806D025B16FF00104DB
:104AE00002E0144600E034462046F8BD04ED00E044
:104AF000F8B514464FF00005EFF3058212BB08B37A
:104B000001B3A4B1D4E9023263B1502A1AD32269A5
:104B1000C2B1676900FB01F6B74213D3009501F0FB
:104B20009CF807E072B9226962B9626952B9002241
:104B300001F072F8050005D00CB1216800E00021F9
:104B400000F05EFE2846F8BDF8B51D466FF0030282
:104B50006FF002064FF00004EFF30583ABB100B332
:104B6000F9B1F5B90022134600926A4601F09CF9AA
:104B7000012818D10098B8B10C494FF08050086056
:104B8000BFF34F8FBFF36F8F0EE050B149B10023D9
:104B90002A4601F0D9F8012806D025B16FF00104AA
:104BA00002E0144600E034462046F8BD04ED00E083
:104BB0002DE9F0410D46014621F0010001F001010F
:104BC0004FF00004EFF305820AB1A41F16E048B1CC
:104BD00000296FF001066FF00207294608D001F0A6
:104BE00087FB07E06FF0030408E035B1344605E0C9
:104BF00001F0C2FA0128F8D100E03C462046BDE8A9
:104C0000F08170B505464FF00004EFF3058050BB0E
:104C10000DB1686800E00020C10701D0012600E066
:104C2000002600071FD46DB1D5E9021021B150282C
:104C300019D31EB1042002E020B114E0012000F0DD
:104C4000DEFF05E00EB1042000E0012000F0CCFF03
:104C5000040008D00DB1296800E0002100F0D0FD6B
:104C60000EB144F00104204670BD70B5014621F03C
:104C7000010001F001014FF00004EFF305820AB1D9
:104C8000A41F11E028B16FF0020529B101F06BF902
:104C900007E06FF0030407E000231A46194601F00D
:104CA00053F8012800D02C46204670BD2DE9FF4165
:104CB0004FEA01034FF00005EFF30581039549BB6F
:104CC00040B38027182100244AB3166806B1344641
:104CD00096691EB13146761E382E02D21679F60735
:104CE00003D0002004B0BDE8F081566906B1B708D2
:104CF000D2F808C0BCF1000F0DD0D5685C2D18D3D8
:104D000012693AB136B18DE806103A46214601F0F3
:104D100076FB03900DE0D6685EB912694AB903AA22
:104D2000CDE90012BAB2214601F03CFB012800D0C7
:104D300003950398D6E700002DE9F041134C0F4688
:104D40000546E6682068001D00F05CFC681C07D181
:104D500037B12168BDE8F0410D48091D00F0A2BC43
:104D600020683544B5424560216805D2A06BBDE896
:104D7000F041091D00F07EBC606B091D00F07AFC5B
:104D8000A06A854200D2A562BDE8F08170020020D1
:104D9000E82800202DE9F041054600F08FFC2D4C5D
:104DA000A068401CA06020682B4F10B1606930B330
:104DB0002BE02560A068012827D1002606EB86009D
:104DC00007EB800000F048FC761C382EF6D3234811
:104DD00000F042FC2148143000F03EFC1F4828300F
:104DE00000F03AFC1D483C3000F036FC1B485030C7
:104DF00000F032FC194860631430A06305E02068BD
:104E0000E96AC06A884200D82560606A401C606216
:104E10006864E86A2169884200D9206100EB80005B
:104E200007EB8000291D00F03DFC00F067FC606985
:104E300000280CD02068E96AC06A884207D2084975
:104E40004FF080500860BFF34F8FBFF36F8FBDE806
:104E5000F0810000700200203824002098280020F3
:104E600004ED00E038B500F029FC104C2068C8B90A
:104E70000F4800F0F1FB0E48143000F0EDFB0C4839
:104E8000E060143020610A4B0020F03B009003F1F9
:104E9000500210210A2000F0E0FE206010B105A1B0
:104EA00000F0AEFCBDE8384000F028BCAC020020A9
:104EB000EC290020546D72510000000030B4026CE7
:104EC0000B46002A0BD0C1681144C1608468A1421E
:104ED00001D30168C16030BC1846FBF7AABD30BCE5
:104EE00070472DE9F041856B174604460026026C99
:104EF00082B1C7B1E068FBF79CFDE168206C091A3C
:104F0000E1602268914202D2A168081AE060022F93
:104F100016D017E02068A8B9A06801F019FB064672
:104F20000020A0600EE06068FBF783FD216C6068E4
:104F300008446060A168884204D32068606001E092
:104F400005B16D1E6D1CA5633046BDE8F08110B53E
:104F5000044690F8590058B101280CD002280FD00F
:104F6000502080F31188BFF34F8FBFF36F8FFEE7A0
:104F7000206B00F0D7FB2046BDE8104000F0D2BB0C
:104F800010BD000010484FF47051420706D0C01DFC
:104F90000D4920F00700411AC1F570510B4A00235A
:104FA0000144C2E900030839183A21F007011160F1
:104FB0004B600B600B1AC0E9001393604FF0004088
:104FC0005360506170470000CC300020DC020020AC
:104FD000144E154CA6F29C474FF08058DFF84C90C9
:104FE00012E000BF00F06AFBF068C568281D00F001
:104FF00009FBA068401EA0606068401E606000F071
:105000007DFB2846FFF7A3FF60680028EAD13868D7
:105010000128F9D9C9F80080BFF34F8FBFF36F8F14
:10502000F2E70000D42800207002002004ED00E028
:10503000002807D00021816001600B460A46C1604C
:1050400000F082BE7047000070B51D46049C51B14F
:10505000C4F80020C4E90F010121204600F030FE11
:1050600084F84C5070BD2460F4E700002DE9F05F37
:105070008846DDE90B941546834691009A460A9EC0
:10508000A522206BFBF74CFD6FF00301206B01EBB9
:105090008501084420F00707780707D0502080F3E7
:1050A0001188BFF34F8FBFF36F8FFEE70025B8F174
:1050B000000F0FD05FF00000221818F8001082F8DF
:1050C000341018F8001011B1401C1028F4D384F8E3
:1050D000435001E084F83450382E00D33726E6627E
:1050E000C4E91365201D00F0C2FA04F1180000F0B5
:1050F000BEFA2461C6F138006462A061656584F877
:10510000585052465946384600F066FA2060B9F1C8
:10511000000F01D0C9F80040BDE8F09F30B511493B
:1051200000E011460A688242FBD34B685C18844257
:1051300003D1406818444860084643681C189442EC
:1051400009D1084C183C2468A24209D052681A447C
:1051500042600A6812680260814200D0086030BD77
:105160000460F9E7DC02002070B5002441600B4DBB
:105170000061914206D8D11A8269914206D2011D7E
:10518000286907E09A4203D2994201D3012403E03F
:10519000011DE86800F06EFA204670BDAC020020E8
:1051A00010B5044600F08AFAA06B28B15FF0000445
:1051B00000F0A4FA204610BD0124F9E730B589B00B
:1051C0003C4D6EE00498002806DADDE90601059AF8
:1051D00090470498002864DB069C606910B1201D8C
:1051E00000F010FA03A800F0D7F8024604980A2845
:1051F00057D2DFE800F00505052D334A05052D33AC
:1052000094F8280040F0010084F828000599A0696E
:10521000059B01442046FFF7A7FF68B3216A20469B
:10522000884794F8280040073BD500200090059857
:10523000A169002342181946204601F0CFFAD8B9D7
:10524000502080F31188BFF34F8FBFF36F8FFEE7BD
:1052500014F8280F20F00100207022E094F82800B4
:1052600040F0010084F828000598A06128B1811859
:1052700013462046FFF778FF13E0502080F3118893
:10528000BFF34F8FBFF36F8FFEE794F828008107BD
:1052900003D4204600F046FA03E020F0010084F831
:1052A0002800002204A9286800F07CFE002889D18B
:1052B00009B030BDAC0200202DE9FC410F46054687
:1052C00000F0C8FB01A800F067F80446019818B187
:1052D00001F0F2F9BDE8FC81254EAFB130690068FC
:1052E000D0B30027291B3A46306800F09DFA01F040
:1052F000E3F90028EED11F494FF080500860BFF35A
:105300004F8FBFF36F8FE5E7A542EBD801F0D4F9DB
:10531000F0682746C068C468201D00F073F994F84F
:105320002800410719D5A0692B4641193A46204665
:10533000FFF71AFFA8B100200346014600902A4655
:10534000204601F04BFA60B9502080F31188BFF37A
:105350004F8FBFF36F8FFEE707E020F0010084F866
:105360002800216A20468847B4E70127BAE70000F1
:10537000AC02002004ED00E00648416B096829B149
:10538000416BC968C9684968816270474FF0FF3155
:10539000FAE700007002002070B5054601F06EF8D3
:1053A000064E0446B068844203D200F009F801209A
:1053B00000E0002028602046B46070BDAC020020F0
:1053C000F8B5194D20E0C068C4680668201D00F0DB
:1053D00019F9216A2046884794F82800400713D518
:1053E000A0693044B04206D924616060211DE8689C
:1053F00000F040F908E000200346014600903246E4
:10540000204601F0EBF938B1E86801680029DAD1EB
:105410002969C5E90310F8BD502080F31188BFF356
:105420004F8FBFF36F8FFEE7AC0200200848406843
:10543000401C4FF0500080F3118804D0BFF34F8F11
:10544000BFF36F8FFEE7BFF34F8FBFF36F8FFEE7A2
:10545000E4020020074CE068016841B1C068002107
:10546000D0F80000FFF728FFFFF7A8FEF3E70121BF
:105470000020F7E7AC0200202DE9F041044600F0DF
:105480001DF994F9455004F1240609E0606A48B119
:10549000304601F0D9F808B100F016FA6D1E6DB271
:1054A000002DF3DC4FF0FF3684F8456000F026F95C
:1054B00000F004F994F9445004F1100709E0206960
:1054C00048B1384601F0C0F808B100F0FDF96D1E92
:1054D0006DB2002DF3DC84F84460BDE8F04100F0CB
:1054E0000DB900002DE9F0410546002700F0B2FAA1
:1054F000324E306808B9FFF745FD706905424ED15C
:10550000C5B3083568070ED005F00700C0F10800E4
:105510000544680707D0502080F31188BFF34F8FF0
:10552000BFF36F8FFEE72DB37068854237D82348ED
:10553000183001460C6801E020460C466168A9421B
:1055400002D221680029F7D131688C4227D0076840
:105550002168016060680837411B10290FD9601964
:10556000420708D0502080F31188BFF34F8FBFF35C
:105570006F8FFEE713E041606560FFF7CFFD616864
:105580007068401A7060B268904200D2B060706972
:1055900001430020C4E90001F068401CF06001F004
:1055A0008BF8780707D0502080F31188BFF34F8F16
:1055B000BFF36F8FFEE73846BDE8F081C4020020DC
:1055C0000449086818B10868026D521C0265086831
:1055D000704700007002002010B5031F4FF0807468
:1055E0001C601B1F21F001011960191F044B0B6087
:1055F00014390A60091F6FF0020244380A6010BDB6
:105600002D540008D0E9013201699A60D0E90123E4
:105610005A604A68824201D182684A60002202616F
:105620000868401E0860086870470000034B03606C
:1056300003F15C000860802010607047142A00208D
:10564000044B036003F15C0008604FF4807010604D
:1056500070470000702C002000F108014FF0FF326D
:10566000C0E90112C16001610021016070470021A1
:105670000161704730B50B685A1C02D000F1080276
:1056800002E0026904E02246546825689D42FAD986
:1056900053684B6099608A60516008610168491CD9
:1056A000016030BD42684A6093688B6093685960BE
:1056B000916008610168491C01607047502080F3C7
:1056C0001188BFF34F8FBFF36F8F0A494868401CA2
:1056D000486001280CD10848006810F0FF0F07D07F
:1056E000502080F31188BFF34F8FBFF36F8FFEE719
:1056F00070470000E402002004ED00E0084948681B
:1057000028B1401E486001D180F3118870475020B5
:1057100080F31188BFF34F8FBFF36F8FFEE7000058
:10572000E402002070B500282AD0164DA0F108042C
:1057300060686969084207D1502080F31188BFF37F
:105740004F8FBFF36F8FFEE722683AB1502080F38E
:105750001188BFF34F8FBFF36F8FFEE78843606000
:1057600000F078F960686968084468602046FFF7CF
:10577000D5FC2869401C2861BDE8704000F09CBF42
:1057800070BD0000C40200204FF0E0200021016144
:10579000816105494FF47A720968B1FBF2F1491E43
:1057A00041610721016170476C02002010B5FAF7D2
:1057B000C7FD114910280ED300F1E02090F8F00346
:1057C0000A78904207D2502080F31188BFF34F8FA0
:1057D000BFF36F8FFEE709480068896800F4E06056
:1057E000884207D9502080F31188BFF34F8FBFF351
:1057F0006F8FFEE710BD0000E40200200CED00E01A
:1058000010B5084B002200BF53F832401CB1521CA7
:10581000082AF9D310BD43F8321003EBC2014860E7
:1058200010BD0000F823002070B515460E46044652
:10583000FFF744FF94F944100020491C01D184F87B
:10584000440094F94510491C01D184F84500FFF744
:1058500055FFA06B28B92A46314604F1240000F018
:1058600051F82046BDE87040FFF706BE10B50200B3
:1058700014D00F48006B38B1502080F31188BFF36B
:105880004F8FBFF36F8FFEE700F0E4F80021104662
:10589000FFF752FA00F010FF002807D105494FF03A
:1058A00080500860BFF34F8FBFF36F8F10BD0000B3
:1058B0007002002004ED00E002490A6A0260C96833
:1058C000416070477002002001490120C8617047A3
:1058D0007002002010B50C4650B109490968183112
:1058E000FFF7C8FE2046BDE810400121FFF724BAAB
:1058F000502080F31188BFF34F8FBFF36F8FFEE707
:105900007002002070B514460D4668B10A49096856
:105910001831FFF7C7FE0CB14FF0FF35214628467E
:10592000BDE87040FFF708BA502080F31188BFF33C
:105930004F8FBFF36F8FFEE77002002070B5040039
:105940003ED0226DA2B1E06C884200D30146E06AED
:10595000884235D0012A33D11A4D2A6894420FD19A
:10596000502080F31188BFF34F8FBFF36F8FFEE796
:10597000502080F31188BFF34F8FBFF36F8FFEE786
:10598000E162A269002A02DBC1F13801A1610E4E79
:1059900000EB8000616906EB8000814210D1201D80
:1059A000FFF730FEE06A2969884200D9286100EBE0
:1059B000800006EB8000211DBDE87040FFF772BE3D
:1059C00070BD0000700200203824002030B587B080
:1059D0000024039405AA04A903A80494FFF726FE53
:1059E000DDE903010094CDE90110002315A117485A
:1059F000059A00F004FD164D0028E8621FD000F063
:105A0000BDFE012809D0401C19D1502080F3118817
:105A1000BFF34F8FBFF36F8FFEE7502080F31188E5
:105A2000BFF34F8FBFF36F8F4FF0FF30A86201209D
:105A30006861EC6007B0BDE8304000F045B807B0E1
:105A400030BD000049444C4500000000D14F000823
:105A5000700200200248016B491C0163704700007E
:105A600070020020164810B5016B11B10121C1610F
:105A700010BD0021C1610169124A01E0B9B1491E9E
:105A800001EB810352F82330002BF7D001EB8103A7
:105A900002EB830202F1080453685B685360A3427F
:105AA00001D15B685360DA680260016110BD50206B
:105AB00080F31188BFF34F8FBFF36F8FFEE70000B5
:105AC00070020020382400201CB537480168374A8E
:105AD000914207D1502080F31188BFF34F8FBFF35D
